{
  "address": "0x10a2aB77CD271Dc6065cFeB454a8117D74aA5617",
  "abi": [
    {
      "inputs": [
        {
          "internalType": "address",
          "name": "token_",
          "type": "address"
        }
      ],
      "stateMutability": "nonpayable",
      "type": "constructor"
    },
    {
      "anonymous": false,
      "inputs": [
        {
          "indexed": true,
          "internalType": "address",
          "name": "previousOwner",
          "type": "address"
        },
        {
          "indexed": true,
          "internalType": "address",
          "name": "newOwner",
          "type": "address"
        }
      ],
      "name": "OwnershipTransferred",
      "type": "event"
    },
    {
      "anonymous": false,
      "inputs": [
        {
          "indexed": false,
          "internalType": "bytes32",
          "name": "vestingScheduleId",
          "type": "bytes32"
        },
        {
          "indexed": false,
          "internalType": "uint256",
          "name": "amount",
          "type": "uint256"
        }
      ],
      "name": "Released",
      "type": "event"
    },
    {
      "anonymous": false,
      "inputs": [
        {
          "indexed": false,
          "internalType": "bytes32",
          "name": "vestingScheduleId",
          "type": "bytes32"
        }
      ],
      "name": "Revoked",
      "type": "event"
    },
    {
      "inputs": [
        {
          "internalType": "address",
          "name": "holder",
          "type": "address"
        }
      ],
      "name": "computeNextVestingScheduleIdForHolder",
      "outputs": [
        {
          "internalType": "bytes32",
          "name": "",
          "type": "bytes32"
        }
      ],
      "stateMutability": "view",
      "type": "function"
    },
    {
      "inputs": [
        {
          "internalType": "bytes32",
          "name": "vestingScheduleId",
          "type": "bytes32"
        }
      ],
      "name": "computeReleasableAmount",
      "outputs": [
        {
          "internalType": "uint256",
          "name": "",
          "type": "uint256"
        }
      ],
      "stateMutability": "view",
      "type": "function"
    },
    {
      "inputs": [
        {
          "internalType": "address",
          "name": "holder",
          "type": "address"
        },
        {
          "internalType": "uint256",
          "name": "index",
          "type": "uint256"
        }
      ],
      "name": "computeVestingScheduleIdForAddressAndIndex",
      "outputs": [
        {
          "internalType": "bytes32",
          "name": "",
          "type": "bytes32"
        }
      ],
      "stateMutability": "pure",
      "type": "function"
    },
    {
      "inputs": [
        {
          "internalType": "address",
          "name": "beneficiary",
          "type": "address"
        },
        {
          "internalType": "uint256",
          "name": "start",
          "type": "uint256"
        },
        {
          "internalType": "uint256",
          "name": "cliffDelta",
          "type": "uint256"
        },
        {
          "internalType": "uint256",
          "name": "duration",
          "type": "uint256"
        },
        {
          "internalType": "uint256",
          "name": "slicePeriodSeconds",
          "type": "uint256"
        },
        {
          "internalType": "bool",
          "name": "revocable",
          "type": "bool"
        },
        {
          "internalType": "uint256",
          "name": "amount",
          "type": "uint256"
        }
      ],
      "name": "createVestingSchedule",
      "outputs": [],
      "stateMutability": "nonpayable",
      "type": "function"
    },
    {
      "inputs": [
        {
          "components": [
            {
              "internalType": "address",
              "name": "beneficiary",
              "type": "address"
            },
            {
              "internalType": "uint256",
              "name": "start",
              "type": "uint256"
            },
            {
              "internalType": "uint256",
              "name": "cliffDelta",
              "type": "uint256"
            },
            {
              "internalType": "uint256",
              "name": "duration",
              "type": "uint256"
            },
            {
              "internalType": "uint256",
              "name": "slicePeriodSeconds",
              "type": "uint256"
            },
            {
              "internalType": "bool",
              "name": "revocable",
              "type": "bool"
            },
            {
              "internalType": "uint256",
              "name": "amount",
              "type": "uint256"
            }
          ],
          "internalType": "struct DYSVesting.VestingScheduleIn[]",
          "name": "vestingSchedulesIn",
          "type": "tuple[]"
        }
      ],
      "name": "createVestingSchedules",
      "outputs": [],
      "stateMutability": "nonpayable",
      "type": "function"
    },
    {
      "inputs": [],
      "name": "getToken",
      "outputs": [
        {
          "internalType": "address",
          "name": "",
          "type": "address"
        }
      ],
      "stateMutability": "view",
      "type": "function"
    },
    {
      "inputs": [
        {
          "internalType": "uint256",
          "name": "index",
          "type": "uint256"
        }
      ],
      "name": "getVestingIdAtIndex",
      "outputs": [
        {
          "internalType": "bytes32",
          "name": "",
          "type": "bytes32"
        }
      ],
      "stateMutability": "view",
      "type": "function"
    },
    {
      "inputs": [
        {
          "internalType": "bytes32",
          "name": "vestingScheduleId",
          "type": "bytes32"
        }
      ],
      "name": "getVestingSchedule",
      "outputs": [
        {
          "components": [
            {
              "internalType": "bool",
              "name": "initialized",
              "type": "bool"
            },
            {
              "internalType": "address",
              "name": "beneficiary",
              "type": "address"
            },
            {
              "internalType": "uint256",
              "name": "cliff",
              "type": "uint256"
            },
            {
              "internalType": "uint256",
              "name": "start",
              "type": "uint256"
            },
            {
              "internalType": "uint256",
              "name": "duration",
              "type": "uint256"
            },
            {
              "internalType": "uint256",
              "name": "slicePeriodSeconds",
              "type": "uint256"
            },
            {
              "internalType": "bool",
              "name": "revocable",
              "type": "bool"
            },
            {
              "internalType": "uint256",
              "name": "amountTotal",
              "type": "uint256"
            },
            {
              "internalType": "uint256",
              "name": "released",
              "type": "uint256"
            },
            {
              "internalType": "bool",
              "name": "revoked",
              "type": "bool"
            }
          ],
          "internalType": "struct DYSVesting.VestingSchedule",
          "name": "",
          "type": "tuple"
        }
      ],
      "stateMutability": "view",
      "type": "function"
    },
    {
      "inputs": [
        {
          "internalType": "address",
          "name": "holder",
          "type": "address"
        },
        {
          "internalType": "uint256",
          "name": "index",
          "type": "uint256"
        }
      ],
      "name": "getVestingScheduleByAddressAndIndex",
      "outputs": [
        {
          "components": [
            {
              "internalType": "bool",
              "name": "initialized",
              "type": "bool"
            },
            {
              "internalType": "address",
              "name": "beneficiary",
              "type": "address"
            },
            {
              "internalType": "uint256",
              "name": "cliff",
              "type": "uint256"
            },
            {
              "internalType": "uint256",
              "name": "start",
              "type": "uint256"
            },
            {
              "internalType": "uint256",
              "name": "duration",
              "type": "uint256"
            },
            {
              "internalType": "uint256",
              "name": "slicePeriodSeconds",
              "type": "uint256"
            },
            {
              "internalType": "bool",
              "name": "revocable",
              "type": "bool"
            },
            {
              "internalType": "uint256",
              "name": "amountTotal",
              "type": "uint256"
            },
            {
              "internalType": "uint256",
              "name": "released",
              "type": "uint256"
            },
            {
              "internalType": "bool",
              "name": "revoked",
              "type": "bool"
            }
          ],
          "internalType": "struct DYSVesting.VestingSchedule",
          "name": "",
          "type": "tuple"
        }
      ],
      "stateMutability": "view",
      "type": "function"
    },
    {
      "inputs": [],
      "name": "getVestingSchedulesCount",
      "outputs": [
        {
          "internalType": "uint256",
          "name": "",
          "type": "uint256"
        }
      ],
      "stateMutability": "view",
      "type": "function"
    },
    {
      "inputs": [
        {
          "internalType": "address",
          "name": "beneficiary",
          "type": "address"
        }
      ],
      "name": "getVestingSchedulesCountByBeneficiary",
      "outputs": [
        {
          "internalType": "uint256",
          "name": "",
          "type": "uint256"
        }
      ],
      "stateMutability": "view",
      "type": "function"
    },
    {
      "inputs": [],
      "name": "getVestingSchedulesTotalAmount",
      "outputs": [
        {
          "internalType": "uint256",
          "name": "",
          "type": "uint256"
        }
      ],
      "stateMutability": "view",
      "type": "function"
    },
    {
      "inputs": [],
      "name": "getWithdrawableAmount",
      "outputs": [
        {
          "internalType": "uint256",
          "name": "",
          "type": "uint256"
        }
      ],
      "stateMutability": "view",
      "type": "function"
    },
    {
      "inputs": [],
      "name": "owner",
      "outputs": [
        {
          "internalType": "address",
          "name": "",
          "type": "address"
        }
      ],
      "stateMutability": "view",
      "type": "function"
    },
    {
      "inputs": [
        {
          "internalType": "bytes32",
          "name": "vestingScheduleId",
          "type": "bytes32"
        },
        {
          "internalType": "uint256",
          "name": "amount",
          "type": "uint256"
        }
      ],
      "name": "release",
      "outputs": [],
      "stateMutability": "nonpayable",
      "type": "function"
    },
    {
      "inputs": [],
      "name": "renounceOwnership",
      "outputs": [],
      "stateMutability": "nonpayable",
      "type": "function"
    },
    {
      "inputs": [
        {
          "internalType": "bytes32",
          "name": "vestingScheduleId",
          "type": "bytes32"
        }
      ],
      "name": "revoke",
      "outputs": [],
      "stateMutability": "nonpayable",
      "type": "function"
    },
    {
      "inputs": [
        {
          "internalType": "address",
          "name": "newOwner",
          "type": "address"
        }
      ],
      "name": "transferOwnership",
      "outputs": [],
      "stateMutability": "nonpayable",
      "type": "function"
    },
    {
      "inputs": [
        {
          "internalType": "uint256",
          "name": "amount",
          "type": "uint256"
        }
      ],
      "name": "withdraw",
      "outputs": [],
      "stateMutability": "nonpayable",
      "type": "function"
    }
  ],
  "transactionHash": "0x4cba7d62d630342a00c48ecf0f8990117c7ff56a2ec4b33a39580b146504ebfd",
  "args": [
    "0x4EA658c98cfa7446deb80B3d03713321c6D1A6b4"
  ],
  "numDeployments": 1,
  "solcInputHash": "005a7be6b801eacc694bfeb52984f3e0",
  "bytecode": "0x60a06040523480156200001157600080fd5b5060405162003019380380620030198339818101604052810190620000379190620001ba565b620000576200004b620000d760201b60201c565b620000df60201b60201c565b60018081905550600073ffffffffffffffffffffffffffffffffffffffff168173ffffffffffffffffffffffffffffffffffffffff1614156200009957600080fd5b8073ffffffffffffffffffffffffffffffffffffffff1660808173ffffffffffffffffffffffffffffffffffffffff1660601b815250505062000234565b600033905090565b60008060009054906101000a900473ffffffffffffffffffffffffffffffffffffffff169050816000806101000a81548173ffffffffffffffffffffffffffffffffffffffff021916908373ffffffffffffffffffffffffffffffffffffffff1602179055508173ffffffffffffffffffffffffffffffffffffffff168173ffffffffffffffffffffffffffffffffffffffff167f8be0079c531659141344cd1fd0a4f28419497f9722a3daafe3b4186f6b6457e060405160405180910390a35050565b600081519050620001b4816200021a565b92915050565b600060208284031215620001cd57600080fd5b6000620001dd84828501620001a3565b91505092915050565b6000620001f382620001fa565b9050919050565b600073ffffffffffffffffffffffffffffffffffffffff82169050919050565b6200022581620001e6565b81146200023157600080fd5b50565b60805160601c612db1620002686000396000818161074f0152818161082101528181610bfa0152610f250152612db16000f3fe608060405234801561001057600080fd5b50600436106101215760003560e01c80638af104da116100ad578063ea1bb3d511610071578063ea1bb3d5146102e2578063f2fde38b14610312578063f51321d71461032e578063f7c469f01461035e578063f9079b371461038e57610121565b80638af104da1461022a5780638da5cb5b1461025a57806390be10cc146102785780639ef346b414610296578063b75c7dc6146102c657610121565b806348deb471116100f457806348deb4711461019a5780635a7bb69a146101b857806366afd8ef146101e8578063715018a614610204578063895005b61461020e57610121565b8063130836171461012657806317e289e91461014457806321df0da7146101605780632e1a7d4d1461017e575b600080fd5b61012e6103be565b60405161013b9190612613565b60405180910390f35b61015e60048036038101906101599190611d30565b6103cb565b005b61016861074b565b604051610175919061234d565b60405180910390f35b61019860048036038101906101939190611eca565b610773565b005b6101a261086f565b6040516101af9190612613565b60405180910390f35b6101d260048036038101906101cd9190611ccb565b610879565b6040516101df9190612613565b60405180910390f35b61020260048036038101906101fd9190611e8e565b6108c2565b005b61020c610c87565b005b61022860048036038101906102239190611dce565b610c9b565b005b610244600480360381019061023f9190611cf4565b610ec2565b6040516102519190612391565b60405180910390f35b610262610ef5565b60405161026f919061234d565b60405180910390f35b610280610f1e565b60405161028d9190612613565b60405180910390f35b6102b060048036038101906102ab9190611e65565b610fdb565b6040516102bd91906125f7565b60405180910390f35b6102e060048036038101906102db9190611e65565b6110ec565b005b6102fc60048036038101906102f79190611e65565b611354565b6040516103099190612613565b60405180910390f35b61032c60048036038101906103279190611ccb565b6114ca565b005b61034860048036038101906103439190611cf4565b61154e565b60405161035591906125f7565b60405180910390f35b61037860048036038101906103739190611ccb565b611570565b6040516103859190612391565b60405180910390f35b6103a860048036038101906103a39190611eca565b6115c2565b6040516103b59190612391565b60405180910390f35b6000600280549050905090565b6103d3611659565b806103dc610f1e565b101561041d576040517f08c379a0000000000000000000000000000000000000000000000000000000008152600401610414906124f7565b60405180910390fd5b60008411610460576040517f08c379a0000000000000000000000000000000000000000000000000000000008152600401610457906125d7565b60405180910390fd5b600081116104a3576040517f08c379a000000000000000000000000000000000000000000000000000000000815260040161049a90612457565b60405180910390fd5b60018310156104e7576040517f08c379a00000000000000000000000000000000000000000000000000000000081526004016104de90612437565b60405180910390fd5b8385111561052a576040517f08c379a0000000000000000000000000000000000000000000000000000000008152600401610521906124d7565b60405180910390fd5b600061053588611570565b9050600086886105459190612660565b90506040518061014001604052806001151581526020018a73ffffffffffffffffffffffffffffffffffffffff168152602001828152602001898152602001878152602001868152602001851515815260200184815260200160008152602001600015158152506003600084815260200190815260200160002060008201518160000160006101000a81548160ff02191690831515021790555060208201518160000160016101000a81548173ffffffffffffffffffffffffffffffffffffffff021916908373ffffffffffffffffffffffffffffffffffffffff16021790555060408201518160010155606082015181600201556080820151816003015560a0820151816004015560c08201518160050160006101000a81548160ff02191690831515021790555060e0820151816006015561010082015181600701556101208201518160080160006101000a81548160ff02191690831515021790555090505082600460008282546106b99190612660565b9250508190555060028290806001815401808255809150506001900390600052602060002001600090919091909150556001600560008b73ffffffffffffffffffffffffffffffffffffffff1673ffffffffffffffffffffffffffffffffffffffff16815260200190815260200160002060008282546107399190612660565b92505081905550505050505050505050565b60007f0000000000000000000000000000000000000000000000000000000000000000905090565b600260015414156107b9576040517f08c379a00000000000000000000000000000000000000000000000000000000081526004016107b0906125b7565b60405180910390fd5b60026001819055506107c9611659565b806107d2610f1e565b1015610813576040517f08c379a000000000000000000000000000000000000000000000000000000000815260040161080a906123f7565b60405180910390fd5b61086561081e610ef5565b827f000000000000000000000000000000000000000000000000000000000000000073ffffffffffffffffffffffffffffffffffffffff166116d79092919063ffffffff16565b6001808190555050565b6000600454905090565b6000600560008373ffffffffffffffffffffffffffffffffffffffff1673ffffffffffffffffffffffffffffffffffffffff168152602001908152602001600020549050919050565b60026001541415610908576040517f08c379a00000000000000000000000000000000000000000000000000000000081526004016108ff906125b7565b60405180910390fd5b6002600181905550816003600082815260200190815260200160002060000160009054906101000a900460ff1661093e57600080fd5b6003600082815260200190815260200160002060080160009054906101000a900460ff161561096c57600080fd5b600060036000858152602001908152602001600020905060008160000160019054906101000a900473ffffffffffffffffffffffffffffffffffffffff1673ffffffffffffffffffffffffffffffffffffffff163373ffffffffffffffffffffffffffffffffffffffff1614905060006109e4610ef5565b73ffffffffffffffffffffffffffffffffffffffff163373ffffffffffffffffffffffffffffffffffffffff161490508180610a1d5750805b610a5c576040517f08c379a0000000000000000000000000000000000000000000000000000000008152600401610a5390612517565b60405180910390fd5b6000610b5684604051806101400160405290816000820160009054906101000a900460ff161515151581526020016000820160019054906101000a900473ffffffffffffffffffffffffffffffffffffffff1673ffffffffffffffffffffffffffffffffffffffff1673ffffffffffffffffffffffffffffffffffffffff168152602001600182015481526020016002820154815260200160038201548152602001600482015481526020016005820160009054906101000a900460ff1615151515815260200160068201548152602001600782015481526020016008820160009054906101000a900460ff16151515158152505061175d565b905085811015610b9b576040517f08c379a0000000000000000000000000000000000000000000000000000000008152600401610b9290612577565b60405180910390fd5b85846007016000828254610baf9190612660565b925050819055508560046000828254610bc89190612741565b92505081905550610c3e8460000160019054906101000a900473ffffffffffffffffffffffffffffffffffffffff16877f000000000000000000000000000000000000000000000000000000000000000073ffffffffffffffffffffffffffffffffffffffff166116d79092919063ffffffff16565b7f22f206afbb58bbf5e729b2561506cabe613d001ea92899e227b3c2891cbcddc98787604051610c6f9291906123ac565b60405180910390a15050505050600180819055505050565b610c8f611659565b610c996000611843565b565b610ca3611659565b60005b82829050811015610ebd57610eaa838383818110610ced577f4e487b7100000000000000000000000000000000000000000000000000000000600052603260045260246000fd5b905060e002016000016020810190610d059190611ccb565b848484818110610d3e577f4e487b7100000000000000000000000000000000000000000000000000000000600052603260045260246000fd5b905060e0020160200135858585818110610d81577f4e487b7100000000000000000000000000000000000000000000000000000000600052603260045260246000fd5b905060e0020160400135868686818110610dc4577f4e487b7100000000000000000000000000000000000000000000000000000000600052603260045260246000fd5b905060e0020160600135878787818110610e07577f4e487b7100000000000000000000000000000000000000000000000000000000600052603260045260246000fd5b905060e0020160800135888888818110610e4a577f4e487b7100000000000000000000000000000000000000000000000000000000600052603260045260246000fd5b905060e0020160a0016020810190610e629190611e13565b898989818110610e9b577f4e487b7100000000000000000000000000000000000000000000000000000000600052603260045260246000fd5b905060e0020160c001356103cb565b8080610eb5906127fa565b915050610ca6565b505050565b60008282604051602001610ed792919061230a565b60405160208183030381529060405280519060200120905092915050565b60008060009054906101000a900473ffffffffffffffffffffffffffffffffffffffff16905090565b60006004547f000000000000000000000000000000000000000000000000000000000000000073ffffffffffffffffffffffffffffffffffffffff166370a08231306040518263ffffffff1660e01b8152600401610f7c919061234d565b60206040518083038186803b158015610f9457600080fd5b505afa158015610fa8573d6000803e3d6000fd5b505050506040513d601f19601f82011682018060405250810190610fcc9190611ef3565b610fd69190612741565b905090565b610fe3611b94565b60036000838152602001908152602001600020604051806101400160405290816000820160009054906101000a900460ff161515151581526020016000820160019054906101000a900473ffffffffffffffffffffffffffffffffffffffff1673ffffffffffffffffffffffffffffffffffffffff1673ffffffffffffffffffffffffffffffffffffffff168152602001600182015481526020016002820154815260200160038201548152602001600482015481526020016005820160009054906101000a900460ff1615151515815260200160068201548152602001600782015481526020016008820160009054906101000a900460ff1615151515815250509050919050565b6110f4611659565b806003600082815260200190815260200160002060000160009054906101000a900460ff1661112257600080fd5b6003600082815260200190815260200160002060080160009054906101000a900460ff161561115057600080fd5b60006003600084815260200190815260200160002090508060050160009054906101000a900460ff166111b8576040517f08c379a00000000000000000000000000000000000000000000000000000000081526004016111af90612537565b60405180910390fd5b60006112b282604051806101400160405290816000820160009054906101000a900460ff161515151581526020016000820160019054906101000a900473ffffffffffffffffffffffffffffffffffffffff1673ffffffffffffffffffffffffffffffffffffffff1673ffffffffffffffffffffffffffffffffffffffff168152602001600182015481526020016002820154815260200160038201548152602001600482015481526020016005820160009054906101000a900460ff1615151515815260200160068201548152602001600782015481526020016008820160009054906101000a900460ff16151515158152505061175d565b905060008111156112c8576112c784826108c2565b5b6000826007015483600601546112de9190612741565b905080600460008282546112f29190612741565b9250508190555060018360080160006101000a81548160ff0219169083151502179055507fe5af7daed5ab2a2dc5f98d53619f05089c0c14d11a6621f6b906a2366c9a7ab3856040516113459190612391565b60405180910390a15050505050565b6000816003600082815260200190815260200160002060000160009054906101000a900460ff1661138457600080fd5b6003600082815260200190815260200160002060080160009054906101000a900460ff16156113b257600080fd5b60006003600085815260200190815260200160002090506114c181604051806101400160405290816000820160009054906101000a900460ff161515151581526020016000820160019054906101000a900473ffffffffffffffffffffffffffffffffffffffff1673ffffffffffffffffffffffffffffffffffffffff1673ffffffffffffffffffffffffffffffffffffffff168152602001600182015481526020016002820154815260200160038201548152602001600482015481526020016005820160009054906101000a900460ff1615151515815260200160068201548152602001600782015481526020016008820160009054906101000a900460ff16151515158152505061175d565b92505050919050565b6114d2611659565b600073ffffffffffffffffffffffffffffffffffffffff168173ffffffffffffffffffffffffffffffffffffffff161415611542576040517f08c379a000000000000000000000000000000000000000000000000000000000815260040161153990612417565b60405180910390fd5b61154b81611843565b50565b611556611b94565b6115686115638484610ec2565b610fdb565b905092915050565b60006115bb82600560008573ffffffffffffffffffffffffffffffffffffffff1673ffffffffffffffffffffffffffffffffffffffff16815260200190815260200160002054610ec2565b9050919050565b60006115cc6103be565b821061160d576040517f08c379a000000000000000000000000000000000000000000000000000000000815260040161160490612497565b60405180910390fd5b60028281548110611647577f4e487b7100000000000000000000000000000000000000000000000000000000600052603260045260246000fd5b90600052602060002001549050919050565b611661611907565b73ffffffffffffffffffffffffffffffffffffffff1661167f610ef5565b73ffffffffffffffffffffffffffffffffffffffff16146116d5576040517f08c379a00000000000000000000000000000000000000000000000000000000081526004016116cc906124b7565b60405180910390fd5b565b6117588363a9059cbb60e01b84846040516024016116f6929190612368565b604051602081830303815290604052907bffffffffffffffffffffffffffffffffffffffffffffffffffffffff19166020820180517bffffffffffffffffffffffffffffffffffffffffffffffffffffffff838183161783525050505061190f565b505050565b6000806117686119d6565b9050826040015181108061177e57508261012001515b1561178d57600091505061183e565b826080015183606001516117a19190612660565b81106117c4578261010001518360e001516117bc9190612741565b91505061183e565b60008360600151826117d69190612741565b905060008460a001519050600081836117ef91906126b6565b9050600082826117ff91906126e7565b905060008760800151828960e0015161181891906126e7565b61182291906126b6565b9050876101000151816118359190612741565b96505050505050505b919050565b60008060009054906101000a900473ffffffffffffffffffffffffffffffffffffffff169050816000806101000a81548173ffffffffffffffffffffffffffffffffffffffff021916908373ffffffffffffffffffffffffffffffffffffffff1602179055508173ffffffffffffffffffffffffffffffffffffffff168173ffffffffffffffffffffffffffffffffffffffff167f8be0079c531659141344cd1fd0a4f28419497f9722a3daafe3b4186f6b6457e060405160405180910390a35050565b600033905090565b6000611971826040518060400160405280602081526020017f5361666545524332303a206c6f772d6c6576656c2063616c6c206661696c65648152508573ffffffffffffffffffffffffffffffffffffffff166119de9092919063ffffffff16565b90506000815111156119d157808060200190518101906119919190611e3c565b6119d0576040517f08c379a00000000000000000000000000000000000000000000000000000000081526004016119c790612597565b60405180910390fd5b5b505050565b600042905090565b60606119ed84846000856119f6565b90509392505050565b606082471015611a3b576040517f08c379a0000000000000000000000000000000000000000000000000000000008152600401611a3290612477565b60405180910390fd5b611a4485611b0a565b611a83576040517f08c379a0000000000000000000000000000000000000000000000000000000008152600401611a7a90612557565b60405180910390fd5b6000808673ffffffffffffffffffffffffffffffffffffffff168587604051611aac9190612336565b60006040518083038185875af1925050503d8060008114611ae9576040519150601f19603f3d011682016040523d82523d6000602084013e611aee565b606091505b5091509150611afe828286611b2d565b92505050949350505050565b6000808273ffffffffffffffffffffffffffffffffffffffff163b119050919050565b60608315611b3d57829050611b8d565b600083511115611b505782518084602001fd5b816040517f08c379a0000000000000000000000000000000000000000000000000000000008152600401611b8491906123d5565b60405180910390fd5b9392505050565b604051806101400160405280600015158152602001600073ffffffffffffffffffffffffffffffffffffffff1681526020016000815260200160008152602001600081526020016000815260200160001515815260200160008152602001600081526020016000151581525090565b600081359050611c1281612d1f565b92915050565b60008083601f840112611c2a57600080fd5b8235905067ffffffffffffffff811115611c4357600080fd5b6020830191508360e0820283011115611c5b57600080fd5b9250929050565b600081359050611c7181612d36565b92915050565b600081519050611c8681612d36565b92915050565b600081359050611c9b81612d4d565b92915050565b600081359050611cb081612d64565b92915050565b600081519050611cc581612d64565b92915050565b600060208284031215611cdd57600080fd5b6000611ceb84828501611c03565b91505092915050565b60008060408385031215611d0757600080fd5b6000611d1585828601611c03565b9250506020611d2685828601611ca1565b9150509250929050565b600080600080600080600060e0888a031215611d4b57600080fd5b6000611d598a828b01611c03565b9750506020611d6a8a828b01611ca1565b9650506040611d7b8a828b01611ca1565b9550506060611d8c8a828b01611ca1565b9450506080611d9d8a828b01611ca1565b93505060a0611dae8a828b01611c62565b92505060c0611dbf8a828b01611ca1565b91505092959891949750929550565b60008060208385031215611de157600080fd5b600083013567ffffffffffffffff811115611dfb57600080fd5b611e0785828601611c18565b92509250509250929050565b600060208284031215611e2557600080fd5b6000611e3384828501611c62565b91505092915050565b600060208284031215611e4e57600080fd5b6000611e5c84828501611c77565b91505092915050565b600060208284031215611e7757600080fd5b6000611e8584828501611c8c565b91505092915050565b60008060408385031215611ea157600080fd5b6000611eaf85828601611c8c565b9250506020611ec085828601611ca1565b9150509250929050565b600060208284031215611edc57600080fd5b6000611eea84828501611ca1565b91505092915050565b600060208284031215611f0557600080fd5b6000611f1384828501611cb6565b91505092915050565b611f2581612775565b82525050565b611f3481612775565b82525050565b611f4b611f4682612775565b612843565b82525050565b611f5a81612787565b82525050565b611f6981612793565b82525050565b6000611f7a8261262e565b611f848185612644565b9350611f948185602086016127c7565b80840191505092915050565b6000611fab82612639565b611fb5818561264f565b9350611fc58185602086016127c7565b611fce816128cf565b840191505092915050565b6000611fe660298361264f565b9150611ff1826128ed565b604082019050919050565b600061200960268361264f565b91506120148261293c565b604082019050919050565b600061202c602b8361264f565b91506120378261298b565b604082019050919050565b600061204f601e8361264f565b915061205a826129da565b602082019050919050565b600061207260268361264f565b915061207d82612a03565b604082019050919050565b6000612095601f8361264f565b91506120a082612a52565b602082019050919050565b60006120b860208361264f565b91506120c382612a7b565b602082019050919050565b60006120db60358361264f565b91506120e682612aa4565b604082019050919050565b60006120fe60488361264f565b915061210982612af3565b606082019050919050565b600061212160408361264f565b915061212c82612b68565b604082019050919050565b600061214460248361264f565b915061214f82612bb7565b604082019050919050565b6000612167601d8361264f565b915061217282612c06565b602082019050919050565b600061218a603b8361264f565b915061219582612c2f565b604082019050919050565b60006121ad602a8361264f565b91506121b882612c7e565b604082019050919050565b60006121d0601f8361264f565b91506121db82612ccd565b602082019050919050565b60006121f360208361264f565b91506121fe82612cf6565b602082019050919050565b610140820160008201516122206000850182611f51565b5060208201516122336020850182611f1c565b50604082015161224660408501826122d5565b50606082015161225960608501826122d5565b50608082015161226c60808501826122d5565b5060a082015161227f60a08501826122d5565b5060c082015161229260c0850182611f51565b5060e08201516122a560e08501826122d5565b506101008201516122ba6101008501826122d5565b506101208201516122cf610120850182611f51565b50505050565b6122de816127bd565b82525050565b6122ed816127bd565b82525050565b6123046122ff826127bd565b612867565b82525050565b60006123168285611f3a565b60148201915061232682846122f3565b6020820191508190509392505050565b60006123428284611f6f565b915081905092915050565b60006020820190506123626000830184611f2b565b92915050565b600060408201905061237d6000830185611f2b565b61238a60208301846122e4565b9392505050565b60006020820190506123a66000830184611f60565b92915050565b60006040820190506123c16000830185611f60565b6123ce60208301846122e4565b9392505050565b600060208201905081810360008301526123ef8184611fa0565b905092915050565b6000602082019050818103600083015261241081611fd9565b9050919050565b6000602082019050818103600083015261243081611ffc565b9050919050565b600060208201905081810360008301526124508161201f565b9050919050565b6000602082019050818103600083015261247081612042565b9050919050565b6000602082019050818103600083015261249081612065565b9050919050565b600060208201905081810360008301526124b081612088565b9050919050565b600060208201905081810360008301526124d0816120ab565b9050919050565b600060208201905081810360008301526124f0816120ce565b9050919050565b60006020820190508181036000830152612510816120f1565b9050919050565b6000602082019050818103600083015261253081612114565b9050919050565b6000602082019050818103600083015261255081612137565b9050919050565b600060208201905081810360008301526125708161215a565b9050919050565b600060208201905081810360008301526125908161217d565b9050919050565b600060208201905081810360008301526125b0816121a0565b9050919050565b600060208201905081810360008301526125d0816121c3565b9050919050565b600060208201905081810360008301526125f0816121e6565b9050919050565b60006101408201905061260d6000830184612209565b92915050565b600060208201905061262860008301846122e4565b92915050565b600081519050919050565b600081519050919050565b600081905092915050565b600082825260208201905092915050565b600061266b826127bd565b9150612676836127bd565b9250827fffffffffffffffffffffffffffffffffffffffffffffffffffffffffffffffff038211156126ab576126aa612871565b5b828201905092915050565b60006126c1826127bd565b91506126cc836127bd565b9250826126dc576126db6128a0565b5b828204905092915050565b60006126f2826127bd565b91506126fd836127bd565b9250817fffffffffffffffffffffffffffffffffffffffffffffffffffffffffffffffff048311821515161561273657612735612871565b5b828202905092915050565b600061274c826127bd565b9150612757836127bd565b92508282101561276a57612769612871565b5b828203905092915050565b60006127808261279d565b9050919050565b60008115159050919050565b6000819050919050565b600073ffffffffffffffffffffffffffffffffffffffff82169050919050565b6000819050919050565b60005b838110156127e55780820151818401526020810190506127ca565b838111156127f4576000848401525b50505050565b6000612805826127bd565b91507fffffffffffffffffffffffffffffffffffffffffffffffffffffffffffffffff82141561283857612837612871565b5b600182019050919050565b600061284e82612855565b9050919050565b6000612860826128e0565b9050919050565b6000819050919050565b7f4e487b7100000000000000000000000000000000000000000000000000000000600052601160045260246000fd5b7f4e487b7100000000000000000000000000000000000000000000000000000000600052601260045260246000fd5b6000601f19601f8301169050919050565b60008160601b9050919050565b7f44595356657374696e673a206e6f7420656e6f7567682077697468647261776160008201527f626c652066756e64730000000000000000000000000000000000000000000000602082015250565b7f4f776e61626c653a206e6577206f776e657220697320746865207a65726f206160008201527f6464726573730000000000000000000000000000000000000000000000000000602082015250565b7f44595356657374696e673a20736c696365506572696f645365636f6e6473206d60008201527f757374206265203e3d2031000000000000000000000000000000000000000000602082015250565b7f44595356657374696e673a20616d6f756e74206d757374206265203e20300000600082015250565b7f416464726573733a20696e73756666696369656e742062616c616e636520666f60008201527f722063616c6c0000000000000000000000000000000000000000000000000000602082015250565b7f44595356657374696e673a20696e646578206f7574206f6620626f756e647300600082015250565b7f4f776e61626c653a2063616c6c6572206973206e6f7420746865206f776e6572600082015250565b7f44595356657374696e673a20636c69666644656c74612063616e6e6f7420626560008201527f20686967686572207468616e206475726174696f6e0000000000000000000000602082015250565b7f44595356657374696e673a2063616e6e6f74206372656174652076657374696e60008201527f67207363686564756c652062656361757365206e6f742073756666696369656e60208201527f7420746f6b656e73000000000000000000000000000000000000000000000000604082015250565b7f44595356657374696e673a206f6e6c792062656e656669636961727920616e6460008201527f206f776e65722063616e2072656c656173652076657374656420746f6b656e73602082015250565b7f44595356657374696e673a2076657374696e67206973206e6f74207265766f6360008201527f61626c6500000000000000000000000000000000000000000000000000000000602082015250565b7f416464726573733a2063616c6c20746f206e6f6e2d636f6e7472616374000000600082015250565b7f44595356657374696e673a2063616e6e6f742072656c6561736520746f6b656e60008201527f732c206e6f7420656e6f7567682076657374656420746f6b656e730000000000602082015250565b7f5361666545524332303a204552433230206f7065726174696f6e20646964206e60008201527f6f74207375636365656400000000000000000000000000000000000000000000602082015250565b7f5265656e7472616e637947756172643a207265656e7472616e742063616c6c00600082015250565b7f44595356657374696e673a206475726174696f6e206d757374206265203e2030600082015250565b612d2881612775565b8114612d3357600080fd5b50565b612d3f81612787565b8114612d4a57600080fd5b50565b612d5681612793565b8114612d6157600080fd5b50565b612d6d816127bd565b8114612d7857600080fd5b5056fea26469706673582212202184a19e28d3fc3947d62dcfd47dc0df1c11d56debefe49757095ab9b20d478d64736f6c63430008040033",
  "devdoc": {
    "kind": "dev",
    "methods": {
      "computeNextVestingScheduleIdForHolder(address)": {
        "details": "Computes the next vesting schedule identifier for a given holder address."
      },
      "computeReleasableAmount(bytes32)": {
        "returns": {
          "_0": "the vested amount"
        }
      },
      "computeVestingScheduleIdForAddressAndIndex(address,uint256)": {
        "details": "Computes the vesting schedule identifier for an address and an index."
      },
      "constructor": {
        "details": "Creates a vesting contract.",
        "params": {
          "token_": "address of the DYS ERC20 token contract"
        }
      },
      "createVestingSchedule(address,uint256,uint256,uint256,uint256,bool,uint256)": {
        "params": {
          "amount": "total amount of tokens to be released at the end of the vesting",
          "beneficiary": "address of the beneficiary to whom vested tokens are transferred",
          "cliffDelta": "duration in seconds of the cliff in which tokens will begin to vest",
          "duration": "duration in seconds of the period in which the tokens will vest",
          "revocable": "whether the vesting is revocable or not",
          "slicePeriodSeconds": "duration of a slice period for the vesting in seconds",
          "start": "start time of the vesting period"
        }
      },
      "createVestingSchedules((address,uint256,uint256,uint256,uint256,bool,uint256)[])": {
        "params": {
          "vestingSchedulesIn": "array of vesting schedules to create"
        }
      },
      "getToken()": {
        "details": "Returns the address of the DYS ERC20 token managed by the vesting contract."
      },
      "getVestingIdAtIndex(uint256)": {
        "details": "Returns the vesting schedule id at the given index.",
        "returns": {
          "_0": "the vesting id"
        }
      },
      "getVestingSchedule(bytes32)": {
        "returns": {
          "_0": "the vesting schedule structure information"
        }
      },
      "getVestingScheduleByAddressAndIndex(address,uint256)": {
        "returns": {
          "_0": "the vesting schedule structure information"
        }
      },
      "getVestingSchedulesCount()": {
        "details": "Returns the number of vesting schedules managed by this contract.",
        "returns": {
          "_0": "the number of vesting schedules"
        }
      },
      "getVestingSchedulesCountByBeneficiary(address)": {
        "details": "Returns the number of vesting schedules associated to a beneficiary.",
        "returns": {
          "_0": "the number of vesting schedules"
        }
      },
      "getVestingSchedulesTotalAmount()": {
        "returns": {
          "_0": "the total amount of vested funds"
        }
      },
      "getWithdrawableAmount()": {
        "details": "Returns the amount of tokens that can be withdrawn by the owner.",
        "returns": {
          "_0": "the amount of tokens"
        }
      },
      "owner()": {
        "details": "Returns the address of the current owner."
      },
      "release(bytes32,uint256)": {
        "params": {
          "amount": "the amount to release",
          "vestingScheduleId": "the vesting schedule identifier"
        }
      },
      "renounceOwnership()": {
        "details": "Leaves the contract without owner. It will not be possible to call `onlyOwner` functions anymore. Can only be called by the current owner. NOTE: Renouncing ownership will leave the contract without an owner, thereby removing any functionality that is only available to the owner."
      },
      "revoke(bytes32)": {
        "params": {
          "vestingScheduleId": "the vesting schedule identifier"
        }
      },
      "transferOwnership(address)": {
        "details": "Transfers ownership of the contract to a new account (`newOwner`). Can only be called by the current owner."
      },
      "withdraw(uint256)": {
        "params": {
          "amount": "the amount to withdraw"
        }
      }
    },
    "version": 1
  },
  "userdoc": {
    "kind": "user",
    "methods": {
      "computeReleasableAmount(bytes32)": {
        "notice": "Computes the vested amount of tokens for the given vesting schedule identifier."
      },
      "createVestingSchedule(address,uint256,uint256,uint256,uint256,bool,uint256)": {
        "notice": "Creates a new vesting schedule for a beneficiary."
      },
      "createVestingSchedules((address,uint256,uint256,uint256,uint256,bool,uint256)[])": {
        "notice": "Creates vesting schedules in batch"
      },
      "getVestingSchedule(bytes32)": {
        "notice": "Returns the vesting schedule information for a given identifier."
      },
      "getVestingScheduleByAddressAndIndex(address,uint256)": {
        "notice": "Returns the vesting schedule information for a given holder and index."
      },
      "getVestingSchedulesTotalAmount()": {
        "notice": "Returns the total amount of vested funds."
      },
      "release(bytes32,uint256)": {
        "notice": "Release vested amount of tokens."
      },
      "revoke(bytes32)": {
        "notice": "Revokes the vesting schedule for given identifier."
      },
      "withdraw(uint256)": {
        "notice": "Withdraw the specified amount if possible."
      }
    },
    "version": 1
  },
  "storageLayout": {
    "storage": [
      {
        "astId": 2888,
        "contract": "contracts/DYS/DYSVesting.sol:DYSVesting",
        "label": "_owner",
        "offset": 0,
        "slot": "0",
        "type": "t_address"
      },
      {
        "astId": 3112,
        "contract": "contracts/DYS/DYSVesting.sol:DYSVesting",
        "label": "_status",
        "offset": 0,
        "slot": "1",
        "type": "t_uint256"
      },
      {
        "astId": 5198,
        "contract": "contracts/DYS/DYSVesting.sol:DYSVesting",
        "label": "_vestingSchedulesIds",
        "offset": 0,
        "slot": "2",
        "type": "t_array(t_bytes32)dyn_storage"
      },
      {
        "astId": 5203,
        "contract": "contracts/DYS/DYSVesting.sol:DYSVesting",
        "label": "_vestingSchedules",
        "offset": 0,
        "slot": "3",
        "type": "t_mapping(t_bytes32,t_struct(VestingSchedule)5192_storage)"
      },
      {
        "astId": 5205,
        "contract": "contracts/DYS/DYSVesting.sol:DYSVesting",
        "label": "_vestingSchedulesTotalAmount",
        "offset": 0,
        "slot": "4",
        "type": "t_uint256"
      },
      {
        "astId": 5209,
        "contract": "contracts/DYS/DYSVesting.sol:DYSVesting",
        "label": "_holdersVestingCount",
        "offset": 0,
        "slot": "5",
        "type": "t_mapping(t_address,t_uint256)"
      }
    ],
    "types": {
      "t_address": {
        "encoding": "inplace",
        "label": "address",
        "numberOfBytes": "20"
      },
      "t_array(t_bytes32)dyn_storage": {
        "base": "t_bytes32",
        "encoding": "dynamic_array",
        "label": "bytes32[]",
        "numberOfBytes": "32"
      },
      "t_bool": {
        "encoding": "inplace",
        "label": "bool",
        "numberOfBytes": "1"
      },
      "t_bytes32": {
        "encoding": "inplace",
        "label": "bytes32",
        "numberOfBytes": "32"
      },
      "t_mapping(t_address,t_uint256)": {
        "encoding": "mapping",
        "key": "t_address",
        "label": "mapping(address => uint256)",
        "numberOfBytes": "32",
        "value": "t_uint256"
      },
      "t_mapping(t_bytes32,t_struct(VestingSchedule)5192_storage)": {
        "encoding": "mapping",
        "key": "t_bytes32",
        "label": "mapping(bytes32 => struct DYSVesting.VestingSchedule)",
        "numberOfBytes": "32",
        "value": "t_struct(VestingSchedule)5192_storage"
      },
      "t_struct(VestingSchedule)5192_storage": {
        "encoding": "inplace",
        "label": "struct DYSVesting.VestingSchedule",
        "members": [
          {
            "astId": 5173,
            "contract": "contracts/DYS/DYSVesting.sol:DYSVesting",
            "label": "initialized",
            "offset": 0,
            "slot": "0",
            "type": "t_bool"
          },
          {
            "astId": 5175,
            "contract": "contracts/DYS/DYSVesting.sol:DYSVesting",
            "label": "beneficiary",
            "offset": 1,
            "slot": "0",
            "type": "t_address"
          },
          {
            "astId": 5177,
            "contract": "contracts/DYS/DYSVesting.sol:DYSVesting",
            "label": "cliff",
            "offset": 0,
            "slot": "1",
            "type": "t_uint256"
          },
          {
            "astId": 5179,
            "contract": "contracts/DYS/DYSVesting.sol:DYSVesting",
            "label": "start",
            "offset": 0,
            "slot": "2",
            "type": "t_uint256"
          },
          {
            "astId": 5181,
            "contract": "contracts/DYS/DYSVesting.sol:DYSVesting",
            "label": "duration",
            "offset": 0,
            "slot": "3",
            "type": "t_uint256"
          },
          {
            "astId": 5183,
            "contract": "contracts/DYS/DYSVesting.sol:DYSVesting",
            "label": "slicePeriodSeconds",
            "offset": 0,
            "slot": "4",
            "type": "t_uint256"
          },
          {
            "astId": 5185,
            "contract": "contracts/DYS/DYSVesting.sol:DYSVesting",
            "label": "revocable",
            "offset": 0,
            "slot": "5",
            "type": "t_bool"
          },
          {
            "astId": 5187,
            "contract": "contracts/DYS/DYSVesting.sol:DYSVesting",
            "label": "amountTotal",
            "offset": 0,
            "slot": "6",
            "type": "t_uint256"
          },
          {
            "astId": 5189,
            "contract": "contracts/DYS/DYSVesting.sol:DYSVesting",
            "label": "released",
            "offset": 0,
            "slot": "7",
            "type": "t_uint256"
          },
          {
            "astId": 5191,
            "contract": "contracts/DYS/DYSVesting.sol:DYSVesting",
            "label": "revoked",
            "offset": 0,
            "slot": "8",
            "type": "t_bool"
          }
        ],
        "numberOfBytes": "288"
      },
      "t_uint256": {
        "encoding": "inplace",
        "label": "uint256",
        "numberOfBytes": "32"
      }
    }
  }
}