{
  "address": "0x04710aD3Ea5DC7C6Fe9ea535d25DEabd80fF4049",
  "abi": [
    {
      "inputs": [
        {
          "internalType": "address",
          "name": "admin",
          "type": "address"
        },
        {
          "internalType": "address",
          "name": "pauser",
          "type": "address"
        },
        {
          "internalType": "address",
          "name": "storeAdmin",
          "type": "address"
        },
        {
          "internalType": "address",
          "name": "beneficiary",
          "type": "address"
        },
        {
          "internalType": "address",
          "name": "signer_",
          "type": "address"
        },
        {
          "internalType": "address",
          "name": "inGameItemsAddress",
          "type": "address"
        },
        {
          "internalType": "address",
          "name": "trustedForwarder_",
          "type": "address"
        }
      ],
      "stateMutability": "nonpayable",
      "type": "constructor"
    },
    {
      "anonymous": false,
      "inputs": [
        {
          "indexed": false,
          "internalType": "uint256",
          "name": "itemId",
          "type": "uint256"
        },
        {
          "indexed": false,
          "internalType": "uint256",
          "name": "itemSeriesId",
          "type": "uint256"
        },
        {
          "indexed": false,
          "internalType": "uint256",
          "name": "ethPrice",
          "type": "uint256"
        },
        {
          "indexed": false,
          "internalType": "uint256",
          "name": "erc20Price",
          "type": "uint256"
        },
        {
          "indexed": false,
          "internalType": "address",
          "name": "erc20Address",
          "type": "address"
        },
        {
          "indexed": false,
          "internalType": "bool",
          "name": "active",
          "type": "bool"
        }
      ],
      "name": "ItemSeriesPricingUpdated",
      "type": "event"
    },
    {
      "anonymous": false,
      "inputs": [
        {
          "indexed": false,
          "internalType": "address",
          "name": "account",
          "type": "address"
        }
      ],
      "name": "Paused",
      "type": "event"
    },
    {
      "anonymous": false,
      "inputs": [
        {
          "indexed": true,
          "internalType": "bytes32",
          "name": "role",
          "type": "bytes32"
        },
        {
          "indexed": true,
          "internalType": "bytes32",
          "name": "previousAdminRole",
          "type": "bytes32"
        },
        {
          "indexed": true,
          "internalType": "bytes32",
          "name": "newAdminRole",
          "type": "bytes32"
        }
      ],
      "name": "RoleAdminChanged",
      "type": "event"
    },
    {
      "anonymous": false,
      "inputs": [
        {
          "indexed": true,
          "internalType": "bytes32",
          "name": "role",
          "type": "bytes32"
        },
        {
          "indexed": true,
          "internalType": "address",
          "name": "account",
          "type": "address"
        },
        {
          "indexed": true,
          "internalType": "address",
          "name": "sender",
          "type": "address"
        }
      ],
      "name": "RoleGranted",
      "type": "event"
    },
    {
      "anonymous": false,
      "inputs": [
        {
          "indexed": true,
          "internalType": "bytes32",
          "name": "role",
          "type": "bytes32"
        },
        {
          "indexed": true,
          "internalType": "address",
          "name": "account",
          "type": "address"
        },
        {
          "indexed": true,
          "internalType": "address",
          "name": "sender",
          "type": "address"
        }
      ],
      "name": "RoleRevoked",
      "type": "event"
    },
    {
      "anonymous": false,
      "inputs": [
        {
          "indexed": false,
          "internalType": "address",
          "name": "account",
          "type": "address"
        }
      ],
      "name": "Unpaused",
      "type": "event"
    },
    {
      "inputs": [],
      "name": "BENEFICIARY_ROLE",
      "outputs": [
        {
          "internalType": "bytes32",
          "name": "",
          "type": "bytes32"
        }
      ],
      "stateMutability": "view",
      "type": "function"
    },
    {
      "inputs": [],
      "name": "DEFAULT_ADMIN_ROLE",
      "outputs": [
        {
          "internalType": "bytes32",
          "name": "",
          "type": "bytes32"
        }
      ],
      "stateMutability": "view",
      "type": "function"
    },
    {
      "inputs": [],
      "name": "PAUSER_ROLE",
      "outputs": [
        {
          "internalType": "bytes32",
          "name": "",
          "type": "bytes32"
        }
      ],
      "stateMutability": "view",
      "type": "function"
    },
    {
      "inputs": [],
      "name": "STORE_ADMIN_ROLE",
      "outputs": [
        {
          "internalType": "bytes32",
          "name": "",
          "type": "bytes32"
        }
      ],
      "stateMutability": "view",
      "type": "function"
    },
    {
      "inputs": [
        {
          "internalType": "bool",
          "name": "active",
          "type": "bool"
        },
        {
          "internalType": "uint256[]",
          "name": "itemIds",
          "type": "uint256[]"
        },
        {
          "internalType": "uint256[]",
          "name": "itemSeriesIds",
          "type": "uint256[]"
        }
      ],
      "name": "activateItemSeries",
      "outputs": [],
      "stateMutability": "nonpayable",
      "type": "function"
    },
    {
      "inputs": [],
      "name": "getInGameItems",
      "outputs": [
        {
          "internalType": "address",
          "name": "",
          "type": "address"
        }
      ],
      "stateMutability": "view",
      "type": "function"
    },
    {
      "inputs": [
        {
          "internalType": "uint256",
          "name": "itemId",
          "type": "uint256"
        },
        {
          "internalType": "uint256",
          "name": "itemSeriesId",
          "type": "uint256"
        }
      ],
      "name": "getItemSeriesPricing",
      "outputs": [
        {
          "components": [
            {
              "internalType": "uint256",
              "name": "ethPrice",
              "type": "uint256"
            },
            {
              "internalType": "uint256",
              "name": "erc20Price",
              "type": "uint256"
            },
            {
              "internalType": "address",
              "name": "erc20Address",
              "type": "address"
            },
            {
              "internalType": "bool",
              "name": "active",
              "type": "bool"
            }
          ],
          "internalType": "struct InGameItemMarketplace.ItemSeriesPricing",
          "name": "",
          "type": "tuple"
        }
      ],
      "stateMutability": "view",
      "type": "function"
    },
    {
      "inputs": [
        {
          "internalType": "uint256",
          "name": "itemId",
          "type": "uint256"
        }
      ],
      "name": "getItemSeriesPricingLength",
      "outputs": [
        {
          "internalType": "uint256",
          "name": "",
          "type": "uint256"
        }
      ],
      "stateMutability": "view",
      "type": "function"
    },
    {
      "inputs": [
        {
          "internalType": "bytes32",
          "name": "role",
          "type": "bytes32"
        }
      ],
      "name": "getRoleAdmin",
      "outputs": [
        {
          "internalType": "bytes32",
          "name": "",
          "type": "bytes32"
        }
      ],
      "stateMutability": "view",
      "type": "function"
    },
    {
      "inputs": [],
      "name": "getSigner",
      "outputs": [
        {
          "internalType": "address",
          "name": "",
          "type": "address"
        }
      ],
      "stateMutability": "view",
      "type": "function"
    },
    {
      "inputs": [],
      "name": "getTrustedForwarder",
      "outputs": [
        {
          "internalType": "address",
          "name": "forwarder",
          "type": "address"
        }
      ],
      "stateMutability": "view",
      "type": "function"
    },
    {
      "inputs": [
        {
          "internalType": "bytes32",
          "name": "role",
          "type": "bytes32"
        },
        {
          "internalType": "address",
          "name": "account",
          "type": "address"
        }
      ],
      "name": "grantRole",
      "outputs": [],
      "stateMutability": "nonpayable",
      "type": "function"
    },
    {
      "inputs": [
        {
          "internalType": "bytes32",
          "name": "role",
          "type": "bytes32"
        },
        {
          "internalType": "address",
          "name": "account",
          "type": "address"
        }
      ],
      "name": "hasRole",
      "outputs": [
        {
          "internalType": "bool",
          "name": "",
          "type": "bool"
        }
      ],
      "stateMutability": "view",
      "type": "function"
    },
    {
      "inputs": [
        {
          "internalType": "address",
          "name": "forwarder",
          "type": "address"
        }
      ],
      "name": "isTrustedForwarder",
      "outputs": [
        {
          "internalType": "bool",
          "name": "",
          "type": "bool"
        }
      ],
      "stateMutability": "view",
      "type": "function"
    },
    {
      "inputs": [
        {
          "internalType": "uint256",
          "name": "",
          "type": "uint256"
        },
        {
          "internalType": "uint256",
          "name": "",
          "type": "uint256"
        }
      ],
      "name": "itemSeriesPricingMap",
      "outputs": [
        {
          "internalType": "uint256",
          "name": "ethPrice",
          "type": "uint256"
        },
        {
          "internalType": "uint256",
          "name": "erc20Price",
          "type": "uint256"
        },
        {
          "internalType": "address",
          "name": "erc20Address",
          "type": "address"
        },
        {
          "internalType": "bool",
          "name": "active",
          "type": "bool"
        }
      ],
      "stateMutability": "view",
      "type": "function"
    },
    {
      "inputs": [],
      "name": "pause",
      "outputs": [],
      "stateMutability": "nonpayable",
      "type": "function"
    },
    {
      "inputs": [],
      "name": "paused",
      "outputs": [
        {
          "internalType": "bool",
          "name": "",
          "type": "bool"
        }
      ],
      "stateMutability": "view",
      "type": "function"
    },
    {
      "inputs": [
        {
          "internalType": "uint256[]",
          "name": "itemIds",
          "type": "uint256[]"
        },
        {
          "internalType": "uint256[]",
          "name": "itemSeriesIds",
          "type": "uint256[]"
        },
        {
          "internalType": "uint256[]",
          "name": "qtys",
          "type": "uint256[]"
        },
        {
          "internalType": "bytes32",
          "name": "nonce",
          "type": "bytes32"
        },
        {
          "internalType": "bytes32",
          "name": "hash",
          "type": "bytes32"
        },
        {
          "internalType": "bytes",
          "name": "signature",
          "type": "bytes"
        }
      ],
      "name": "purchase",
      "outputs": [],
      "stateMutability": "payable",
      "type": "function"
    },
    {
      "inputs": [
        {
          "internalType": "bytes32",
          "name": "role",
          "type": "bytes32"
        },
        {
          "internalType": "address",
          "name": "account",
          "type": "address"
        }
      ],
      "name": "renounceRole",
      "outputs": [],
      "stateMutability": "nonpayable",
      "type": "function"
    },
    {
      "inputs": [
        {
          "internalType": "bytes32",
          "name": "role",
          "type": "bytes32"
        },
        {
          "internalType": "address",
          "name": "account",
          "type": "address"
        }
      ],
      "name": "revokeRole",
      "outputs": [],
      "stateMutability": "nonpayable",
      "type": "function"
    },
    {
      "inputs": [
        {
          "internalType": "address",
          "name": "inGameItemsAddress",
          "type": "address"
        }
      ],
      "name": "setInGameItems",
      "outputs": [],
      "stateMutability": "nonpayable",
      "type": "function"
    },
    {
      "inputs": [
        {
          "internalType": "address",
          "name": "signer_",
          "type": "address"
        }
      ],
      "name": "setSigner",
      "outputs": [],
      "stateMutability": "nonpayable",
      "type": "function"
    },
    {
      "inputs": [
        {
          "internalType": "address",
          "name": "forwarder",
          "type": "address"
        }
      ],
      "name": "setTrustedForwarder",
      "outputs": [],
      "stateMutability": "nonpayable",
      "type": "function"
    },
    {
      "inputs": [
        {
          "components": [
            {
              "internalType": "uint256",
              "name": "itemId",
              "type": "uint256"
            },
            {
              "internalType": "uint256",
              "name": "itemSeriesId",
              "type": "uint256"
            },
            {
              "internalType": "uint256",
              "name": "ethPrice",
              "type": "uint256"
            },
            {
              "internalType": "uint256",
              "name": "erc20Price",
              "type": "uint256"
            },
            {
              "internalType": "address",
              "name": "erc20Address",
              "type": "address"
            },
            {
              "internalType": "bool",
              "name": "active",
              "type": "bool"
            }
          ],
          "internalType": "struct InGameItemMarketplace.ItemSeriesPricingIn[]",
          "name": "itemSeriesPricingIn",
          "type": "tuple[]"
        }
      ],
      "name": "setupItemSeriesPricing",
      "outputs": [],
      "stateMutability": "nonpayable",
      "type": "function"
    },
    {
      "inputs": [
        {
          "internalType": "bytes4",
          "name": "interfaceId",
          "type": "bytes4"
        }
      ],
      "name": "supportsInterface",
      "outputs": [
        {
          "internalType": "bool",
          "name": "",
          "type": "bool"
        }
      ],
      "stateMutability": "view",
      "type": "function"
    },
    {
      "inputs": [],
      "name": "unpause",
      "outputs": [],
      "stateMutability": "nonpayable",
      "type": "function"
    },
    {
      "inputs": [
        {
          "internalType": "address",
          "name": "tokenAddress",
          "type": "address"
        },
        {
          "internalType": "uint256",
          "name": "amount",
          "type": "uint256"
        }
      ],
      "name": "withdrawErc20",
      "outputs": [],
      "stateMutability": "nonpayable",
      "type": "function"
    },
    {
      "inputs": [
        {
          "internalType": "uint256",
          "name": "amount",
          "type": "uint256"
        }
      ],
      "name": "withdrawEth",
      "outputs": [],
      "stateMutability": "nonpayable",
      "type": "function"
    }
  ],
  "transactionHash": "0x32bb471d36f78b0275370b3c5574933bbe7c1de158b60ef092842091365641c9",
  "args": [
    "0xFe3AC01fA715A09721266B9db1F9f60d0BF1BDbB",
    "0xFe3AC01fA715A09721266B9db1F9f60d0BF1BDbB",
    "0xFe3AC01fA715A09721266B9db1F9f60d0BF1BDbB",
    "0xFe3AC01fA715A09721266B9db1F9f60d0BF1BDbB",
    "0xd8288Ce8348D53887Cb934240B93F5B41B08D4BE",
    "0x759d76795C60b28ddd920EEa61634ECcb7a772AE",
    "0x0000000000000000000000000000000000000000"
  ],
  "numDeployments": 1,
  "solcInputHash": "3a3067275c3bf21e2bf850f7bb023c30",
  "bytecode": "0x60806040523480156200001157600080fd5b506040516200486038038062004860833981810160405281019062000037919062000408565b6000600160006101000a81548160ff021916908315150217905550620000676000801b886200019d60201b60201c565b620000997f65d7a28e3265b37a6474929f336521b332c1681b933f6cb9f3376673440d862a876200019d60201b60201c565b620000cb7fd33ef51e3959720bc2ec8f81d4fdc2ae7bbab96194e0ea53925409204d8cc6d3866200019d60201b60201c565b620000fd7fc8a41221bcd7fcf2c225f5a9265e1d4d39949d89197159d59e5f4b87b62c419e856200019d60201b60201c565b81600360006101000a81548173ffffffffffffffffffffffffffffffffffffffff021916908373ffffffffffffffffffffffffffffffffffffffff16021790555082600560006101000a81548173ffffffffffffffffffffffffffffffffffffffff021916908373ffffffffffffffffffffffffffffffffffffffff16021790555062000190816200028e60201b60201c565b5050505050505062000503565b620001af8282620002d160201b60201c565b6200028a57600160008084815260200190815260200160002060000160008373ffffffffffffffffffffffffffffffffffffffff1673ffffffffffffffffffffffffffffffffffffffff16815260200190815260200160002060006101000a81548160ff0219169083151502179055506200022f6200033b60201b60201c565b73ffffffffffffffffffffffffffffffffffffffff168173ffffffffffffffffffffffffffffffffffffffff16837f2f8788117e7eff1d82e926ec794901d17c78024a50270940304540a733656f0d60405160405180910390a45b5050565b806001806101000a81548173ffffffffffffffffffffffffffffffffffffffff021916908373ffffffffffffffffffffffffffffffffffffffff16021790555050565b600080600084815260200190815260200160002060000160008373ffffffffffffffffffffffffffffffffffffffff1673ffffffffffffffffffffffffffffffffffffffff16815260200190815260200160002060009054906101000a900460ff16905092915050565b6000620003526200035760201b62001bcc1760201c565b905090565b600060146000369050101580156200037c57506200037b336200039960201b60201c565b5b156200039257601436033560601c905062000396565b3390505b90565b600060018054906101000a900473ffffffffffffffffffffffffffffffffffffffff1673ffffffffffffffffffffffffffffffffffffffff168273ffffffffffffffffffffffffffffffffffffffff16149050919050565b6000815190506200040281620004e9565b92915050565b600080600080600080600060e0888a0312156200042457600080fd5b6000620004348a828b01620003f1565b9750506020620004478a828b01620003f1565b96505060406200045a8a828b01620003f1565b95505060606200046d8a828b01620003f1565b9450506080620004808a828b01620003f1565b93505060a0620004938a828b01620003f1565b92505060c0620004a68a828b01620003f1565b91505092959891949750929550565b6000620004c282620004c9565b9050919050565b600073ffffffffffffffffffffffffffffffffffffffff82169050919050565b620004f481620004b5565b81146200050057600080fd5b50565b61434d80620005136000396000f3fe6080604052600436106101b75760003560e01c80638456cb59116100ec578063ced3a4031161008a578063da74222811610064578063da742228146105ea578063e3946de614610613578063e63ab1e91461063e578063e744502314610669576101b7565b8063ced3a40314610556578063d547741f14610581578063d6b842c1146105aa576101b7565b8063bd1f4b52116100c6578063bd1f4b52146104ae578063c311d049146104d7578063cb7b9c2314610500578063ce1b815f1461052b576101b7565b80638456cb591461042f57806391d1485414610446578063a217fddf14610483576101b7565b80633f4ba83a116101595780635c975abb116101335780635c975abb146103875780636017a20b146103b25780636c19e783146103db5780637ac3c02f14610404576101b7565b80633f4ba83a1461031757806343d496c31461032e578063572b6c051461034a576101b7565b8063248a9ca311610195578063248a9ca31461024b5780632f2ff15d1461028857806336568abe146102b1578063385596ec146102da576101b7565b806301ffc9a7146101bc5780631274d1f5146101f95780631e185ced14610222575b600080fd5b3480156101c857600080fd5b506101e360048036038101906101de9190612e45565b6106a6565b6040516101f091906135a7565b60405180910390f35b34801561020557600080fd5b50610220600480360381019061021b9190612b8d565b610720565b005b34801561022e57600080fd5b5061024960048036038101906102449190612bf2565b610772565b005b34801561025757600080fd5b50610272600480360381019061026d9190612de0565b610b67565b60405161027f91906135c2565b60405180910390f35b34801561029457600080fd5b506102af60048036038101906102aa9190612e09565b610b86565b005b3480156102bd57600080fd5b506102d860048036038101906102d39190612e09565b610ba7565b005b3480156102e657600080fd5b5061030160048036038101906102fc9190612e97565b610c2a565b60405161030e91906138bf565b60405180910390f35b34801561032357600080fd5b5061032c610c4a565b005b61034860048036038101906103439190612c37565b610c7f565b005b34801561035657600080fd5b50610371600480360381019061036c9190612b8d565b6113b8565b60405161037e91906135a7565b60405180910390f35b34801561039357600080fd5b5061039c611410565b6040516103a991906135a7565b60405180910390f35b3480156103be57600080fd5b506103d960048036038101906103d49190612d57565b611427565b005b3480156103e757600080fd5b5061040260048036038101906103fd9190612b8d565b6116a6565b005b34801561041057600080fd5b506104196116f8565b60405161042691906134cc565b60405180910390f35b34801561043b57600080fd5b50610444611722565b005b34801561045257600080fd5b5061046d60048036038101906104689190612e09565b611757565b60405161047a91906135a7565b60405180910390f35b34801561048f57600080fd5b506104986117c1565b6040516104a591906135c2565b60405180910390f35b3480156104ba57600080fd5b506104d560048036038101906104d09190612bb6565b6117c8565b005b3480156104e357600080fd5b506104fe60048036038101906104f99190612e97565b61188c565b005b34801561050c57600080fd5b50610515611908565b60405161052291906135c2565b60405180910390f35b34801561053757600080fd5b5061054061192c565b60405161054d91906134cc565b60405180910390f35b34801561056257600080fd5b5061056b611954565b60405161057891906135c2565b60405180910390f35b34801561058d57600080fd5b506105a860048036038101906105a39190612e09565b611978565b005b3480156105b657600080fd5b506105d160048036038101906105cc9190612ec0565b611999565b6040516105e194939291906138da565b60405180910390f35b3480156105f657600080fd5b50610611600480360381019061060c9190612b8d565b611a13565b005b34801561061f57600080fd5b50610628611a2d565b60405161063591906134cc565b60405180910390f35b34801561064a57600080fd5b50610653611a57565b60405161066091906135c2565b60405180910390f35b34801561067557600080fd5b50610690600480360381019061068b9190612ec0565b611a7b565b60405161069d91906138a4565b60405180910390f35b60007f7965db0b000000000000000000000000000000000000000000000000000000007bffffffffffffffffffffffffffffffffffffffffffffffffffffffff1916827bffffffffffffffffffffffffffffffffffffffffffffffffffffffff19161480610719575061071882611c03565b5b9050919050565b6000801b61072d81611c6d565b81600360006101000a81548173ffffffffffffffffffffffffffffffffffffffff021916908373ffffffffffffffffffffffffffffffffffffffff1602179055505050565b7fd33ef51e3959720bc2ec8f81d4fdc2ae7bbab96194e0ea53925409204d8cc6d361079c81611c6d565b60005b83839050811015610b615760008484838181106107e5577f4e487b7100000000000000000000000000000000000000000000000000000000600052603260045260246000fd5b905060c002018036038101906107fb9190612e6e565b9050600060026000836000015181526020019081526020016000209050816020015181805490501015610863576040517f08c379a000000000000000000000000000000000000000000000000000000000815260040161085a90613764565b60405180910390fd5b6000826040015111806108b75750600082606001511180156108b65750600073ffffffffffffffffffffffffffffffffffffffff16826080015173ffffffffffffffffffffffffffffffffffffffff1614155b5b6108f6576040517f08c379a00000000000000000000000000000000000000000000000000000000081526004016108ed90613824565b60405180910390fd5b6108fe612937565b8260a0015181606001901515908115158152505082604001518160000181815250508260800151816040019073ffffffffffffffffffffffffffffffffffffffff16908173ffffffffffffffffffffffffffffffffffffffff16815250508260600151816020018181525050818054905083602001511015610a495780828460200151815481106109b8577f4e487b7100000000000000000000000000000000000000000000000000000000600052603260045260246000fd5b9060005260206000209060030201600082015181600001556020820151816001015560408201518160020160006101000a81548173ffffffffffffffffffffffffffffffffffffffff021916908373ffffffffffffffffffffffffffffffffffffffff16021790555060608201518160020160146101000a81548160ff021916908315150217905550905050610af2565b81819080600181540180825580915050600190039060005260206000209060030201600090919091909150600082015181600001556020820151816001015560408201518160020160006101000a81548173ffffffffffffffffffffffffffffffffffffffff021916908373ffffffffffffffffffffffffffffffffffffffff16021790555060608201518160020160146101000a81548160ff02191690831515021790555050505b7fc6750b04ac3702e63a57e5f7ff9732bfc06ac83f79732f8bbcddef2525623659836000015184602001518560400151866060015187608001518860a00151604051610b439695949392919061391f565b60405180910390a15050508080610b5990613bf1565b91505061079f565b50505050565b6000806000838152602001908152602001600020600101549050919050565b610b8f82610b67565b610b9881611c6d565b610ba28383611c81565b505050565b610baf611d61565b73ffffffffffffffffffffffffffffffffffffffff168173ffffffffffffffffffffffffffffffffffffffff1614610c1c576040517f08c379a0000000000000000000000000000000000000000000000000000000008152600401610c1390613884565b60405180910390fd5b610c268282611d70565b5050565b600060026000838152602001908152602001600020805490509050919050565b7f65d7a28e3265b37a6474929f336521b332c1681b933f6cb9f3376673440d862a610c7481611c6d565b610c7c611e51565b50565b610c87611eb4565b610c918282611efe565b610cd0576040517f08c379a0000000000000000000000000000000000000000000000000000000008152600401610cc790613684565b60405180910390fd5b6004600084815260200190815260200160002060009054906101000a900460ff1615610d31576040517f08c379a0000000000000000000000000000000000000000000000000000000008152600401610d2890613744565b60405180910390fd5b81610d49610d3d611d61565b8b8b8b8b8b8b8b611f6b565b14610d89576040517f08c379a0000000000000000000000000000000000000000000000000000000008152600401610d80906137e4565b60405180910390fd5b8686905089899050148015610da357508484905089899050145b610de2576040517f08c379a0000000000000000000000000000000000000000000000000000000008152600401610dd9906136e4565b60405180910390fd5b60008989905011610e28576040517f08c379a0000000000000000000000000000000000000000000000000000000008152600401610e1f90613864565b60405180910390fd5b6000806000805b8c8c90508110156111c1576000898983818110610e75577f4e487b7100000000000000000000000000000000000000000000000000000000600052603260045260246000fd5b9050602002013511610ebc576040517f08c379a0000000000000000000000000000000000000000000000000000000008152600401610eb3906137a4565b60405180910390fd5b6000610f468e8e84818110610efa577f4e487b7100000000000000000000000000000000000000000000000000000000600052603260045260246000fd5b905060200201358d8d85818110610f3a577f4e487b7100000000000000000000000000000000000000000000000000000000600052603260045260246000fd5b90506020020135611a7b565b90508060600151610f8c576040517f08c379a0000000000000000000000000000000000000000000000000000000008152600401610f83906137c4565b60405180910390fd5b600081600001511115610ffa57898983818110610fd2577f4e487b7100000000000000000000000000000000000000000000000000000000600052603260045260246000fd5b905060200201358160000151610fe89190613a6f565b85610ff39190613a19565b94506111ad565b806040015173ffffffffffffffffffffffffffffffffffffffff168373ffffffffffffffffffffffffffffffffffffffff16146111175760008411801561106e5750600073ffffffffffffffffffffffffffffffffffffffff168373ffffffffffffffffffffffffffffffffffffffff1614155b1561110f578273ffffffffffffffffffffffffffffffffffffffff166323b872dd611097611d61565b30876040518463ffffffff1660e01b81526004016110b7939291906134e7565b602060405180830381600087803b1580156110d157600080fd5b505af11580156110e5573d6000803e3d6000fd5b505050506040513d601f19601f820116820180604052508101906111099190612d2e565b50600093505b806040015192505b806040015173ffffffffffffffffffffffffffffffffffffffff168373ffffffffffffffffffffffffffffffffffffffff1614156111ac57898983818110611188577f4e487b7100000000000000000000000000000000000000000000000000000000600052603260045260246000fd5b90506020020135816020015161119e9190613a6f565b846111a99190613a19565b93505b5b5080806111b990613bf1565b915050610e2f565b50348314611204576040517f08c379a00000000000000000000000000000000000000000000000000000000081526004016111fb90613804565b60405180910390fd5b60016004600088815260200190815260200160002060006101000a81548160ff02191690831515021790555060008211801561126d5750600073ffffffffffffffffffffffffffffffffffffffff168173ffffffffffffffffffffffffffffffffffffffff1614155b1561130a578073ffffffffffffffffffffffffffffffffffffffff166323b872dd611296611d61565b30856040518463ffffffff1660e01b81526004016112b6939291906134e7565b602060405180830381600087803b1580156112d057600080fd5b505af11580156112e4573d6000803e3d6000fd5b505050506040513d601f19601f820116820180604052508101906113089190612d2e565b505b600360009054906101000a900473ffffffffffffffffffffffffffffffffffffffff1673ffffffffffffffffffffffffffffffffffffffff16631d05159d611350611d61565b8e8e8e8e8e8e6040518863ffffffff1660e01b8152600401611378979695949392919061351e565b600060405180830381600087803b15801561139257600080fd5b505af11580156113a6573d6000803e3d6000fd5b50505050505050505050505050505050565b600060018054906101000a900473ffffffffffffffffffffffffffffffffffffffff1673ffffffffffffffffffffffffffffffffffffffff168273ffffffffffffffffffffffffffffffffffffffff16149050919050565b6000600160009054906101000a900460ff16905090565b7fd33ef51e3959720bc2ec8f81d4fdc2ae7bbab96194e0ea53925409204d8cc6d361145181611c6d565b828290508585905014611499576040517f08c379a0000000000000000000000000000000000000000000000000000000008152600401611490906136e4565b60405180910390fd5b60005b8585905081101561169d576000600260008888858181106114e6577f4e487b7100000000000000000000000000000000000000000000000000000000600052603260045260246000fd5b905060200201358152602001908152602001600020858584818110611534577f4e487b7100000000000000000000000000000000000000000000000000000000600052603260045260246000fd5b9050602002013581548110611572577f4e487b7100000000000000000000000000000000000000000000000000000000600052603260045260246000fd5b90600052602060002090600302019050878160020160146101000a81548160ff0219169083151502179055507fc6750b04ac3702e63a57e5f7ff9732bfc06ac83f79732f8bbcddef25256236598787848181106115f8577f4e487b7100000000000000000000000000000000000000000000000000000000600052603260045260246000fd5b90506020020135868685818110611638577f4e487b7100000000000000000000000000000000000000000000000000000000600052603260045260246000fd5b90506020020135836000015484600101548560020160009054906101000a900473ffffffffffffffffffffffffffffffffffffffff168d6040516116819695949392919061391f565b60405180910390a150808061169590613bf1565b91505061149c565b50505050505050565b6000801b6116b381611c6d565b81600560006101000a81548173ffffffffffffffffffffffffffffffffffffffff021916908373ffffffffffffffffffffffffffffffffffffffff1602179055505050565b6000600560009054906101000a900473ffffffffffffffffffffffffffffffffffffffff16905090565b7f65d7a28e3265b37a6474929f336521b332c1681b933f6cb9f3376673440d862a61174c81611c6d565b611754611fdb565b50565b600080600084815260200190815260200160002060000160008373ffffffffffffffffffffffffffffffffffffffff1673ffffffffffffffffffffffffffffffffffffffff16815260200190815260200160002060009054906101000a900460ff16905092915050565b6000801b81565b7fc8a41221bcd7fcf2c225f5a9265e1d4d39949d89197159d59e5f4b87b62c419e6117f281611c6d565b8273ffffffffffffffffffffffffffffffffffffffff1663a9059cbb611816611d61565b846040518363ffffffff1660e01b815260040161183492919061357e565b602060405180830381600087803b15801561184e57600080fd5b505af1158015611862573d6000803e3d6000fd5b505050506040513d601f19601f820116820180604052508101906118869190612d2e565b50505050565b7fc8a41221bcd7fcf2c225f5a9265e1d4d39949d89197159d59e5f4b87b62c419e6118b681611c6d565b6118be611d61565b73ffffffffffffffffffffffffffffffffffffffff166108fc839081150290604051600060405180830381858888f19350505050158015611903573d6000803e3d6000fd5b505050565b7fd33ef51e3959720bc2ec8f81d4fdc2ae7bbab96194e0ea53925409204d8cc6d381565b600060018054906101000a900473ffffffffffffffffffffffffffffffffffffffff16905090565b7fc8a41221bcd7fcf2c225f5a9265e1d4d39949d89197159d59e5f4b87b62c419e81565b61198182610b67565b61198a81611c6d565b6119948383611d70565b505050565b600260205281600052604060002081815481106119b557600080fd5b9060005260206000209060030201600091509150508060000154908060010154908060020160009054906101000a900473ffffffffffffffffffffffffffffffffffffffff16908060020160149054906101000a900460ff16905084565b6000801b611a2081611c6d565b611a298261203d565b5050565b6000600360009054906101000a900473ffffffffffffffffffffffffffffffffffffffff16905090565b7f65d7a28e3265b37a6474929f336521b332c1681b933f6cb9f3376673440d862a81565b611a83612937565b81600260008581526020019081526020016000208054905011611adb576040517f08c379a0000000000000000000000000000000000000000000000000000000008152600401611ad290613844565b60405180910390fd5b600260008481526020019081526020016000208281548110611b26577f4e487b7100000000000000000000000000000000000000000000000000000000600052603260045260246000fd5b906000526020600020906003020160405180608001604052908160008201548152602001600182015481526020016002820160009054906101000a900473ffffffffffffffffffffffffffffffffffffffff1673ffffffffffffffffffffffffffffffffffffffff1673ffffffffffffffffffffffffffffffffffffffff1681526020016002820160149054906101000a900460ff161515151581525050905092915050565b60006014600036905010158015611be85750611be7336113b8565b5b15611bfc57601436033560601c9050611c00565b3390505b90565b60007f01ffc9a7000000000000000000000000000000000000000000000000000000007bffffffffffffffffffffffffffffffffffffffffffffffffffffffff1916827bffffffffffffffffffffffffffffffffffffffffffffffffffffffff1916149050919050565b611c7e81611c79611d61565b612080565b50565b611c8b8282611757565b611d5d57600160008084815260200190815260200160002060000160008373ffffffffffffffffffffffffffffffffffffffff1673ffffffffffffffffffffffffffffffffffffffff16815260200190815260200160002060006101000a81548160ff021916908315150217905550611d02611d61565b73ffffffffffffffffffffffffffffffffffffffff168173ffffffffffffffffffffffffffffffffffffffff16837f2f8788117e7eff1d82e926ec794901d17c78024a50270940304540a733656f0d60405160405180910390a45b5050565b6000611d6b611bcc565b905090565b611d7a8282611757565b15611e4d57600080600084815260200190815260200160002060000160008373ffffffffffffffffffffffffffffffffffffffff1673ffffffffffffffffffffffffffffffffffffffff16815260200190815260200160002060006101000a81548160ff021916908315150217905550611df2611d61565b73ffffffffffffffffffffffffffffffffffffffff168173ffffffffffffffffffffffffffffffffffffffff16837ff6391f5c32d9c69d2a47ea670b442974b53935d1edc7fd64eb21e047a839171b60405160405180910390a45b5050565b611e5961211d565b6000600160006101000a81548160ff0219169083151502179055507f5db9ee0a495bf2e6ff9c91a7834c1ba4fdd244a5e8aa4e537bd38aeae4b073aa611e9d611d61565b604051611eaa91906134cc565b60405180910390a1565b611ebc611410565b15611efc576040517f08c379a0000000000000000000000000000000000000000000000000000000008152600401611ef390613724565b60405180910390fd5b565b6000611f13828461216690919063ffffffff16565b73ffffffffffffffffffffffffffffffffffffffff16600560009054906101000a900473ffffffffffffffffffffffffffffffffffffffff1673ffffffffffffffffffffffffffffffffffffffff1614905092915050565b6000808989898989898989604051602001611f8d989796959493929190613413565b60405160208183030381529060405280519060200120604051602001611fb3919061346c565b6040516020818303038152906040528051906020012090508091505098975050505050505050565b611fe3611eb4565b60018060006101000a81548160ff0219169083151502179055507f62e78cea01bee320cd4e420270b5ea74000d11b0c9f74754ebdbfc544b05a258612026611d61565b60405161203391906134cc565b60405180910390a1565b806001806101000a81548173ffffffffffffffffffffffffffffffffffffffff021916908373ffffffffffffffffffffffffffffffffffffffff16021790555050565b61208a8282611757565b612119576120af8173ffffffffffffffffffffffffffffffffffffffff16601461218d565b6120bd8360001c602061218d565b6040516020016120ce929190613492565b6040516020818303038152906040526040517f08c379a00000000000000000000000000000000000000000000000000000000081526004016121109190613622565b60405180910390fd5b5050565b612125611410565b612164576040517f08c379a000000000000000000000000000000000000000000000000000000000815260040161215b906136a4565b60405180910390fd5b565b60008060006121758585612487565b91509150612182816124d9565b819250505092915050565b6060600060028360026121a09190613a6f565b6121aa9190613a19565b67ffffffffffffffff8111156121e9577f4e487b7100000000000000000000000000000000000000000000000000000000600052604160045260246000fd5b6040519080825280601f01601f19166020018201604052801561221b5781602001600182028036833780820191505090505b5090507f300000000000000000000000000000000000000000000000000000000000000081600081518110612279577f4e487b7100000000000000000000000000000000000000000000000000000000600052603260045260246000fd5b60200101907effffffffffffffffffffffffffffffffffffffffffffffffffffffffffffff1916908160001a9053507f780000000000000000000000000000000000000000000000000000000000000081600181518110612303577f4e487b7100000000000000000000000000000000000000000000000000000000600052603260045260246000fd5b60200101907effffffffffffffffffffffffffffffffffffffffffffffffffffffffffffff1916908160001a905350600060018460026123439190613a6f565b61234d9190613a19565b90505b6001811115612439577f3031323334353637383961626364656600000000000000000000000000000000600f8616601081106123b5577f4e487b7100000000000000000000000000000000000000000000000000000000600052603260045260246000fd5b1a60f81b8282815181106123f2577f4e487b7100000000000000000000000000000000000000000000000000000000600052603260045260246000fd5b60200101907effffffffffffffffffffffffffffffffffffffffffffffffffffffffffffff1916908160001a905350600485901c94508061243290613b96565b9050612350565b506000841461247d576040517f08c379a000000000000000000000000000000000000000000000000000000000815260040161247490613664565b60405180910390fd5b8091505092915050565b6000806041835114156124c95760008060006020860151925060408601519150606086015160001a90506124bd8782858561282a565b945094505050506124d2565b60006002915091505b9250929050565b60006004811115612513577f4e487b7100000000000000000000000000000000000000000000000000000000600052602160045260246000fd5b81600481111561254c577f4e487b7100000000000000000000000000000000000000000000000000000000600052602160045260246000fd5b141561255757612827565b60016004811115612591577f4e487b7100000000000000000000000000000000000000000000000000000000600052602160045260246000fd5b8160048111156125ca577f4e487b7100000000000000000000000000000000000000000000000000000000600052602160045260246000fd5b141561260b576040517f08c379a000000000000000000000000000000000000000000000000000000000815260040161260290613644565b60405180910390fd5b60026004811115612645577f4e487b7100000000000000000000000000000000000000000000000000000000600052602160045260246000fd5b81600481111561267e577f4e487b7100000000000000000000000000000000000000000000000000000000600052602160045260246000fd5b14156126bf576040517f08c379a00000000000000000000000000000000000000000000000000000000081526004016126b6906136c4565b60405180910390fd5b600360048111156126f9577f4e487b7100000000000000000000000000000000000000000000000000000000600052602160045260246000fd5b816004811115612732577f4e487b7100000000000000000000000000000000000000000000000000000000600052602160045260246000fd5b1415612773576040517f08c379a000000000000000000000000000000000000000000000000000000000815260040161276a90613704565b60405180910390fd5b6004808111156127ac577f4e487b7100000000000000000000000000000000000000000000000000000000600052602160045260246000fd5b8160048111156127e5577f4e487b7100000000000000000000000000000000000000000000000000000000600052602160045260246000fd5b1415612826576040517f08c379a000000000000000000000000000000000000000000000000000000000815260040161281d90613784565b60405180910390fd5b5b50565b6000807f7fffffffffffffffffffffffffffffff5d576e7357a4501ddfe92f46681b20a08360001c111561286557600060039150915061292e565b601b8560ff161415801561287d5750601c8560ff1614155b1561288f57600060049150915061292e565b6000600187878787604051600081526020016040526040516128b494939291906135dd565b6020604051602081039080840390855afa1580156128d6573d6000803e3d6000fd5b505050602060405103519050600073ffffffffffffffffffffffffffffffffffffffff168173ffffffffffffffffffffffffffffffffffffffff1614156129255760006001925092505061292e565b80600092509250505b94509492505050565b60405180608001604052806000815260200160008152602001600073ffffffffffffffffffffffffffffffffffffffff1681526020016000151581525090565b600061298a612985846139a5565b613980565b9050828152602081018484840111156129a257600080fd5b6129ad848285613b54565b509392505050565b6000813590506129c4816142a4565b92915050565b60008083601f8401126129dc57600080fd5b8235905067ffffffffffffffff8111156129f557600080fd5b6020830191508360c0820283011115612a0d57600080fd5b9250929050565b60008083601f840112612a2657600080fd5b8235905067ffffffffffffffff811115612a3f57600080fd5b602083019150836020820283011115612a5757600080fd5b9250929050565b600081359050612a6d816142bb565b92915050565b600081519050612a82816142bb565b92915050565b600081359050612a97816142d2565b92915050565b600081359050612aac816142e9565b92915050565b600082601f830112612ac357600080fd5b8135612ad3848260208601612977565b91505092915050565b600060c08284031215612aee57600080fd5b612af860c0613980565b90506000612b0884828501612b78565b6000830152506020612b1c84828501612b78565b6020830152506040612b3084828501612b78565b6040830152506060612b4484828501612b78565b6060830152506080612b58848285016129b5565b60808301525060a0612b6c84828501612a5e565b60a08301525092915050565b600081359050612b8781614300565b92915050565b600060208284031215612b9f57600080fd5b6000612bad848285016129b5565b91505092915050565b60008060408385031215612bc957600080fd5b6000612bd7858286016129b5565b9250506020612be885828601612b78565b9150509250929050565b60008060208385031215612c0557600080fd5b600083013567ffffffffffffffff811115612c1f57600080fd5b612c2b858286016129ca565b92509250509250929050565b600080600080600080600080600060c08a8c031215612c5557600080fd5b60008a013567ffffffffffffffff811115612c6f57600080fd5b612c7b8c828d01612a14565b995099505060208a013567ffffffffffffffff811115612c9a57600080fd5b612ca68c828d01612a14565b975097505060408a013567ffffffffffffffff811115612cc557600080fd5b612cd18c828d01612a14565b95509550506060612ce48c828d01612a88565b9350506080612cf58c828d01612a88565b92505060a08a013567ffffffffffffffff811115612d1257600080fd5b612d1e8c828d01612ab2565b9150509295985092959850929598565b600060208284031215612d4057600080fd5b6000612d4e84828501612a73565b91505092915050565b600080600080600060608688031215612d6f57600080fd5b6000612d7d88828901612a5e565b955050602086013567ffffffffffffffff811115612d9a57600080fd5b612da688828901612a14565b9450945050604086013567ffffffffffffffff811115612dc557600080fd5b612dd188828901612a14565b92509250509295509295909350565b600060208284031215612df257600080fd5b6000612e0084828501612a88565b91505092915050565b60008060408385031215612e1c57600080fd5b6000612e2a85828601612a88565b9250506020612e3b858286016129b5565b9150509250929050565b600060208284031215612e5757600080fd5b6000612e6584828501612a9d565b91505092915050565b600060c08284031215612e8057600080fd5b6000612e8e84828501612adc565b91505092915050565b600060208284031215612ea957600080fd5b6000612eb784828501612b78565b91505092915050565b60008060408385031215612ed357600080fd5b6000612ee185828601612b78565b9250506020612ef285828601612b78565b9150509250929050565b612f0581613ac9565b82525050565b612f1481613ac9565b82525050565b612f2b612f2682613ac9565b613c3a565b82525050565b6000612f3d83856139e1565b93507f07ffffffffffffffffffffffffffffffffffffffffffffffffffffffffffffff831115612f6c57600080fd5b602083029250612f7d838584613b54565b82840190509392505050565b6000612f9583856139f2565b93507f07ffffffffffffffffffffffffffffffffffffffffffffffffffffffffffffff831115612fc457600080fd5b602083029250612fd5838584613b54565b82840190509392505050565b612fea81613adb565b82525050565b612ff981613adb565b82525050565b61300881613ae7565b82525050565b61301f61301a82613ae7565b613c4c565b82525050565b6000613030826139d6565b61303a81856139fd565b935061304a818560208601613b63565b61305381613cc6565b840191505092915050565b6000613069826139d6565b6130738185613a0e565b9350613083818560208601613b63565b80840191505092915050565b600061309c6018836139fd565b91506130a782613ce4565b602082019050919050565b60006130bf6020836139fd565b91506130ca82613d0d565b602082019050919050565b60006130e26037836139fd565b91506130ed82613d36565b604082019050919050565b60006131056014836139fd565b915061311082613d85565b602082019050919050565b6000613128601f836139fd565b915061313382613dae565b602082019050919050565b600061314b601c83613a0e565b915061315682613dd7565b601c82019050919050565b600061316e602c836139fd565b915061317982613e00565b604082019050919050565b60006131916022836139fd565b915061319c82613e4f565b604082019050919050565b60006131b46010836139fd565b91506131bf82613e9e565b602082019050919050565b60006131d7602d836139fd565b91506131e282613ec7565b604082019050919050565b60006131fa602e836139fd565b915061320582613f16565b604082019050919050565b600061321d6022836139fd565b915061322882613f65565b604082019050919050565b6000613240602f836139fd565b915061324b82613fb4565b604082019050919050565b60006132636030836139fd565b915061326e82614003565b604082019050919050565b60006132866024836139fd565b915061329182614052565b604082019050919050565b60006132a96029836139fd565b91506132b4826140a1565b604082019050919050565b60006132cc6046836139fd565b91506132d7826140f0565b606082019050919050565b60006132ef601783613a0e565b91506132fa82614165565b601782019050919050565b60006133126033836139fd565b915061331d8261418e565b604082019050919050565b6000613335602b836139fd565b9150613340826141dd565b604082019050919050565b6000613358601183613a0e565b91506133638261422c565b601182019050919050565b600061337b602f836139fd565b915061338682614255565b604082019050919050565b6080820160008201516133a760008501826133e6565b5060208201516133ba60208501826133e6565b5060408201516133cd6040850182612efc565b5060608201516133e06060850182612fe1565b50505050565b6133ef81613b3d565b82525050565b6133fe81613b3d565b82525050565b61340d81613b47565b82525050565b600061341f828b612f1a565b60148201915061343082898b612f89565b915061343d828789612f89565b915061344a828587612f89565b9150613456828461300e565b6020820191508190509998505050505050505050565b60006134778261313e565b9150613483828461300e565b60208201915081905092915050565b600061349d826132e2565b91506134a9828561305e565b91506134b48261334b565b91506134c0828461305e565b91508190509392505050565b60006020820190506134e16000830184612f0b565b92915050565b60006060820190506134fc6000830186612f0b565b6135096020830185612f0b565b61351660408301846133f5565b949350505050565b6000608082019050613533600083018a612f0b565b818103602083015261354681888a612f31565b9050818103604083015261355b818688612f31565b90508181036060830152613570818486612f31565b905098975050505050505050565b60006040820190506135936000830185612f0b565b6135a060208301846133f5565b9392505050565b60006020820190506135bc6000830184612ff0565b92915050565b60006020820190506135d76000830184612fff565b92915050565b60006080820190506135f26000830187612fff565b6135ff6020830186613404565b61360c6040830185612fff565b6136196060830184612fff565b95945050505050565b6000602082019050818103600083015261363c8184613025565b905092915050565b6000602082019050818103600083015261365d8161308f565b9050919050565b6000602082019050818103600083015261367d816130b2565b9050919050565b6000602082019050818103600083015261369d816130d5565b9050919050565b600060208201905081810360008301526136bd816130f8565b9050919050565b600060208201905081810360008301526136dd8161311b565b9050919050565b600060208201905081810360008301526136fd81613161565b9050919050565b6000602082019050818103600083015261371d81613184565b9050919050565b6000602082019050818103600083015261373d816131a7565b9050919050565b6000602082019050818103600083015261375d816131ca565b9050919050565b6000602082019050818103600083015261377d816131ed565b9050919050565b6000602082019050818103600083015261379d81613210565b9050919050565b600060208201905081810360008301526137bd81613233565b9050919050565b600060208201905081810360008301526137dd81613256565b9050919050565b600060208201905081810360008301526137fd81613279565b9050919050565b6000602082019050818103600083015261381d8161329c565b9050919050565b6000602082019050818103600083015261383d816132bf565b9050919050565b6000602082019050818103600083015261385d81613305565b9050919050565b6000602082019050818103600083015261387d81613328565b9050919050565b6000602082019050818103600083015261389d8161336e565b9050919050565b60006080820190506138b96000830184613391565b92915050565b60006020820190506138d460008301846133f5565b92915050565b60006080820190506138ef60008301876133f5565b6138fc60208301866133f5565b6139096040830185612f0b565b6139166060830184612ff0565b95945050505050565b600060c08201905061393460008301896133f5565b61394160208301886133f5565b61394e60408301876133f5565b61395b60608301866133f5565b6139686080830185612f0b565b61397560a0830184612ff0565b979650505050505050565b600061398a61399b565b90506139968282613bc0565b919050565b6000604051905090565b600067ffffffffffffffff8211156139c0576139bf613c97565b5b6139c982613cc6565b9050602081019050919050565b600081519050919050565b600082825260208201905092915050565b600081905092915050565b600082825260208201905092915050565b600081905092915050565b6000613a2482613b3d565b9150613a2f83613b3d565b9250827fffffffffffffffffffffffffffffffffffffffffffffffffffffffffffffffff03821115613a6457613a63613c68565b5b828201905092915050565b6000613a7a82613b3d565b9150613a8583613b3d565b9250817fffffffffffffffffffffffffffffffffffffffffffffffffffffffffffffffff0483118215151615613abe57613abd613c68565b5b828202905092915050565b6000613ad482613b1d565b9050919050565b60008115159050919050565b6000819050919050565b60007fffffffff0000000000000000000000000000000000000000000000000000000082169050919050565b600073ffffffffffffffffffffffffffffffffffffffff82169050919050565b6000819050919050565b600060ff82169050919050565b82818337600083830152505050565b60005b83811015613b81578082015181840152602081019050613b66565b83811115613b90576000848401525b50505050565b6000613ba182613b3d565b91506000821415613bb557613bb4613c68565b5b600182039050919050565b613bc982613cc6565b810181811067ffffffffffffffff82111715613be857613be7613c97565b5b80604052505050565b6000613bfc82613b3d565b91507fffffffffffffffffffffffffffffffffffffffffffffffffffffffffffffffff821415613c2f57613c2e613c68565b5b600182019050919050565b6000613c4582613c56565b9050919050565b6000819050919050565b6000613c6182613cd7565b9050919050565b7f4e487b7100000000000000000000000000000000000000000000000000000000600052601160045260246000fd5b7f4e487b7100000000000000000000000000000000000000000000000000000000600052604160045260246000fd5b6000601f19601f8301169050919050565b60008160601b9050919050565b7f45434453413a20696e76616c6964207369676e61747572650000000000000000600082015250565b7f537472696e67733a20686578206c656e67746820696e73756666696369656e74600082015250565b7f496e47616d654974656d4d61726b6574706c6163653a204d657373616765207760008201527f6173206e6f74207369676e6564206279207369676e6572000000000000000000602082015250565b7f5061757361626c653a206e6f7420706175736564000000000000000000000000600082015250565b7f45434453413a20696e76616c6964207369676e6174757265206c656e67746800600082015250565b7f19457468657265756d205369676e6564204d6573736167653a0a333200000000600082015250565b7f496e47616d654974656d4d61726b6574706c6163653a204172726179206c656e60008201527f677468206d69736d617463680000000000000000000000000000000000000000602082015250565b7f45434453413a20696e76616c6964207369676e6174757265202773272076616c60008201527f7565000000000000000000000000000000000000000000000000000000000000602082015250565b7f5061757361626c653a2070617573656400000000000000000000000000000000600082015250565b7f496e47616d654974656d4d61726b6574706c6163653a204e6f6e63652077617360008201527f20616c7265616479207573656400000000000000000000000000000000000000602082015250565b7f496e47616d654974656d4d61726b6574706c6163653a204974656d207365726960008201527f6573204944206d69736d61746368000000000000000000000000000000000000602082015250565b7f45434453413a20696e76616c6964207369676e6174757265202776272076616c60008201527f7565000000000000000000000000000000000000000000000000000000000000602082015250565b7f496e47616d654974656d4d61726b6574706c6163653a2043616e6e6f7420707560008201527f726368617365203020746f6b656e730000000000000000000000000000000000602082015250565b7f496e47616d654974656d4d61726b6574706c6163653a204974656d207365726960008201527f6573206973206e6f742061637469766500000000000000000000000000000000602082015250565b7f496e47616d654974656d4d61726b6574706c6163653a2048617368206d69736d60008201527f6174636800000000000000000000000000000000000000000000000000000000602082015250565b7f496e47616d654974656d4d61726b6574706c6163653a2045544820707269636560008201527f206d69736d617463680000000000000000000000000000000000000000000000602082015250565b7f496e47616d654974656d4d61726b6574706c6163653a205072696365206d757360008201527f7420626520646566696e656420696e2065697468657220616e2045524332302060208201527f6f72204554480000000000000000000000000000000000000000000000000000604082015250565b7f416363657373436f6e74726f6c3a206163636f756e7420000000000000000000600082015250565b7f496e47616d654974656d4d61726b6574706c6163653a204974656d207365726960008201527f6573204944206f7574206f6620626f756e647300000000000000000000000000602082015250565b7f496e47616d654974656d4d61726b6574706c6163653a204e6f206974656d732060008201527f746f207075726368617365000000000000000000000000000000000000000000602082015250565b7f206973206d697373696e6720726f6c6520000000000000000000000000000000600082015250565b7f416363657373436f6e74726f6c3a2063616e206f6e6c792072656e6f756e636560008201527f20726f6c657320666f722073656c660000000000000000000000000000000000602082015250565b6142ad81613ac9565b81146142b857600080fd5b50565b6142c481613adb565b81146142cf57600080fd5b50565b6142db81613ae7565b81146142e657600080fd5b50565b6142f281613af1565b81146142fd57600080fd5b50565b61430981613b3d565b811461431457600080fd5b5056fea2646970667358221220b77341a3a7a88c77b4ba9f7745997c1d35f79562532b6376bad696c16b4d582a64736f6c63430008040033",
  "devdoc": {
    "kind": "dev",
    "methods": {
      "getRoleAdmin(bytes32)": {
        "details": "Returns the admin role that controls `role`. See {grantRole} and {revokeRole}. To change a role's admin, use {_setRoleAdmin}."
      },
      "getTrustedForwarder()": {
        "returns": {
          "forwarder": "The address of the Forwarder contract that is being used."
        }
      },
      "grantRole(bytes32,address)": {
        "details": "Grants `role` to `account`. If `account` had not been already granted `role`, emits a {RoleGranted} event. Requirements: - the caller must have ``role``'s admin role. May emit a {RoleGranted} event."
      },
      "hasRole(bytes32,address)": {
        "details": "Returns `true` if `account` has been granted `role`."
      },
      "isTrustedForwarder(address)": {
        "params": {
          "forwarder": "The address of the Forwarder contract that is being used."
        },
        "returns": {
          "_0": "isTrustedForwarder `true` if the Forwarder is trusted to forward relayed transactions by this Recipient."
        }
      },
      "paused()": {
        "details": "Returns true if the contract is paused, and false otherwise."
      },
      "renounceRole(bytes32,address)": {
        "details": "Revokes `role` from the calling account. Roles are often managed via {grantRole} and {revokeRole}: this function's purpose is to provide a mechanism for accounts to lose their privileges if they are compromised (such as when a trusted device is misplaced). If the calling account had been revoked `role`, emits a {RoleRevoked} event. Requirements: - the caller must be `account`. May emit a {RoleRevoked} event."
      },
      "revokeRole(bytes32,address)": {
        "details": "Revokes `role` from `account`. If `account` had been granted `role`, emits a {RoleRevoked} event. Requirements: - the caller must have ``role``'s admin role. May emit a {RoleRevoked} event."
      },
      "supportsInterface(bytes4)": {
        "details": "See {IERC165-supportsInterface}."
      }
    },
    "version": 1
  },
  "userdoc": {
    "kind": "user",
    "methods": {
      "getTrustedForwarder()": {
        "notice": ":warning: **Warning** :warning: The Forwarder can have a full control over your Recipient. Only trust verified Forwarder.Method is not a required method to allow Recipients to trust multiple Forwarders. Not recommended yet."
      },
      "isTrustedForwarder(address)": {
        "notice": ":warning: **Warning** :warning: The Forwarder can have a full control over your Recipient. Only trust verified Forwarder."
      }
    },
    "version": 1
  },
  "storageLayout": {
    "storage": [
      {
        "astId": 2512,
        "contract": "contracts/Marketplace/InGameItemMarketplace.sol:InGameItemMarketplace",
        "label": "_roles",
        "offset": 0,
        "slot": "0",
        "type": "t_mapping(t_bytes32,t_struct(RoleData)2507_storage)"
      },
      {
        "astId": 3011,
        "contract": "contracts/Marketplace/InGameItemMarketplace.sol:InGameItemMarketplace",
        "label": "_paused",
        "offset": 0,
        "slot": "1",
        "type": "t_bool"
      },
      {
        "astId": 7,
        "contract": "contracts/Marketplace/InGameItemMarketplace.sol:InGameItemMarketplace",
        "label": "_trustedForwarder",
        "offset": 1,
        "slot": "1",
        "type": "t_address"
      },
      {
        "astId": 6603,
        "contract": "contracts/Marketplace/InGameItemMarketplace.sol:InGameItemMarketplace",
        "label": "itemSeriesPricingMap",
        "offset": 0,
        "slot": "2",
        "type": "t_mapping(t_uint256,t_array(t_struct(ItemSeriesPricing)6597_storage)dyn_storage)"
      },
      {
        "astId": 6606,
        "contract": "contracts/Marketplace/InGameItemMarketplace.sol:InGameItemMarketplace",
        "label": "_inGameItems",
        "offset": 0,
        "slot": "3",
        "type": "t_contract(IInGameItems)8195"
      },
      {
        "astId": 6610,
        "contract": "contracts/Marketplace/InGameItemMarketplace.sol:InGameItemMarketplace",
        "label": "_nonces",
        "offset": 0,
        "slot": "4",
        "type": "t_mapping(t_bytes32,t_bool)"
      },
      {
        "astId": 6612,
        "contract": "contracts/Marketplace/InGameItemMarketplace.sol:InGameItemMarketplace",
        "label": "_signer",
        "offset": 0,
        "slot": "5",
        "type": "t_address"
      }
    ],
    "types": {
      "t_address": {
        "encoding": "inplace",
        "label": "address",
        "numberOfBytes": "20"
      },
      "t_array(t_struct(ItemSeriesPricing)6597_storage)dyn_storage": {
        "base": "t_struct(ItemSeriesPricing)6597_storage",
        "encoding": "dynamic_array",
        "label": "struct InGameItemMarketplace.ItemSeriesPricing[]",
        "numberOfBytes": "32"
      },
      "t_bool": {
        "encoding": "inplace",
        "label": "bool",
        "numberOfBytes": "1"
      },
      "t_bytes32": {
        "encoding": "inplace",
        "label": "bytes32",
        "numberOfBytes": "32"
      },
      "t_contract(IInGameItems)8195": {
        "encoding": "inplace",
        "label": "contract IInGameItems",
        "numberOfBytes": "20"
      },
      "t_mapping(t_address,t_bool)": {
        "encoding": "mapping",
        "key": "t_address",
        "label": "mapping(address => bool)",
        "numberOfBytes": "32",
        "value": "t_bool"
      },
      "t_mapping(t_bytes32,t_bool)": {
        "encoding": "mapping",
        "key": "t_bytes32",
        "label": "mapping(bytes32 => bool)",
        "numberOfBytes": "32",
        "value": "t_bool"
      },
      "t_mapping(t_bytes32,t_struct(RoleData)2507_storage)": {
        "encoding": "mapping",
        "key": "t_bytes32",
        "label": "mapping(bytes32 => struct AccessControl.RoleData)",
        "numberOfBytes": "32",
        "value": "t_struct(RoleData)2507_storage"
      },
      "t_mapping(t_uint256,t_array(t_struct(ItemSeriesPricing)6597_storage)dyn_storage)": {
        "encoding": "mapping",
        "key": "t_uint256",
        "label": "mapping(uint256 => struct InGameItemMarketplace.ItemSeriesPricing[])",
        "numberOfBytes": "32",
        "value": "t_array(t_struct(ItemSeriesPricing)6597_storage)dyn_storage"
      },
      "t_struct(ItemSeriesPricing)6597_storage": {
        "encoding": "inplace",
        "label": "struct InGameItemMarketplace.ItemSeriesPricing",
        "members": [
          {
            "astId": 6590,
            "contract": "contracts/Marketplace/InGameItemMarketplace.sol:InGameItemMarketplace",
            "label": "ethPrice",
            "offset": 0,
            "slot": "0",
            "type": "t_uint256"
          },
          {
            "astId": 6592,
            "contract": "contracts/Marketplace/InGameItemMarketplace.sol:InGameItemMarketplace",
            "label": "erc20Price",
            "offset": 0,
            "slot": "1",
            "type": "t_uint256"
          },
          {
            "astId": 6594,
            "contract": "contracts/Marketplace/InGameItemMarketplace.sol:InGameItemMarketplace",
            "label": "erc20Address",
            "offset": 0,
            "slot": "2",
            "type": "t_address"
          },
          {
            "astId": 6596,
            "contract": "contracts/Marketplace/InGameItemMarketplace.sol:InGameItemMarketplace",
            "label": "active",
            "offset": 20,
            "slot": "2",
            "type": "t_bool"
          }
        ],
        "numberOfBytes": "96"
      },
      "t_struct(RoleData)2507_storage": {
        "encoding": "inplace",
        "label": "struct AccessControl.RoleData",
        "members": [
          {
            "astId": 2504,
            "contract": "contracts/Marketplace/InGameItemMarketplace.sol:InGameItemMarketplace",
            "label": "members",
            "offset": 0,
            "slot": "0",
            "type": "t_mapping(t_address,t_bool)"
          },
          {
            "astId": 2506,
            "contract": "contracts/Marketplace/InGameItemMarketplace.sol:InGameItemMarketplace",
            "label": "adminRole",
            "offset": 0,
            "slot": "1",
            "type": "t_bytes32"
          }
        ],
        "numberOfBytes": "64"
      },
      "t_uint256": {
        "encoding": "inplace",
        "label": "uint256",
        "numberOfBytes": "32"
      }
    }
  }
}