{
  "address": "0x1875cB4C0DD63c1292fE93288cc69924253A6fbc",
  "abi": [
    {
      "inputs": [
        {
          "internalType": "address",
          "name": "admin",
          "type": "address"
        },
        {
          "internalType": "address",
          "name": "pauser",
          "type": "address"
        },
        {
          "internalType": "address",
          "name": "storeAdmin",
          "type": "address"
        },
        {
          "internalType": "address",
          "name": "beneficiary",
          "type": "address"
        },
        {
          "internalType": "address",
          "name": "signer_",
          "type": "address"
        },
        {
          "internalType": "address",
          "name": "trustedForwarder_",
          "type": "address"
        }
      ],
      "stateMutability": "nonpayable",
      "type": "constructor"
    },
    {
      "anonymous": false,
      "inputs": [
        {
          "indexed": true,
          "internalType": "uint256",
          "name": "assetId",
          "type": "uint256"
        },
        {
          "indexed": false,
          "internalType": "bool",
          "name": "active",
          "type": "bool"
        }
      ],
      "name": "AssetActivation",
      "type": "event"
    },
    {
      "anonymous": false,
      "inputs": [
        {
          "indexed": true,
          "internalType": "address",
          "name": "buyer",
          "type": "address"
        },
        {
          "indexed": true,
          "internalType": "uint256",
          "name": "assetId",
          "type": "uint256"
        },
        {
          "indexed": false,
          "internalType": "uint256",
          "name": "qty",
          "type": "uint256"
        },
        {
          "indexed": true,
          "internalType": "uint256",
          "name": "receiptId",
          "type": "uint256"
        }
      ],
      "name": "AssetPurchased",
      "type": "event"
    },
    {
      "anonymous": false,
      "inputs": [
        {
          "indexed": false,
          "internalType": "address",
          "name": "account",
          "type": "address"
        }
      ],
      "name": "Paused",
      "type": "event"
    },
    {
      "anonymous": false,
      "inputs": [
        {
          "indexed": true,
          "internalType": "bytes32",
          "name": "role",
          "type": "bytes32"
        },
        {
          "indexed": true,
          "internalType": "bytes32",
          "name": "previousAdminRole",
          "type": "bytes32"
        },
        {
          "indexed": true,
          "internalType": "bytes32",
          "name": "newAdminRole",
          "type": "bytes32"
        }
      ],
      "name": "RoleAdminChanged",
      "type": "event"
    },
    {
      "anonymous": false,
      "inputs": [
        {
          "indexed": true,
          "internalType": "bytes32",
          "name": "role",
          "type": "bytes32"
        },
        {
          "indexed": true,
          "internalType": "address",
          "name": "account",
          "type": "address"
        },
        {
          "indexed": true,
          "internalType": "address",
          "name": "sender",
          "type": "address"
        }
      ],
      "name": "RoleGranted",
      "type": "event"
    },
    {
      "anonymous": false,
      "inputs": [
        {
          "indexed": true,
          "internalType": "bytes32",
          "name": "role",
          "type": "bytes32"
        },
        {
          "indexed": true,
          "internalType": "address",
          "name": "account",
          "type": "address"
        },
        {
          "indexed": true,
          "internalType": "address",
          "name": "sender",
          "type": "address"
        }
      ],
      "name": "RoleRevoked",
      "type": "event"
    },
    {
      "anonymous": false,
      "inputs": [
        {
          "indexed": false,
          "internalType": "address",
          "name": "account",
          "type": "address"
        }
      ],
      "name": "Unpaused",
      "type": "event"
    },
    {
      "inputs": [],
      "name": "BENEFICIARY_ROLE",
      "outputs": [
        {
          "internalType": "bytes32",
          "name": "",
          "type": "bytes32"
        }
      ],
      "stateMutability": "view",
      "type": "function"
    },
    {
      "inputs": [],
      "name": "DEFAULT_ADMIN_ROLE",
      "outputs": [
        {
          "internalType": "bytes32",
          "name": "",
          "type": "bytes32"
        }
      ],
      "stateMutability": "view",
      "type": "function"
    },
    {
      "inputs": [],
      "name": "PAUSER_ROLE",
      "outputs": [
        {
          "internalType": "bytes32",
          "name": "",
          "type": "bytes32"
        }
      ],
      "stateMutability": "view",
      "type": "function"
    },
    {
      "inputs": [],
      "name": "STORE_ADMIN_ROLE",
      "outputs": [
        {
          "internalType": "bytes32",
          "name": "",
          "type": "bytes32"
        }
      ],
      "stateMutability": "view",
      "type": "function"
    },
    {
      "inputs": [
        {
          "internalType": "bool",
          "name": "active",
          "type": "bool"
        },
        {
          "internalType": "uint256[]",
          "name": "assetIds",
          "type": "uint256[]"
        }
      ],
      "name": "activateAssets",
      "outputs": [],
      "stateMutability": "nonpayable",
      "type": "function"
    },
    {
      "inputs": [
        {
          "internalType": "uint256",
          "name": "",
          "type": "uint256"
        }
      ],
      "name": "assetMap",
      "outputs": [
        {
          "internalType": "uint256",
          "name": "assetId",
          "type": "uint256"
        },
        {
          "internalType": "uint256",
          "name": "ethPrice",
          "type": "uint256"
        },
        {
          "internalType": "uint256",
          "name": "erc20Price",
          "type": "uint256"
        },
        {
          "internalType": "address",
          "name": "erc20Address",
          "type": "address"
        },
        {
          "internalType": "bool",
          "name": "active",
          "type": "bool"
        }
      ],
      "stateMutability": "view",
      "type": "function"
    },
    {
      "inputs": [
        {
          "internalType": "bytes32",
          "name": "role",
          "type": "bytes32"
        }
      ],
      "name": "getRoleAdmin",
      "outputs": [
        {
          "internalType": "bytes32",
          "name": "",
          "type": "bytes32"
        }
      ],
      "stateMutability": "view",
      "type": "function"
    },
    {
      "inputs": [],
      "name": "getSigner",
      "outputs": [
        {
          "internalType": "address",
          "name": "",
          "type": "address"
        }
      ],
      "stateMutability": "view",
      "type": "function"
    },
    {
      "inputs": [],
      "name": "getTrustedForwarder",
      "outputs": [
        {
          "internalType": "address",
          "name": "forwarder",
          "type": "address"
        }
      ],
      "stateMutability": "view",
      "type": "function"
    },
    {
      "inputs": [
        {
          "internalType": "bytes32",
          "name": "role",
          "type": "bytes32"
        },
        {
          "internalType": "address",
          "name": "account",
          "type": "address"
        }
      ],
      "name": "grantRole",
      "outputs": [],
      "stateMutability": "nonpayable",
      "type": "function"
    },
    {
      "inputs": [
        {
          "internalType": "bytes32",
          "name": "role",
          "type": "bytes32"
        },
        {
          "internalType": "address",
          "name": "account",
          "type": "address"
        }
      ],
      "name": "hasRole",
      "outputs": [
        {
          "internalType": "bool",
          "name": "",
          "type": "bool"
        }
      ],
      "stateMutability": "view",
      "type": "function"
    },
    {
      "inputs": [
        {
          "internalType": "address",
          "name": "forwarder",
          "type": "address"
        }
      ],
      "name": "isTrustedForwarder",
      "outputs": [
        {
          "internalType": "bool",
          "name": "",
          "type": "bool"
        }
      ],
      "stateMutability": "view",
      "type": "function"
    },
    {
      "inputs": [],
      "name": "pause",
      "outputs": [],
      "stateMutability": "nonpayable",
      "type": "function"
    },
    {
      "inputs": [],
      "name": "paused",
      "outputs": [
        {
          "internalType": "bool",
          "name": "",
          "type": "bool"
        }
      ],
      "stateMutability": "view",
      "type": "function"
    },
    {
      "inputs": [
        {
          "internalType": "uint256[]",
          "name": "assetIds",
          "type": "uint256[]"
        },
        {
          "internalType": "uint256[]",
          "name": "qtys",
          "type": "uint256[]"
        },
        {
          "internalType": "uint256[]",
          "name": "receiptIds",
          "type": "uint256[]"
        },
        {
          "internalType": "bytes32",
          "name": "nonce",
          "type": "bytes32"
        },
        {
          "internalType": "bytes32",
          "name": "hash",
          "type": "bytes32"
        },
        {
          "internalType": "bytes",
          "name": "signature",
          "type": "bytes"
        }
      ],
      "name": "purchase",
      "outputs": [],
      "stateMutability": "payable",
      "type": "function"
    },
    {
      "inputs": [
        {
          "internalType": "bytes32",
          "name": "role",
          "type": "bytes32"
        },
        {
          "internalType": "address",
          "name": "account",
          "type": "address"
        }
      ],
      "name": "renounceRole",
      "outputs": [],
      "stateMutability": "nonpayable",
      "type": "function"
    },
    {
      "inputs": [
        {
          "internalType": "bytes32",
          "name": "role",
          "type": "bytes32"
        },
        {
          "internalType": "address",
          "name": "account",
          "type": "address"
        }
      ],
      "name": "revokeRole",
      "outputs": [],
      "stateMutability": "nonpayable",
      "type": "function"
    },
    {
      "inputs": [
        {
          "internalType": "address",
          "name": "signer_",
          "type": "address"
        }
      ],
      "name": "setSigner",
      "outputs": [],
      "stateMutability": "nonpayable",
      "type": "function"
    },
    {
      "inputs": [
        {
          "internalType": "address",
          "name": "forwarder",
          "type": "address"
        }
      ],
      "name": "setTrustedForwarder",
      "outputs": [],
      "stateMutability": "nonpayable",
      "type": "function"
    },
    {
      "inputs": [
        {
          "components": [
            {
              "internalType": "uint256",
              "name": "assetId",
              "type": "uint256"
            },
            {
              "internalType": "uint256",
              "name": "ethPrice",
              "type": "uint256"
            },
            {
              "internalType": "uint256",
              "name": "erc20Price",
              "type": "uint256"
            },
            {
              "internalType": "address",
              "name": "erc20Address",
              "type": "address"
            },
            {
              "internalType": "bool",
              "name": "active",
              "type": "bool"
            }
          ],
          "internalType": "struct InGameAssetMarketplace.Asset[]",
          "name": "assets",
          "type": "tuple[]"
        }
      ],
      "name": "setupAssets",
      "outputs": [],
      "stateMutability": "nonpayable",
      "type": "function"
    },
    {
      "inputs": [
        {
          "internalType": "bytes4",
          "name": "interfaceId",
          "type": "bytes4"
        }
      ],
      "name": "supportsInterface",
      "outputs": [
        {
          "internalType": "bool",
          "name": "",
          "type": "bool"
        }
      ],
      "stateMutability": "view",
      "type": "function"
    },
    {
      "inputs": [],
      "name": "unpause",
      "outputs": [],
      "stateMutability": "nonpayable",
      "type": "function"
    },
    {
      "inputs": [
        {
          "internalType": "address",
          "name": "tokenAddress",
          "type": "address"
        },
        {
          "internalType": "uint256",
          "name": "amount",
          "type": "uint256"
        }
      ],
      "name": "withdrawErc20",
      "outputs": [],
      "stateMutability": "nonpayable",
      "type": "function"
    },
    {
      "inputs": [
        {
          "internalType": "uint256",
          "name": "amount",
          "type": "uint256"
        }
      ],
      "name": "withdrawEth",
      "outputs": [],
      "stateMutability": "nonpayable",
      "type": "function"
    }
  ],
  "transactionHash": "0x63ce46174808d47d10376327a9b720dcb1b226142f46947baeb3af72c13723f8",
  "args": [
    "0xFe3AC01fA715A09721266B9db1F9f60d0BF1BDbB",
    "0xFe3AC01fA715A09721266B9db1F9f60d0BF1BDbB",
    "0xFe3AC01fA715A09721266B9db1F9f60d0BF1BDbB",
    "0xFe3AC01fA715A09721266B9db1F9f60d0BF1BDbB",
    "0xd8288Ce8348D53887Cb934240B93F5B41B08D4BE",
    "0x0000000000000000000000000000000000000000"
  ],
  "numDeployments": 1,
  "solcInputHash": "76d09f08b7510e0f307f7d4ed19319c9",
  "bytecode": "0x60806040523480156200001157600080fd5b50604051620041e9380380620041e98339818101604052810190620000379190620003c6565b6000600160006101000a81548160ff021916908315150217905550620000676000801b876200015b60201b60201c565b620000997f65d7a28e3265b37a6474929f336521b332c1681b933f6cb9f3376673440d862a866200015b60201b60201c565b620000cb7fd33ef51e3959720bc2ec8f81d4fdc2ae7bbab96194e0ea53925409204d8cc6d3856200015b60201b60201c565b620000fd7fc8a41221bcd7fcf2c225f5a9265e1d4d39949d89197159d59e5f4b87b62c419e846200015b60201b60201c565b81600460006101000a81548173ffffffffffffffffffffffffffffffffffffffff021916908373ffffffffffffffffffffffffffffffffffffffff1602179055506200014f816200024c60201b60201c565b505050505050620004aa565b6200016d82826200028f60201b60201c565b6200024857600160008084815260200190815260200160002060000160008373ffffffffffffffffffffffffffffffffffffffff1673ffffffffffffffffffffffffffffffffffffffff16815260200190815260200160002060006101000a81548160ff021916908315150217905550620001ed620002f960201b60201c565b73ffffffffffffffffffffffffffffffffffffffff168173ffffffffffffffffffffffffffffffffffffffff16837f2f8788117e7eff1d82e926ec794901d17c78024a50270940304540a733656f0d60405160405180910390a45b5050565b806001806101000a81548173ffffffffffffffffffffffffffffffffffffffff021916908373ffffffffffffffffffffffffffffffffffffffff16021790555050565b600080600084815260200190815260200160002060000160008373ffffffffffffffffffffffffffffffffffffffff1673ffffffffffffffffffffffffffffffffffffffff16815260200190815260200160002060009054906101000a900460ff16905092915050565b6000620003106200031560201b620017311760201c565b905090565b600060146000369050101580156200033a575062000339336200035760201b60201c565b5b156200035057601436033560601c905062000354565b3390505b90565b600060018054906101000a900473ffffffffffffffffffffffffffffffffffffffff1673ffffffffffffffffffffffffffffffffffffffff168273ffffffffffffffffffffffffffffffffffffffff16149050919050565b600081519050620003c08162000490565b92915050565b60008060008060008060c08789031215620003e057600080fd5b6000620003f089828a01620003af565b96505060206200040389828a01620003af565b95505060406200041689828a01620003af565b94505060606200042989828a01620003af565b93505060806200043c89828a01620003af565b92505060a06200044f89828a01620003af565b9150509295509295509295565b6000620004698262000470565b9050919050565b600073ffffffffffffffffffffffffffffffffffffffff82169050919050565b6200049b816200045c565b8114620004a757600080fd5b50565b613d2f80620004ba6000396000f3fe60806040526004361061014b5760003560e01c80638456cb59116100b6578063cb7b9c231161006f578063cb7b9c231461046f578063ce1b815f1461049a578063ced3a403146104c5578063d547741f146104f0578063da74222814610519578063e63ab1e9146105425761014b565b80638456cb591461037557806391d148541461038c578063a217fddf146103c9578063ad953cb1146103f4578063bd1f4b521461041d578063c311d049146104465761014b565b80633f4ba83a116101085780633f4ba83a1461028657806343d496c31461029d578063572b6c05146102b95780635c975abb146102f65780636c19e783146103215780637ac3c02f1461034a5761014b565b806301ffc9a7146101505780630ad412331461018d578063129f9008146101b6578063248a9ca3146101f75780632f2ff15d1461023457806336568abe1461025d575b600080fd5b34801561015c57600080fd5b50610177600480360381019061017291906128c6565b61056d565b6040516101849190612e43565b60405180910390f35b34801561019957600080fd5b506101b460048036038101906101af919061267b565b6105e7565b005b3480156101c257600080fd5b506101dd60048036038101906101d891906128ef565b610900565b6040516101ee95949392919061311b565b60405180910390f35b34801561020357600080fd5b5061021e60048036038101906102199190612861565b610963565b60405161022b9190612e5e565b60405180910390f35b34801561024057600080fd5b5061025b6004803603810190610256919061288a565b610982565b005b34801561026957600080fd5b50610284600480360381019061027f919061288a565b6109a3565b005b34801561029257600080fd5b5061029b610a26565b005b6102b760048036038101906102b291906126c0565b610a5b565b005b3480156102c557600080fd5b506102e060048036038101906102db9190612616565b61125b565b6040516102ed9190612e43565b60405180910390f35b34801561030257600080fd5b5061030b6112b3565b6040516103189190612e43565b60405180910390f35b34801561032d57600080fd5b5061034860048036038101906103439190612616565b6112ca565b005b34801561035657600080fd5b5061035f61131c565b60405161036c9190612dc8565b60405180910390f35b34801561038157600080fd5b5061038a611346565b005b34801561039857600080fd5b506103b360048036038101906103ae919061288a565b61137b565b6040516103c09190612e43565b60405180910390f35b3480156103d557600080fd5b506103de6113e5565b6040516103eb9190612e5e565b60405180910390f35b34801561040057600080fd5b5061041b60048036038101906104169190612809565b6113ec565b005b34801561042957600080fd5b50610444600480360381019061043f919061263f565b611522565b005b34801561045257600080fd5b5061046d600480360381019061046891906128ef565b6115e6565b005b34801561047b57600080fd5b50610484611662565b6040516104919190612e5e565b60405180910390f35b3480156104a657600080fd5b506104af611686565b6040516104bc9190612dc8565b60405180910390f35b3480156104d157600080fd5b506104da6116ae565b6040516104e79190612e5e565b60405180910390f35b3480156104fc57600080fd5b506105176004803603810190610512919061288a565b6116d2565b005b34801561052557600080fd5b50610540600480360381019061053b9190612616565b6116f3565b005b34801561054e57600080fd5b5061055761170d565b6040516105649190612e5e565b60405180910390f35b60007f7965db0b000000000000000000000000000000000000000000000000000000007bffffffffffffffffffffffffffffffffffffffffffffffffffffffff1916827bffffffffffffffffffffffffffffffffffffffffffffffffffffffff191614806105e057506105df82611768565b5b9050919050565b7fd33ef51e3959720bc2ec8f81d4fdc2ae7bbab96194e0ea53925409204d8cc6d3610611816117d2565b60005b838390508110156108fa57600084848381811061065a577f4e487b7100000000000000000000000000000000000000000000000000000000600052603260045260246000fd5b905060a0020160200135118061073b575060008484838181106106a6577f4e487b7100000000000000000000000000000000000000000000000000000000600052603260045260246000fd5b905060a002016040013511801561073a5750600073ffffffffffffffffffffffffffffffffffffffff16848483818110610709577f4e487b7100000000000000000000000000000000000000000000000000000000600052603260045260246000fd5b905060a0020160600160208101906107219190612616565b73ffffffffffffffffffffffffffffffffffffffff1614155b5b61077a576040517f08c379a0000000000000000000000000000000000000000000000000000000008152600401610771906130a0565b60405180910390fd5b8383828181106107b3577f4e487b7100000000000000000000000000000000000000000000000000000000600052603260045260246000fd5b905060a00201600260008686858181106107f6577f4e487b7100000000000000000000000000000000000000000000000000000000600052603260045260246000fd5b905060a00201600001358152602001908152602001600020818161081a9190613c32565b905050838382818110610856577f4e487b7100000000000000000000000000000000000000000000000000000000600052603260045260246000fd5b905060a00201600001357fffa4f3833cbcb35fe05236e8737a7c899216b57a26667e6524d3942489902b008585848181106108ba577f4e487b7100000000000000000000000000000000000000000000000000000000600052603260045260246000fd5b905060a0020160800160208101906108d291906127b7565b6040516108df9190612e43565b60405180910390a280806108f2906134d1565b915050610614565b50505050565b60026020528060005260406000206000915090508060000154908060010154908060020154908060030160009054906101000a900473ffffffffffffffffffffffffffffffffffffffff16908060030160149054906101000a900460ff16905085565b6000806000838152602001908152602001600020600101549050919050565b61098b82610963565b610994816117d2565b61099e83836117e6565b505050565b6109ab6118c6565b73ffffffffffffffffffffffffffffffffffffffff168173ffffffffffffffffffffffffffffffffffffffff1614610a18576040517f08c379a0000000000000000000000000000000000000000000000000000000008152600401610a0f906130e0565b60405180910390fd5b610a2282826118d5565b5050565b7f65d7a28e3265b37a6474929f336521b332c1681b933f6cb9f3376673440d862a610a50816117d2565b610a586119b6565b50565b610a63611a19565b868690508989905014610aab576040517f08c379a0000000000000000000000000000000000000000000000000000000008152600401610aa290612f60565b60405180910390fd5b60008989905011610af1576040517f08c379a0000000000000000000000000000000000000000000000000000000008152600401610ae890613060565b60405180910390fd5b6003600084815260200190815260200160002060009054906101000a900460ff1615610b52576040517f08c379a0000000000000000000000000000000000000000000000000000000008152600401610b4990612fc0565b60405180910390fd5b610b5c8282611a63565b610b9b576040517f08c379a0000000000000000000000000000000000000000000000000000000008152600401610b9290612f80565b60405180910390fd5b610bb2610ba66118c6565b8a8a8a8a8a8a8a611ad0565b8214610bf3576040517f08c379a0000000000000000000000000000000000000000000000000000000008152600401610bea90613080565b60405180910390fd5b6000806000805b8c8c90508110156111045760008b8b83818110610c40577f4e487b7100000000000000000000000000000000000000000000000000000000600052603260045260246000fd5b9050602002013511610c87576040517f08c379a0000000000000000000000000000000000000000000000000000000008152600401610c7e90613040565b60405180910390fd5b6000600260008f8f85818110610cc6577f4e487b7100000000000000000000000000000000000000000000000000000000600052603260045260246000fd5b9050602002013581526020019081526020016000206040518060a00160405290816000820154815260200160018201548152602001600282015481526020016003820160009054906101000a900473ffffffffffffffffffffffffffffffffffffffff1673ffffffffffffffffffffffffffffffffffffffff1673ffffffffffffffffffffffffffffffffffffffff1681526020016003820160149054906101000a900460ff16151515158152505090508060800151610dbb576040517f08c379a0000000000000000000000000000000000000000000000000000000008152600401610db2906130c0565b60405180910390fd5b600081602001511115610e29578b8b83818110610e01577f4e487b7100000000000000000000000000000000000000000000000000000000600052603260045260246000fd5b905060200201358160200151610e17919061324c565b85610e2291906131f6565b9450610fdc565b806060015173ffffffffffffffffffffffffffffffffffffffff168373ffffffffffffffffffffffffffffffffffffffff1614610f4657600084118015610e9d5750600073ffffffffffffffffffffffffffffffffffffffff168373ffffffffffffffffffffffffffffffffffffffff1614155b15610f3e578273ffffffffffffffffffffffffffffffffffffffff166323b872dd610ec66118c6565b30876040518463ffffffff1660e01b8152600401610ee693929190612de3565b602060405180830381600087803b158015610f0057600080fd5b505af1158015610f14573d6000803e3d6000fd5b505050506040513d601f19601f82011682018060405250810190610f3891906127e0565b50600093505b806060015192505b806060015173ffffffffffffffffffffffffffffffffffffffff168373ffffffffffffffffffffffffffffffffffffffff161415610fdb578b8b83818110610fb7577f4e487b7100000000000000000000000000000000000000000000000000000000600052603260045260246000fd5b905060200201358160400151610fcd919061324c565b84610fd891906131f6565b93505b5b898983818110611015577f4e487b7100000000000000000000000000000000000000000000000000000000600052603260045260246000fd5b905060200201358e8e84818110611055577f4e487b7100000000000000000000000000000000000000000000000000000000600052603260045260246000fd5b905060200201356110646118c6565b73ffffffffffffffffffffffffffffffffffffffff167f751dfd922ff4b6048a31e74f71bfe6c58ee9135146d587bf908e12cfa525ae0b8f8f878181106110d4577f4e487b7100000000000000000000000000000000000000000000000000000000600052603260045260246000fd5b905060200201356040516110e89190613100565b60405180910390a45080806110fc906134d1565b915050610bfa565b50348314611147576040517f08c379a000000000000000000000000000000000000000000000000000000000815260040161113e90612fa0565b60405180910390fd5b60016003600088815260200190815260200160002060006101000a81548160ff0219169083151502179055506000821180156111b05750600073ffffffffffffffffffffffffffffffffffffffff168173ffffffffffffffffffffffffffffffffffffffff1614155b1561124d578073ffffffffffffffffffffffffffffffffffffffff166323b872dd6111d96118c6565b30856040518463ffffffff1660e01b81526004016111f993929190612de3565b602060405180830381600087803b15801561121357600080fd5b505af1158015611227573d6000803e3d6000fd5b505050506040513d601f19601f8201168201806040525081019061124b91906127e0565b505b505050505050505050505050565b600060018054906101000a900473ffffffffffffffffffffffffffffffffffffffff1673ffffffffffffffffffffffffffffffffffffffff168273ffffffffffffffffffffffffffffffffffffffff16149050919050565b6000600160009054906101000a900460ff16905090565b6000801b6112d7816117d2565b81600460006101000a81548173ffffffffffffffffffffffffffffffffffffffff021916908373ffffffffffffffffffffffffffffffffffffffff1602179055505050565b6000600460009054906101000a900473ffffffffffffffffffffffffffffffffffffffff16905090565b7f65d7a28e3265b37a6474929f336521b332c1681b933f6cb9f3376673440d862a611370816117d2565b611378611b40565b50565b600080600084815260200190815260200160002060000160008373ffffffffffffffffffffffffffffffffffffffff1673ffffffffffffffffffffffffffffffffffffffff16815260200190815260200160002060009054906101000a900460ff16905092915050565b6000801b81565b7fd33ef51e3959720bc2ec8f81d4fdc2ae7bbab96194e0ea53925409204d8cc6d3611416816117d2565b60005b8383905081101561151b578460026000868685818110611462577f4e487b7100000000000000000000000000000000000000000000000000000000600052603260045260246000fd5b90506020020135815260200190815260200160002060030160146101000a81548160ff0219169083151502179055508383828181106114ca577f4e487b7100000000000000000000000000000000000000000000000000000000600052603260045260246000fd5b905060200201357fffa4f3833cbcb35fe05236e8737a7c899216b57a26667e6524d3942489902b00866040516115009190612e43565b60405180910390a28080611513906134d1565b915050611419565b5050505050565b7fc8a41221bcd7fcf2c225f5a9265e1d4d39949d89197159d59e5f4b87b62c419e61154c816117d2565b8273ffffffffffffffffffffffffffffffffffffffff1663a9059cbb6115706118c6565b846040518363ffffffff1660e01b815260040161158e929190612e1a565b602060405180830381600087803b1580156115a857600080fd5b505af11580156115bc573d6000803e3d6000fd5b505050506040513d601f19601f820116820180604052508101906115e091906127e0565b50505050565b7fc8a41221bcd7fcf2c225f5a9265e1d4d39949d89197159d59e5f4b87b62c419e611610816117d2565b6116186118c6565b73ffffffffffffffffffffffffffffffffffffffff166108fc839081150290604051600060405180830381858888f1935050505015801561165d573d6000803e3d6000fd5b505050565b7fd33ef51e3959720bc2ec8f81d4fdc2ae7bbab96194e0ea53925409204d8cc6d381565b600060018054906101000a900473ffffffffffffffffffffffffffffffffffffffff16905090565b7fc8a41221bcd7fcf2c225f5a9265e1d4d39949d89197159d59e5f4b87b62c419e81565b6116db82610963565b6116e4816117d2565b6116ee83836118d5565b505050565b6000801b611700816117d2565b61170982611ba2565b5050565b7f65d7a28e3265b37a6474929f336521b332c1681b933f6cb9f3376673440d862a81565b6000601460003690501015801561174d575061174c3361125b565b5b1561176157601436033560601c9050611765565b3390505b90565b60007f01ffc9a7000000000000000000000000000000000000000000000000000000007bffffffffffffffffffffffffffffffffffffffffffffffffffffffff1916827bffffffffffffffffffffffffffffffffffffffffffffffffffffffff1916149050919050565b6117e3816117de6118c6565b611be5565b50565b6117f0828261137b565b6118c257600160008084815260200190815260200160002060000160008373ffffffffffffffffffffffffffffffffffffffff1673ffffffffffffffffffffffffffffffffffffffff16815260200190815260200160002060006101000a81548160ff0219169083151502179055506118676118c6565b73ffffffffffffffffffffffffffffffffffffffff168173ffffffffffffffffffffffffffffffffffffffff16837f2f8788117e7eff1d82e926ec794901d17c78024a50270940304540a733656f0d60405160405180910390a45b5050565b60006118d0611731565b905090565b6118df828261137b565b156119b257600080600084815260200190815260200160002060000160008373ffffffffffffffffffffffffffffffffffffffff1673ffffffffffffffffffffffffffffffffffffffff16815260200190815260200160002060006101000a81548160ff0219169083151502179055506119576118c6565b73ffffffffffffffffffffffffffffffffffffffff168173ffffffffffffffffffffffffffffffffffffffff16837ff6391f5c32d9c69d2a47ea670b442974b53935d1edc7fd64eb21e047a839171b60405160405180910390a45b5050565b6119be611c82565b6000600160006101000a81548160ff0219169083151502179055507f5db9ee0a495bf2e6ff9c91a7834c1ba4fdd244a5e8aa4e537bd38aeae4b073aa611a026118c6565b604051611a0f9190612dc8565b60405180910390a1565b611a216112b3565b15611a61576040517f08c379a0000000000000000000000000000000000000000000000000000000008152600401611a5890613000565b60405180910390fd5b565b6000611a788284611ccb90919063ffffffff16565b73ffffffffffffffffffffffffffffffffffffffff16600460009054906101000a900473ffffffffffffffffffffffffffffffffffffffff1673ffffffffffffffffffffffffffffffffffffffff1614905092915050565b6000808989898989898989604051602001611af2989796959493929190612d0f565b60405160208183030381529060405280519060200120604051602001611b189190612d68565b6040516020818303038152906040528051906020012090508091505098975050505050505050565b611b48611a19565b60018060006101000a81548160ff0219169083151502179055507f62e78cea01bee320cd4e420270b5ea74000d11b0c9f74754ebdbfc544b05a258611b8b6118c6565b604051611b989190612dc8565b60405180910390a1565b806001806101000a81548173ffffffffffffffffffffffffffffffffffffffff021916908373ffffffffffffffffffffffffffffffffffffffff16021790555050565b611bef828261137b565b611c7e57611c148173ffffffffffffffffffffffffffffffffffffffff166014611cf2565b611c228360001c6020611cf2565b604051602001611c33929190612d8e565b6040516020818303038152906040526040517f08c379a0000000000000000000000000000000000000000000000000000000008152600401611c759190612ebe565b60405180910390fd5b5050565b611c8a6112b3565b611cc9576040517f08c379a0000000000000000000000000000000000000000000000000000000008152600401611cc090612f20565b60405180910390fd5b565b6000806000611cda8585611fec565b91509150611ce78161203e565b819250505092915050565b606060006002836002611d05919061324c565b611d0f91906131f6565b67ffffffffffffffff811115611d4e577f4e487b7100000000000000000000000000000000000000000000000000000000600052604160045260246000fd5b6040519080825280601f01601f191660200182016040528015611d805781602001600182028036833780820191505090505b5090507f300000000000000000000000000000000000000000000000000000000000000081600081518110611dde577f4e487b7100000000000000000000000000000000000000000000000000000000600052603260045260246000fd5b60200101907effffffffffffffffffffffffffffffffffffffffffffffffffffffffffffff1916908160001a9053507f780000000000000000000000000000000000000000000000000000000000000081600181518110611e68577f4e487b7100000000000000000000000000000000000000000000000000000000600052603260045260246000fd5b60200101907effffffffffffffffffffffffffffffffffffffffffffffffffffffffffffff1916908160001a90535060006001846002611ea8919061324c565b611eb291906131f6565b90505b6001811115611f9e577f3031323334353637383961626364656600000000000000000000000000000000600f861660108110611f1a577f4e487b7100000000000000000000000000000000000000000000000000000000600052603260045260246000fd5b1a60f81b828281518110611f57577f4e487b7100000000000000000000000000000000000000000000000000000000600052603260045260246000fd5b60200101907effffffffffffffffffffffffffffffffffffffffffffffffffffffffffffff1916908160001a905350600485901c945080611f9790613476565b9050611eb5565b5060008414611fe2576040517f08c379a0000000000000000000000000000000000000000000000000000000008152600401611fd990612f00565b60405180910390fd5b8091505092915050565b60008060418351141561202e5760008060006020860151925060408601519150606086015160001a90506120228782858561238f565b94509450505050612037565b60006002915091505b9250929050565b60006004811115612078577f4e487b7100000000000000000000000000000000000000000000000000000000600052602160045260246000fd5b8160048111156120b1577f4e487b7100000000000000000000000000000000000000000000000000000000600052602160045260246000fd5b14156120bc5761238c565b600160048111156120f6577f4e487b7100000000000000000000000000000000000000000000000000000000600052602160045260246000fd5b81600481111561212f577f4e487b7100000000000000000000000000000000000000000000000000000000600052602160045260246000fd5b1415612170576040517f08c379a000000000000000000000000000000000000000000000000000000000815260040161216790612ee0565b60405180910390fd5b600260048111156121aa577f4e487b7100000000000000000000000000000000000000000000000000000000600052602160045260246000fd5b8160048111156121e3577f4e487b7100000000000000000000000000000000000000000000000000000000600052602160045260246000fd5b1415612224576040517f08c379a000000000000000000000000000000000000000000000000000000000815260040161221b90612f40565b60405180910390fd5b6003600481111561225e577f4e487b7100000000000000000000000000000000000000000000000000000000600052602160045260246000fd5b816004811115612297577f4e487b7100000000000000000000000000000000000000000000000000000000600052602160045260246000fd5b14156122d8576040517f08c379a00000000000000000000000000000000000000000000000000000000081526004016122cf90612fe0565b60405180910390fd5b600480811115612311577f4e487b7100000000000000000000000000000000000000000000000000000000600052602160045260246000fd5b81600481111561234a577f4e487b7100000000000000000000000000000000000000000000000000000000600052602160045260246000fd5b141561238b576040517f08c379a000000000000000000000000000000000000000000000000000000000815260040161238290613020565b60405180910390fd5b5b50565b6000807f7fffffffffffffffffffffffffffffff5d576e7357a4501ddfe92f46681b20a08360001c11156123ca576000600391509150612493565b601b8560ff16141580156123e25750601c8560ff1614155b156123f4576000600491509150612493565b6000600187878787604051600081526020016040526040516124199493929190612e79565b6020604051602081039080840390855afa15801561243b573d6000803e3d6000fd5b505050602060405103519050600073ffffffffffffffffffffffffffffffffffffffff168173ffffffffffffffffffffffffffffffffffffffff16141561248a57600060019250925050612493565b80600092509250505b94509492505050565b60006124af6124aa84613193565b61316e565b9050828152602081018484840111156124c757600080fd5b6124d284828561338b565b509392505050565b6000813590506124e981613c86565b92915050565b60008083601f84011261250157600080fd5b8235905067ffffffffffffffff81111561251a57600080fd5b6020830191508360a082028301111561253257600080fd5b9250929050565b60008083601f84011261254b57600080fd5b8235905067ffffffffffffffff81111561256457600080fd5b60208301915083602082028301111561257c57600080fd5b9250929050565b60008135905061259281613c9d565b92915050565b6000815190506125a781613c9d565b92915050565b6000813590506125bc81613cb4565b92915050565b6000813590506125d181613ccb565b92915050565b600082601f8301126125e857600080fd5b81356125f884826020860161249c565b91505092915050565b60008135905061261081613ce2565b92915050565b60006020828403121561262857600080fd5b6000612636848285016124da565b91505092915050565b6000806040838503121561265257600080fd5b6000612660858286016124da565b925050602061267185828601612601565b9150509250929050565b6000806020838503121561268e57600080fd5b600083013567ffffffffffffffff8111156126a857600080fd5b6126b4858286016124ef565b92509250509250929050565b600080600080600080600080600060c08a8c0312156126de57600080fd5b60008a013567ffffffffffffffff8111156126f857600080fd5b6127048c828d01612539565b995099505060208a013567ffffffffffffffff81111561272357600080fd5b61272f8c828d01612539565b975097505060408a013567ffffffffffffffff81111561274e57600080fd5b61275a8c828d01612539565b9550955050606061276d8c828d016125ad565b935050608061277e8c828d016125ad565b92505060a08a013567ffffffffffffffff81111561279b57600080fd5b6127a78c828d016125d7565b9150509295985092959850929598565b6000602082840312156127c957600080fd5b60006127d784828501612583565b91505092915050565b6000602082840312156127f257600080fd5b600061280084828501612598565b91505092915050565b60008060006040848603121561281e57600080fd5b600061282c86828701612583565b935050602084013567ffffffffffffffff81111561284957600080fd5b61285586828701612539565b92509250509250925092565b60006020828403121561287357600080fd5b6000612881848285016125ad565b91505092915050565b6000806040838503121561289d57600080fd5b60006128ab858286016125ad565b92505060206128bc858286016124da565b9150509250929050565b6000602082840312156128d857600080fd5b60006128e6848285016125c2565b91505092915050565b60006020828403121561290157600080fd5b600061290f84828501612601565b91505092915050565b612921816132a6565b82525050565b612938612933826132a6565b61351a565b82525050565b600061294a83856131cf565b93507f07ffffffffffffffffffffffffffffffffffffffffffffffffffffffffffffff83111561297957600080fd5b60208302925061298a83858461338b565b82840190509392505050565b61299f816132b8565b82525050565b6129ae816132c4565b82525050565b6129c56129c0826132c4565b61352c565b82525050565b60006129d6826131c4565b6129e081856131da565b93506129f081856020860161339a565b6129f981613606565b840191505092915050565b6000612a0f826131c4565b612a1981856131eb565b9350612a2981856020860161339a565b80840191505092915050565b6000612a426018836131da565b9150612a4d8261363e565b602082019050919050565b6000612a656020836131da565b9150612a7082613667565b602082019050919050565b6000612a886014836131da565b9150612a9382613690565b602082019050919050565b6000612aab601f836131da565b9150612ab6826136b9565b602082019050919050565b6000612ace601c836131eb565b9150612ad9826136e2565b601c82019050919050565b6000612af1602d836131da565b9150612afc8261370b565b604082019050919050565b6000612b146038836131da565b9150612b1f8261375a565b604082019050919050565b6000612b37602a836131da565b9150612b42826137a9565b604082019050919050565b6000612b5a602e836131da565b9150612b65826137f8565b604082019050919050565b6000612b7d6022836131da565b9150612b8882613847565b604082019050919050565b6000612ba06010836131da565b9150612bab82613896565b602082019050919050565b6000612bc36022836131da565b9150612bce826138bf565b604082019050919050565b6000612be66030836131da565b9150612bf18261390e565b604082019050919050565b6000612c09602d836131da565b9150612c148261395d565b604082019050919050565b6000612c2c6025836131da565b9150612c37826139ac565b604082019050919050565b6000612c4f6047836131da565b9150612c5a826139fb565b606082019050919050565b6000612c726017836131eb565b9150612c7d82613a70565b601782019050919050565b6000612c95602b836131da565b9150612ca082613a99565b604082019050919050565b6000612cb86011836131eb565b9150612cc382613ae8565b601182019050919050565b6000612cdb602f836131da565b9150612ce682613b11565b604082019050919050565b612cfa8161331a565b82525050565b612d0981613324565b82525050565b6000612d1b828b612927565b601482019150612d2c82898b61293e565b9150612d3982878961293e565b9150612d4682858761293e565b9150612d5282846129b4565b6020820191508190509998505050505050505050565b6000612d7382612ac1565b9150612d7f82846129b4565b60208201915081905092915050565b6000612d9982612c65565b9150612da58285612a04565b9150612db082612cab565b9150612dbc8284612a04565b91508190509392505050565b6000602082019050612ddd6000830184612918565b92915050565b6000606082019050612df86000830186612918565b612e056020830185612918565b612e126040830184612cf1565b949350505050565b6000604082019050612e2f6000830185612918565b612e3c6020830184612cf1565b9392505050565b6000602082019050612e586000830184612996565b92915050565b6000602082019050612e7360008301846129a5565b92915050565b6000608082019050612e8e60008301876129a5565b612e9b6020830186612d00565b612ea860408301856129a5565b612eb560608301846129a5565b95945050505050565b60006020820190508181036000830152612ed881846129cb565b905092915050565b60006020820190508181036000830152612ef981612a35565b9050919050565b60006020820190508181036000830152612f1981612a58565b9050919050565b60006020820190508181036000830152612f3981612a7b565b9050919050565b60006020820190508181036000830152612f5981612a9e565b9050919050565b60006020820190508181036000830152612f7981612ae4565b9050919050565b60006020820190508181036000830152612f9981612b07565b9050919050565b60006020820190508181036000830152612fb981612b2a565b9050919050565b60006020820190508181036000830152612fd981612b4d565b9050919050565b60006020820190508181036000830152612ff981612b70565b9050919050565b6000602082019050818103600083015261301981612b93565b9050919050565b6000602082019050818103600083015261303981612bb6565b9050919050565b6000602082019050818103600083015261305981612bd9565b9050919050565b6000602082019050818103600083015261307981612bfc565b9050919050565b6000602082019050818103600083015261309981612c1f565b9050919050565b600060208201905081810360008301526130b981612c42565b9050919050565b600060208201905081810360008301526130d981612c88565b9050919050565b600060208201905081810360008301526130f981612cce565b9050919050565b60006020820190506131156000830184612cf1565b92915050565b600060a0820190506131306000830188612cf1565b61313d6020830187612cf1565b61314a6040830186612cf1565b6131576060830185612918565b6131646080830184612996565b9695505050505050565b6000613178613189565b905061318482826134a0565b919050565b6000604051905090565b600067ffffffffffffffff8211156131ae576131ad613577565b5b6131b782613606565b9050602081019050919050565b600081519050919050565b600081905092915050565b600082825260208201905092915050565b600081905092915050565b60006132018261331a565b915061320c8361331a565b9250827fffffffffffffffffffffffffffffffffffffffffffffffffffffffffffffffff0382111561324157613240613548565b5b828201905092915050565b60006132578261331a565b91506132628361331a565b9250817fffffffffffffffffffffffffffffffffffffffffffffffffffffffffffffffff048311821515161561329b5761329a613548565b5b828202905092915050565b60006132b1826132fa565b9050919050565b60008115159050919050565b6000819050919050565b60007fffffffff0000000000000000000000000000000000000000000000000000000082169050919050565b600073ffffffffffffffffffffffffffffffffffffffff82169050919050565b6000819050919050565b600060ff82169050919050565b600061333c82613355565b9050919050565b600061334e826132b8565b9050919050565b600061336082613367565b9050919050565b6000613372826132fa565b9050919050565b60006133848261331a565b9050919050565b82818337600083830152505050565b60005b838110156133b857808201518184015260208101905061339d565b838111156133c7576000848401525b50505050565b6000810160008301806133df816135f0565b90506133eb8184613c40565b505050600181016020830180613400816135f0565b905061340c8184613c40565b505050600281016040830180613421816135f0565b905061342d8184613c40565b505050600381016060830180613442816135c4565b905061344e8184613c0f565b505050600381016080830180613463816135da565b905061346f8184613c63565b5050505050565b60006134818261331a565b9150600082141561349557613494613548565b5b600182039050919050565b6134a982613606565b810181811067ffffffffffffffff821117156134c8576134c7613577565b5b80604052505050565b60006134dc8261331a565b91507fffffffffffffffffffffffffffffffffffffffffffffffffffffffffffffffff82141561350f5761350e613548565b5b600182019050919050565b600061352582613536565b9050919050565b6000819050919050565b600061354182613631565b9050919050565b7f4e487b7100000000000000000000000000000000000000000000000000000000600052601160045260246000fd5b7f4e487b7100000000000000000000000000000000000000000000000000000000600052604160045260246000fd5b6000819050919050565b6000819050919050565b6000819050919050565b600081356135d181613c86565b80915050919050565b600081356135e781613c9d565b80915050919050565b600081356135fd81613ce2565b80915050919050565b6000601f19601f8301169050919050565b60008160001b9050919050565b60008160a01b9050919050565b60008160601b9050919050565b7f45434453413a20696e76616c6964207369676e61747572650000000000000000600082015250565b7f537472696e67733a20686578206c656e67746820696e73756666696369656e74600082015250565b7f5061757361626c653a206e6f7420706175736564000000000000000000000000600082015250565b7f45434453413a20696e76616c6964207369676e6174757265206c656e67746800600082015250565b7f19457468657265756d205369676e6564204d6573736167653a0a333200000000600082015250565b7f496e47616d6541737365744d61726b6574706c6163653a204172726179206c6560008201527f6e677468206d69736d6174636800000000000000000000000000000000000000602082015250565b7f496e47616d6541737365744d61726b6574706c6163653a204d6573736167652060008201527f776173206e6f74207369676e6564206279207369676e65720000000000000000602082015250565b7f496e47616d6541737365744d61726b6574706c6163653a20455448207072696360008201527f65206d69736d6174636800000000000000000000000000000000000000000000602082015250565b7f496e47616d6541737365744d61726b6574706c6163653a204e6f6e636520776160008201527f7320616c72656164792075736564000000000000000000000000000000000000602082015250565b7f45434453413a20696e76616c6964207369676e6174757265202773272076616c60008201527f7565000000000000000000000000000000000000000000000000000000000000602082015250565b7f5061757361626c653a2070617573656400000000000000000000000000000000600082015250565b7f45434453413a20696e76616c6964207369676e6174757265202776272076616c60008201527f7565000000000000000000000000000000000000000000000000000000000000602082015250565b7f496e47616d6541737365744d61726b6574706c6163653a2043616e6e6f74207060008201527f7572636861736520302061737365747300000000000000000000000000000000602082015250565b7f496e47616d6541737365744d61726b6574706c6163653a204e6f20617373657460008201527f7320746f20707572636861736500000000000000000000000000000000000000602082015250565b7f496e47616d6541737365744d61726b6574706c6163653a2048617368206d697360008201527f6d61746368000000000000000000000000000000000000000000000000000000602082015250565b7f496e47616d6541737365744d61726b6574706c6163653a205072696365206d7560008201527f737420626520646566696e656420696e2065697468657220616e20455243323060208201527f206f722045544800000000000000000000000000000000000000000000000000604082015250565b7f416363657373436f6e74726f6c3a206163636f756e7420000000000000000000600082015250565b7f496e47616d6541737365744d61726b6574706c6163653a20417373657420697360008201527f206e6f7420616374697665000000000000000000000000000000000000000000602082015250565b7f206973206d697373696e6720726f6c6520000000000000000000000000000000600082015250565b7f416363657373436f6e74726f6c3a2063616e206f6e6c792072656e6f756e636560008201527f20726f6c657320666f722073656c660000000000000000000000000000000000602082015250565b600074ff0000000000000000000000000000000000000000613b8184613624565b9350801983169250808416831791505092915050565b600073ffffffffffffffffffffffffffffffffffffffff613bb784613617565b9350801983169250808416831791505092915050565b60007fffffffffffffffffffffffffffffffffffffffffffffffffffffffffffffffff613bf984613617565b9350801983169250808416831791505092915050565b613c1882613331565b613c2b613c24826135a6565b8354613b97565b8255505050565b613c3c82826133cd565b5050565b613c4982613379565b613c5c613c55826135ba565b8354613bcd565b8255505050565b613c6c82613343565b613c7f613c78826135b0565b8354613b60565b8255505050565b613c8f816132a6565b8114613c9a57600080fd5b50565b613ca6816132b8565b8114613cb157600080fd5b50565b613cbd816132c4565b8114613cc857600080fd5b50565b613cd4816132ce565b8114613cdf57600080fd5b50565b613ceb8161331a565b8114613cf657600080fd5b5056fea2646970667358221220fef7022f592de7654815e2b08504ac08bdf4d4eeb8aa0dfa6f7dea7688dc842264736f6c63430008040033",
  "devdoc": {
    "kind": "dev",
    "methods": {
      "getRoleAdmin(bytes32)": {
        "details": "Returns the admin role that controls `role`. See {grantRole} and {revokeRole}. To change a role's admin, use {_setRoleAdmin}."
      },
      "getTrustedForwarder()": {
        "returns": {
          "forwarder": "The address of the Forwarder contract that is being used."
        }
      },
      "grantRole(bytes32,address)": {
        "details": "Grants `role` to `account`. If `account` had not been already granted `role`, emits a {RoleGranted} event. Requirements: - the caller must have ``role``'s admin role. May emit a {RoleGranted} event."
      },
      "hasRole(bytes32,address)": {
        "details": "Returns `true` if `account` has been granted `role`."
      },
      "isTrustedForwarder(address)": {
        "params": {
          "forwarder": "The address of the Forwarder contract that is being used."
        },
        "returns": {
          "_0": "isTrustedForwarder `true` if the Forwarder is trusted to forward relayed transactions by this Recipient."
        }
      },
      "paused()": {
        "details": "Returns true if the contract is paused, and false otherwise."
      },
      "renounceRole(bytes32,address)": {
        "details": "Revokes `role` from the calling account. Roles are often managed via {grantRole} and {revokeRole}: this function's purpose is to provide a mechanism for accounts to lose their privileges if they are compromised (such as when a trusted device is misplaced). If the calling account had been revoked `role`, emits a {RoleRevoked} event. Requirements: - the caller must be `account`. May emit a {RoleRevoked} event."
      },
      "revokeRole(bytes32,address)": {
        "details": "Revokes `role` from `account`. If `account` had been granted `role`, emits a {RoleRevoked} event. Requirements: - the caller must have ``role``'s admin role. May emit a {RoleRevoked} event."
      },
      "supportsInterface(bytes4)": {
        "details": "See {IERC165-supportsInterface}."
      }
    },
    "version": 1
  },
  "userdoc": {
    "kind": "user",
    "methods": {
      "getTrustedForwarder()": {
        "notice": ":warning: **Warning** :warning: The Forwarder can have a full control over your Recipient. Only trust verified Forwarder.Method is not a required method to allow Recipients to trust multiple Forwarders. Not recommended yet."
      },
      "isTrustedForwarder(address)": {
        "notice": ":warning: **Warning** :warning: The Forwarder can have a full control over your Recipient. Only trust verified Forwarder."
      }
    },
    "version": 1
  },
  "storageLayout": {
    "storage": [
      {
        "astId": 151,
        "contract": "contracts/Marketplace/InGameAssetMarketplace.sol:InGameAssetMarketplace",
        "label": "_roles",
        "offset": 0,
        "slot": "0",
        "type": "t_mapping(t_bytes32,t_struct(RoleData)146_storage)"
      },
      {
        "astId": 537,
        "contract": "contracts/Marketplace/InGameAssetMarketplace.sol:InGameAssetMarketplace",
        "label": "_paused",
        "offset": 0,
        "slot": "1",
        "type": "t_bool"
      },
      {
        "astId": 7,
        "contract": "contracts/Marketplace/InGameAssetMarketplace.sol:InGameAssetMarketplace",
        "label": "_trustedForwarder",
        "offset": 1,
        "slot": "1",
        "type": "t_address"
      },
      {
        "astId": 1441,
        "contract": "contracts/Marketplace/InGameAssetMarketplace.sol:InGameAssetMarketplace",
        "label": "assetMap",
        "offset": 0,
        "slot": "2",
        "type": "t_mapping(t_uint256,t_struct(Asset)1420_storage)"
      },
      {
        "astId": 1445,
        "contract": "contracts/Marketplace/InGameAssetMarketplace.sol:InGameAssetMarketplace",
        "label": "_nonces",
        "offset": 0,
        "slot": "3",
        "type": "t_mapping(t_bytes32,t_bool)"
      },
      {
        "astId": 1447,
        "contract": "contracts/Marketplace/InGameAssetMarketplace.sol:InGameAssetMarketplace",
        "label": "_signer",
        "offset": 0,
        "slot": "4",
        "type": "t_address"
      }
    ],
    "types": {
      "t_address": {
        "encoding": "inplace",
        "label": "address",
        "numberOfBytes": "20"
      },
      "t_bool": {
        "encoding": "inplace",
        "label": "bool",
        "numberOfBytes": "1"
      },
      "t_bytes32": {
        "encoding": "inplace",
        "label": "bytes32",
        "numberOfBytes": "32"
      },
      "t_mapping(t_address,t_bool)": {
        "encoding": "mapping",
        "key": "t_address",
        "label": "mapping(address => bool)",
        "numberOfBytes": "32",
        "value": "t_bool"
      },
      "t_mapping(t_bytes32,t_bool)": {
        "encoding": "mapping",
        "key": "t_bytes32",
        "label": "mapping(bytes32 => bool)",
        "numberOfBytes": "32",
        "value": "t_bool"
      },
      "t_mapping(t_bytes32,t_struct(RoleData)146_storage)": {
        "encoding": "mapping",
        "key": "t_bytes32",
        "label": "mapping(bytes32 => struct AccessControl.RoleData)",
        "numberOfBytes": "32",
        "value": "t_struct(RoleData)146_storage"
      },
      "t_mapping(t_uint256,t_struct(Asset)1420_storage)": {
        "encoding": "mapping",
        "key": "t_uint256",
        "label": "mapping(uint256 => struct InGameAssetMarketplace.Asset)",
        "numberOfBytes": "32",
        "value": "t_struct(Asset)1420_storage"
      },
      "t_struct(Asset)1420_storage": {
        "encoding": "inplace",
        "label": "struct InGameAssetMarketplace.Asset",
        "members": [
          {
            "astId": 1411,
            "contract": "contracts/Marketplace/InGameAssetMarketplace.sol:InGameAssetMarketplace",
            "label": "assetId",
            "offset": 0,
            "slot": "0",
            "type": "t_uint256"
          },
          {
            "astId": 1413,
            "contract": "contracts/Marketplace/InGameAssetMarketplace.sol:InGameAssetMarketplace",
            "label": "ethPrice",
            "offset": 0,
            "slot": "1",
            "type": "t_uint256"
          },
          {
            "astId": 1415,
            "contract": "contracts/Marketplace/InGameAssetMarketplace.sol:InGameAssetMarketplace",
            "label": "erc20Price",
            "offset": 0,
            "slot": "2",
            "type": "t_uint256"
          },
          {
            "astId": 1417,
            "contract": "contracts/Marketplace/InGameAssetMarketplace.sol:InGameAssetMarketplace",
            "label": "erc20Address",
            "offset": 0,
            "slot": "3",
            "type": "t_address"
          },
          {
            "astId": 1419,
            "contract": "contracts/Marketplace/InGameAssetMarketplace.sol:InGameAssetMarketplace",
            "label": "active",
            "offset": 20,
            "slot": "3",
            "type": "t_bool"
          }
        ],
        "numberOfBytes": "128"
      },
      "t_struct(RoleData)146_storage": {
        "encoding": "inplace",
        "label": "struct AccessControl.RoleData",
        "members": [
          {
            "astId": 143,
            "contract": "contracts/Marketplace/InGameAssetMarketplace.sol:InGameAssetMarketplace",
            "label": "members",
            "offset": 0,
            "slot": "0",
            "type": "t_mapping(t_address,t_bool)"
          },
          {
            "astId": 145,
            "contract": "contracts/Marketplace/InGameAssetMarketplace.sol:InGameAssetMarketplace",
            "label": "adminRole",
            "offset": 0,
            "slot": "1",
            "type": "t_bytes32"
          }
        ],
        "numberOfBytes": "64"
      },
      "t_uint256": {
        "encoding": "inplace",
        "label": "uint256",
        "numberOfBytes": "32"
      }
    }
  }
}