{
  "address": "0xBBf795074A41E39190E49Fa22E99Badf53350225",
  "abi": [
    {
      "anonymous": false,
      "inputs": [
        {
          "indexed": true,
          "internalType": "address",
          "name": "owner",
          "type": "address"
        },
        {
          "indexed": true,
          "internalType": "address",
          "name": "approved",
          "type": "address"
        },
        {
          "indexed": true,
          "internalType": "uint256",
          "name": "tokenId",
          "type": "uint256"
        }
      ],
      "name": "Approval",
      "type": "event"
    },
    {
      "anonymous": false,
      "inputs": [
        {
          "indexed": true,
          "internalType": "address",
          "name": "owner",
          "type": "address"
        },
        {
          "indexed": true,
          "internalType": "address",
          "name": "operator",
          "type": "address"
        },
        {
          "indexed": false,
          "internalType": "bool",
          "name": "approved",
          "type": "bool"
        }
      ],
      "name": "ApprovalForAll",
      "type": "event"
    },
    {
      "anonymous": false,
      "inputs": [
        {
          "indexed": false,
          "internalType": "uint8",
          "name": "version",
          "type": "uint8"
        }
      ],
      "name": "Initialized",
      "type": "event"
    },
    {
      "anonymous": false,
      "inputs": [
        {
          "indexed": true,
          "internalType": "uint256",
          "name": "itemId",
          "type": "uint256"
        },
        {
          "indexed": true,
          "internalType": "uint256",
          "name": "itemSeriesId",
          "type": "uint256"
        },
        {
          "indexed": false,
          "internalType": "uint256",
          "name": "startingTokenId",
          "type": "uint256"
        },
        {
          "indexed": false,
          "internalType": "uint256",
          "name": "editionSize",
          "type": "uint256"
        }
      ],
      "name": "ItemSeriesAdded",
      "type": "event"
    },
    {
      "anonymous": false,
      "inputs": [
        {
          "indexed": false,
          "internalType": "address",
          "name": "account",
          "type": "address"
        }
      ],
      "name": "Paused",
      "type": "event"
    },
    {
      "anonymous": false,
      "inputs": [
        {
          "indexed": true,
          "internalType": "bytes32",
          "name": "role",
          "type": "bytes32"
        },
        {
          "indexed": true,
          "internalType": "bytes32",
          "name": "previousAdminRole",
          "type": "bytes32"
        },
        {
          "indexed": true,
          "internalType": "bytes32",
          "name": "newAdminRole",
          "type": "bytes32"
        }
      ],
      "name": "RoleAdminChanged",
      "type": "event"
    },
    {
      "anonymous": false,
      "inputs": [
        {
          "indexed": true,
          "internalType": "bytes32",
          "name": "role",
          "type": "bytes32"
        },
        {
          "indexed": true,
          "internalType": "address",
          "name": "account",
          "type": "address"
        },
        {
          "indexed": true,
          "internalType": "address",
          "name": "sender",
          "type": "address"
        }
      ],
      "name": "RoleGranted",
      "type": "event"
    },
    {
      "anonymous": false,
      "inputs": [
        {
          "indexed": true,
          "internalType": "bytes32",
          "name": "role",
          "type": "bytes32"
        },
        {
          "indexed": true,
          "internalType": "address",
          "name": "account",
          "type": "address"
        },
        {
          "indexed": true,
          "internalType": "address",
          "name": "sender",
          "type": "address"
        }
      ],
      "name": "RoleRevoked",
      "type": "event"
    },
    {
      "anonymous": false,
      "inputs": [
        {
          "indexed": true,
          "internalType": "address",
          "name": "from",
          "type": "address"
        },
        {
          "indexed": true,
          "internalType": "address",
          "name": "to",
          "type": "address"
        },
        {
          "indexed": true,
          "internalType": "uint256",
          "name": "tokenId",
          "type": "uint256"
        }
      ],
      "name": "Transfer",
      "type": "event"
    },
    {
      "anonymous": false,
      "inputs": [
        {
          "indexed": false,
          "internalType": "address",
          "name": "account",
          "type": "address"
        }
      ],
      "name": "Unpaused",
      "type": "event"
    },
    {
      "inputs": [],
      "name": "DEFAULT_ADMIN_ROLE",
      "outputs": [
        {
          "internalType": "bytes32",
          "name": "",
          "type": "bytes32"
        }
      ],
      "stateMutability": "view",
      "type": "function"
    },
    {
      "inputs": [],
      "name": "ITEM_ADMIN_ROLE",
      "outputs": [
        {
          "internalType": "bytes32",
          "name": "",
          "type": "bytes32"
        }
      ],
      "stateMutability": "view",
      "type": "function"
    },
    {
      "inputs": [],
      "name": "MINTER_ROLE",
      "outputs": [
        {
          "internalType": "bytes32",
          "name": "",
          "type": "bytes32"
        }
      ],
      "stateMutability": "view",
      "type": "function"
    },
    {
      "inputs": [],
      "name": "PAUSER_ROLE",
      "outputs": [
        {
          "internalType": "bytes32",
          "name": "",
          "type": "bytes32"
        }
      ],
      "stateMutability": "view",
      "type": "function"
    },
    {
      "inputs": [
        {
          "internalType": "address",
          "name": "to",
          "type": "address"
        },
        {
          "internalType": "uint256",
          "name": "tokenId",
          "type": "uint256"
        }
      ],
      "name": "approve",
      "outputs": [],
      "stateMutability": "nonpayable",
      "type": "function"
    },
    {
      "inputs": [
        {
          "internalType": "address",
          "name": "owner",
          "type": "address"
        }
      ],
      "name": "balanceOf",
      "outputs": [
        {
          "internalType": "uint256",
          "name": "",
          "type": "uint256"
        }
      ],
      "stateMutability": "view",
      "type": "function"
    },
    {
      "inputs": [],
      "name": "baseURI",
      "outputs": [
        {
          "internalType": "string",
          "name": "",
          "type": "string"
        }
      ],
      "stateMutability": "view",
      "type": "function"
    },
    {
      "inputs": [
        {
          "internalType": "uint256",
          "name": "tokenId",
          "type": "uint256"
        }
      ],
      "name": "burn",
      "outputs": [],
      "stateMutability": "nonpayable",
      "type": "function"
    },
    {
      "inputs": [
        {
          "internalType": "uint256",
          "name": "tokenId",
          "type": "uint256"
        }
      ],
      "name": "getApproved",
      "outputs": [
        {
          "internalType": "address",
          "name": "",
          "type": "address"
        }
      ],
      "stateMutability": "view",
      "type": "function"
    },
    {
      "inputs": [
        {
          "internalType": "uint256",
          "name": "itemId",
          "type": "uint256"
        }
      ],
      "name": "getItem",
      "outputs": [
        {
          "components": [
            {
              "internalType": "uint256",
              "name": "itemId",
              "type": "uint256"
            },
            {
              "internalType": "uint256",
              "name": "itemType",
              "type": "uint256"
            },
            {
              "internalType": "uint256",
              "name": "slots",
              "type": "uint256"
            }
          ],
          "internalType": "struct IInGameItems.Item",
          "name": "",
          "type": "tuple"
        }
      ],
      "stateMutability": "view",
      "type": "function"
    },
    {
      "inputs": [
        {
          "internalType": "uint256",
          "name": "itemId",
          "type": "uint256"
        },
        {
          "internalType": "uint256",
          "name": "itemSeriesId",
          "type": "uint256"
        }
      ],
      "name": "getItemSeries",
      "outputs": [
        {
          "components": [
            {
              "internalType": "uint256",
              "name": "itemId",
              "type": "uint256"
            },
            {
              "internalType": "uint256",
              "name": "itemSeriesId",
              "type": "uint256"
            },
            {
              "internalType": "uint256",
              "name": "itemType",
              "type": "uint256"
            },
            {
              "internalType": "uint256",
              "name": "slots",
              "type": "uint256"
            },
            {
              "internalType": "uint256",
              "name": "startingTokenId",
              "type": "uint256"
            },
            {
              "internalType": "uint256",
              "name": "editionSize",
              "type": "uint256"
            },
            {
              "internalType": "uint256",
              "name": "minted",
              "type": "uint256"
            }
          ],
          "internalType": "struct IInGameItems.ItemSeriesOut",
          "name": "",
          "type": "tuple"
        }
      ],
      "stateMutability": "view",
      "type": "function"
    },
    {
      "inputs": [
        {
          "internalType": "bytes32",
          "name": "role",
          "type": "bytes32"
        }
      ],
      "name": "getRoleAdmin",
      "outputs": [
        {
          "internalType": "bytes32",
          "name": "",
          "type": "bytes32"
        }
      ],
      "stateMutability": "view",
      "type": "function"
    },
    {
      "inputs": [],
      "name": "getTrustedForwarder",
      "outputs": [
        {
          "internalType": "address",
          "name": "forwarder",
          "type": "address"
        }
      ],
      "stateMutability": "view",
      "type": "function"
    },
    {
      "inputs": [
        {
          "internalType": "bytes32",
          "name": "role",
          "type": "bytes32"
        },
        {
          "internalType": "address",
          "name": "account",
          "type": "address"
        }
      ],
      "name": "grantRole",
      "outputs": [],
      "stateMutability": "nonpayable",
      "type": "function"
    },
    {
      "inputs": [
        {
          "internalType": "bytes32",
          "name": "role",
          "type": "bytes32"
        },
        {
          "internalType": "address",
          "name": "account",
          "type": "address"
        }
      ],
      "name": "hasRole",
      "outputs": [
        {
          "internalType": "bool",
          "name": "",
          "type": "bool"
        }
      ],
      "stateMutability": "view",
      "type": "function"
    },
    {
      "inputs": [
        {
          "internalType": "string",
          "name": "_name",
          "type": "string"
        },
        {
          "internalType": "string",
          "name": "_symbol",
          "type": "string"
        },
        {
          "internalType": "address",
          "name": "admin",
          "type": "address"
        },
        {
          "internalType": "address",
          "name": "pauser",
          "type": "address"
        },
        {
          "internalType": "address",
          "name": "minter",
          "type": "address"
        },
        {
          "internalType": "address",
          "name": "itemAdmin",
          "type": "address"
        },
        {
          "internalType": "address",
          "name": "trustedForwarder_",
          "type": "address"
        },
        {
          "internalType": "string",
          "name": "baseURI_",
          "type": "string"
        }
      ],
      "name": "initialize",
      "outputs": [],
      "stateMutability": "nonpayable",
      "type": "function"
    },
    {
      "inputs": [
        {
          "internalType": "address",
          "name": "owner",
          "type": "address"
        },
        {
          "internalType": "address",
          "name": "operator",
          "type": "address"
        }
      ],
      "name": "isApprovedForAll",
      "outputs": [
        {
          "internalType": "bool",
          "name": "",
          "type": "bool"
        }
      ],
      "stateMutability": "view",
      "type": "function"
    },
    {
      "inputs": [
        {
          "internalType": "address",
          "name": "forwarder",
          "type": "address"
        }
      ],
      "name": "isTrustedForwarder",
      "outputs": [
        {
          "internalType": "bool",
          "name": "",
          "type": "bool"
        }
      ],
      "stateMutability": "view",
      "type": "function"
    },
    {
      "inputs": [
        {
          "internalType": "uint256",
          "name": "",
          "type": "uint256"
        },
        {
          "internalType": "uint256",
          "name": "",
          "type": "uint256"
        }
      ],
      "name": "itemSeriesMap",
      "outputs": [
        {
          "internalType": "uint256",
          "name": "itemId",
          "type": "uint256"
        },
        {
          "internalType": "uint256",
          "name": "itemSeriesId",
          "type": "uint256"
        },
        {
          "internalType": "uint256",
          "name": "startingTokenId",
          "type": "uint256"
        },
        {
          "internalType": "uint256",
          "name": "editionSize",
          "type": "uint256"
        },
        {
          "internalType": "uint256",
          "name": "minted",
          "type": "uint256"
        }
      ],
      "stateMutability": "view",
      "type": "function"
    },
    {
      "inputs": [
        {
          "internalType": "uint256",
          "name": "",
          "type": "uint256"
        }
      ],
      "name": "items",
      "outputs": [
        {
          "internalType": "uint256",
          "name": "itemId",
          "type": "uint256"
        },
        {
          "internalType": "uint256",
          "name": "itemType",
          "type": "uint256"
        },
        {
          "internalType": "uint256",
          "name": "slots",
          "type": "uint256"
        }
      ],
      "stateMutability": "view",
      "type": "function"
    },
    {
      "inputs": [],
      "name": "lastOccupiedTokenId",
      "outputs": [
        {
          "internalType": "uint256",
          "name": "",
          "type": "uint256"
        }
      ],
      "stateMutability": "view",
      "type": "function"
    },
    {
      "inputs": [
        {
          "internalType": "address",
          "name": "to",
          "type": "address"
        },
        {
          "internalType": "uint256[]",
          "name": "itemIds",
          "type": "uint256[]"
        },
        {
          "internalType": "uint256[]",
          "name": "itemSeriesIds",
          "type": "uint256[]"
        },
        {
          "internalType": "uint256[]",
          "name": "qtys",
          "type": "uint256[]"
        }
      ],
      "name": "mint",
      "outputs": [],
      "stateMutability": "nonpayable",
      "type": "function"
    },
    {
      "inputs": [],
      "name": "name",
      "outputs": [
        {
          "internalType": "string",
          "name": "",
          "type": "string"
        }
      ],
      "stateMutability": "view",
      "type": "function"
    },
    {
      "inputs": [
        {
          "internalType": "uint256",
          "name": "tokenId",
          "type": "uint256"
        }
      ],
      "name": "ownerOf",
      "outputs": [
        {
          "internalType": "address",
          "name": "",
          "type": "address"
        }
      ],
      "stateMutability": "view",
      "type": "function"
    },
    {
      "inputs": [],
      "name": "pause",
      "outputs": [],
      "stateMutability": "nonpayable",
      "type": "function"
    },
    {
      "inputs": [],
      "name": "paused",
      "outputs": [
        {
          "internalType": "bool",
          "name": "",
          "type": "bool"
        }
      ],
      "stateMutability": "view",
      "type": "function"
    },
    {
      "inputs": [
        {
          "internalType": "bytes32",
          "name": "role",
          "type": "bytes32"
        },
        {
          "internalType": "address",
          "name": "account",
          "type": "address"
        }
      ],
      "name": "renounceRole",
      "outputs": [],
      "stateMutability": "nonpayable",
      "type": "function"
    },
    {
      "inputs": [
        {
          "internalType": "bytes32",
          "name": "role",
          "type": "bytes32"
        },
        {
          "internalType": "address",
          "name": "account",
          "type": "address"
        }
      ],
      "name": "revokeRole",
      "outputs": [],
      "stateMutability": "nonpayable",
      "type": "function"
    },
    {
      "inputs": [
        {
          "internalType": "address",
          "name": "from",
          "type": "address"
        },
        {
          "internalType": "address",
          "name": "to",
          "type": "address"
        },
        {
          "internalType": "uint256",
          "name": "tokenId",
          "type": "uint256"
        }
      ],
      "name": "safeTransferFrom",
      "outputs": [],
      "stateMutability": "nonpayable",
      "type": "function"
    },
    {
      "inputs": [
        {
          "internalType": "address",
          "name": "from",
          "type": "address"
        },
        {
          "internalType": "address",
          "name": "to",
          "type": "address"
        },
        {
          "internalType": "uint256",
          "name": "tokenId",
          "type": "uint256"
        },
        {
          "internalType": "bytes",
          "name": "data",
          "type": "bytes"
        }
      ],
      "name": "safeTransferFrom",
      "outputs": [],
      "stateMutability": "nonpayable",
      "type": "function"
    },
    {
      "inputs": [
        {
          "internalType": "address",
          "name": "operator",
          "type": "address"
        },
        {
          "internalType": "bool",
          "name": "approved",
          "type": "bool"
        }
      ],
      "name": "setApprovalForAll",
      "outputs": [],
      "stateMutability": "nonpayable",
      "type": "function"
    },
    {
      "inputs": [
        {
          "internalType": "string",
          "name": "baseURI_",
          "type": "string"
        }
      ],
      "name": "setBaseURI",
      "outputs": [],
      "stateMutability": "nonpayable",
      "type": "function"
    },
    {
      "inputs": [
        {
          "internalType": "address",
          "name": "forwarder",
          "type": "address"
        }
      ],
      "name": "setTrustedForwarder",
      "outputs": [],
      "stateMutability": "nonpayable",
      "type": "function"
    },
    {
      "inputs": [
        {
          "components": [
            {
              "internalType": "uint256",
              "name": "itemId",
              "type": "uint256"
            },
            {
              "internalType": "uint256",
              "name": "itemSeriesId",
              "type": "uint256"
            },
            {
              "internalType": "uint256",
              "name": "editionSize",
              "type": "uint256"
            }
          ],
          "internalType": "struct IInGameItems.ItemSeriesIn[]",
          "name": "itemSeriesIn",
          "type": "tuple[]"
        }
      ],
      "name": "setupItemSeries",
      "outputs": [],
      "stateMutability": "nonpayable",
      "type": "function"
    },
    {
      "inputs": [
        {
          "components": [
            {
              "internalType": "uint256",
              "name": "itemId",
              "type": "uint256"
            },
            {
              "internalType": "uint256",
              "name": "itemType",
              "type": "uint256"
            },
            {
              "internalType": "uint256",
              "name": "slots",
              "type": "uint256"
            }
          ],
          "internalType": "struct IInGameItems.Item[]",
          "name": "itemsIn",
          "type": "tuple[]"
        }
      ],
      "name": "setupItems",
      "outputs": [],
      "stateMutability": "nonpayable",
      "type": "function"
    },
    {
      "inputs": [
        {
          "internalType": "bytes4",
          "name": "interfaceId",
          "type": "bytes4"
        }
      ],
      "name": "supportsInterface",
      "outputs": [
        {
          "internalType": "bool",
          "name": "",
          "type": "bool"
        }
      ],
      "stateMutability": "view",
      "type": "function"
    },
    {
      "inputs": [],
      "name": "symbol",
      "outputs": [
        {
          "internalType": "string",
          "name": "",
          "type": "string"
        }
      ],
      "stateMutability": "view",
      "type": "function"
    },
    {
      "inputs": [
        {
          "internalType": "uint256",
          "name": "tokenId",
          "type": "uint256"
        }
      ],
      "name": "tokenURI",
      "outputs": [
        {
          "internalType": "string",
          "name": "",
          "type": "string"
        }
      ],
      "stateMutability": "view",
      "type": "function"
    },
    {
      "inputs": [
        {
          "internalType": "address",
          "name": "from",
          "type": "address"
        },
        {
          "internalType": "address",
          "name": "to",
          "type": "address"
        },
        {
          "internalType": "uint256",
          "name": "tokenId",
          "type": "uint256"
        }
      ],
      "name": "transferFrom",
      "outputs": [],
      "stateMutability": "nonpayable",
      "type": "function"
    },
    {
      "inputs": [],
      "name": "unpause",
      "outputs": [],
      "stateMutability": "nonpayable",
      "type": "function"
    }
  ],
  "transactionHash": "0x59713ec6119e2fd4987e54a50315d11c87960c5cacd4fd616a1a423de36b5ff8",
  "args": [],
  "numDeployments": 1,
  "solcInputHash": "e35e4c3b2d7cff902033b66798876cc6",
  "bytecode": "0x608060405234801561001057600080fd5b5061580a80620000216000396000f3fe608060405234801561001057600080fd5b50600436106102485760003560e01c80636c0360eb1161013b578063bfb231d2116100b8578063da7422281161007c578063da742228146106f1578063ddf98de11461070d578063e63ab1e91461073d578063e985e9c51461075b578063f03f8d2a1461078b57610248565b8063bfb231d214610637578063c87b56dd14610669578063ce1b815f14610699578063d5391393146106b7578063d547741f146106d557610248565b806391d14854116100ff57806391d148541461059357806395d89b41146105c3578063a217fddf146105e1578063a22cb465146105ff578063b88d4fde1461061b57610248565b80636c0360eb1461050157806370a082311461051f57806377bb28da1461054f578063804baef11461056d5780638456cb591461058957610248565b80633591c1b8116101c957806355f804b31161018d57806355f804b314610449578063572b6c05146104655780635c975abb146104955780636352211e146104b35780636bf80fa3146104e357610248565b80633591c1b8146103cf57806336568abe146103eb5780633f4ba83a1461040757806342842e0e1461041157806342966c681461042d57610248565b80631d05159d116102105780631d05159d1461031b57806323b872dd14610337578063248a9ca3146103535780632f2ff15d146103835780633129e7731461039f57610248565b806301ffc9a71461024d57806306fdde031461027d578063081812fc1461029b578063095ea7b3146102cb57806314d125c6146102e7575b600080fd5b61026760048036038101906102629190613f6a565b6107a7565b60405161027491906147ce565b60405180910390f35b6102856107b9565b604051610292919061481f565b60405180910390f35b6102b560048036038101906102b09190614149565b61084b565b6040516102c29190614767565b60405180910390f35b6102e560048036038101906102e09190613e3f565b610891565b005b61030160048036038101906102fc9190614172565b6109a9565b604051610312959493929190614bf2565b60405180910390f35b61033560048036038101906103309190613d4a565b6109fd565b005b610351600480360381019061034c9190613c80565b610d53565b005b61036d60048036038101906103689190613f05565b610db3565b60405161037a91906147e9565b60405180910390f35b61039d60048036038101906103989190613f2e565b610dd3565b005b6103b960048036038101906103b49190614149565b610df4565b6040516103c69190614b5c565b60405180910390f35b6103e960048036038101906103e49190613ec0565b610ede565b005b61040560048036038101906104009190613f2e565b61104b565b005b61040f6110ce565b005b61042b60048036038101906104269190613c80565b611103565b005b61044760048036038101906104429190614149565b611123565b005b610463600480360381019061045e9190613fbc565b61117f565b005b61047f600480360381019061047a9190613c1b565b6111b6565b60405161048c91906147ce565b60405180910390f35b61049d611210565b6040516104aa91906147ce565b60405180910390f35b6104cd60048036038101906104c89190614149565b611227565b6040516104da9190614767565b60405180910390f35b6104eb6112d9565b6040516104f891906147e9565b60405180910390f35b6105096112fd565b604051610516919061481f565b60405180910390f35b61053960048036038101906105349190613c1b565b61138b565b6040516105469190614b77565b60405180910390f35b610557611443565b6040516105649190614b77565b60405180910390f35b61058760048036038101906105829190613e7b565b61144a565b005b610591611730565b005b6105ad60048036038101906105a89190613f2e565b611765565b6040516105ba91906147ce565b60405180910390f35b6105cb6117d0565b6040516105d8919061481f565b60405180910390f35b6105e9611862565b6040516105f691906147e9565b60405180910390f35b61061960048036038101906106149190613e03565b611869565b005b61063560048036038101906106309190613ccf565b61187f565b005b610651600480360381019061064c9190614149565b6118e1565b60405161066093929190614bbb565b60405180910390f35b610683600480360381019061067e9190614149565b61190c565b604051610690919061481f565b60405180910390f35b6106a1611974565b6040516106ae9190614767565b60405180910390f35b6106bf61199e565b6040516106cc91906147e9565b60405180910390f35b6106ef60048036038101906106ea9190613f2e565b6119c2565b005b61070b60048036038101906107069190613c1b565b6119e3565b005b61072760048036038101906107229190614172565b6119fd565b6040516107349190614b41565b60405180910390f35b610745611bf8565b60405161075291906147e9565b60405180910390f35b61077560048036038101906107709190613c44565b611c1c565b60405161078291906147ce565b60405180910390f35b6107a560048036038101906107a09190613ffd565b611cb0565b005b60006107b282611ea6565b9050919050565b6060606580546107c890614f2d565b80601f01602080910402602001604051908101604052809291908181526020018280546107f490614f2d565b80156108415780601f1061081657610100808354040283529160200191610841565b820191906000526020600020905b81548152906001019060200180831161082457829003601f168201915b5050505050905090565b600061085682611f20565b6069600083815260200190815260200160002060009054906101000a900473ffffffffffffffffffffffffffffffffffffffff169050919050565b600061089c82611227565b90508073ffffffffffffffffffffffffffffffffffffffff168373ffffffffffffffffffffffffffffffffffffffff16141561090d576040517f08c379a000000000000000000000000000000000000000000000000000000000815260040161090490614a61565b60405180910390fd5b8073ffffffffffffffffffffffffffffffffffffffff1661092c611f6b565b73ffffffffffffffffffffffffffffffffffffffff16148061095b575061095a81610955611f6b565b611c1c565b5b61099a576040517f08c379a0000000000000000000000000000000000000000000000000000000008152600401610991906149c1565b60405180910390fd5b6109a48383611f7a565b505050565b61012f60205281600052604060002081815481106109c657600080fd5b9060005260206000209060050201600091509150508060000154908060010154908060020154908060030154908060040154905085565b7f9f2df0fed2c77648de5860a4cc508cd0818c85b8b8a1ab4ceeef8d981c8956a6610a2781612033565b8484905087879050148015610a4157508282905087879050145b610a80576040517f08c379a0000000000000000000000000000000000000000000000000000000008152600401610a7790614881565b60405180910390fd5b60005b87879050811015610d4857600061012e60008a8a85818110610ace577f4e487b7100000000000000000000000000000000000000000000000000000000600052603260045260246000fd5b905060200201358152602001908152602001600020600001541415610b28576040517f08c379a0000000000000000000000000000000000000000000000000000000008152600401610b1f90614a21565b60405180910390fd5b600061012f60008a8a85818110610b68577f4e487b7100000000000000000000000000000000000000000000000000000000600052603260045260246000fd5b905060200201358152602001908152602001600020878784818110610bb6577f4e487b7100000000000000000000000000000000000000000000000000000000600052603260045260246000fd5b9050602002013581548110610bf4577f4e487b7100000000000000000000000000000000000000000000000000000000600052603260045260246000fd5b906000526020600020906005020190508060030154858584818110610c42577f4e487b7100000000000000000000000000000000000000000000000000000000600052603260045260246000fd5b905060200201358260040154610c589190614d0f565b1115610c99576040517f08c379a0000000000000000000000000000000000000000000000000000000008152600401610c9090614a01565b60405180910390fd5b60005b858584818110610cd5577f4e487b7100000000000000000000000000000000000000000000000000000000600052603260045260246000fd5b90506020020135811015610d3357600082600401548360020154610cf99190614d0f565b9050826004016000815480929190610d1090614f90565b9190505550610d1f8c82612047565b508080610d2b90614f90565b915050610c9c565b50508080610d4090614f90565b915050610a83565b505050505050505050565b610d64610d5e611f6b565b82612065565b610da3576040517f08c379a0000000000000000000000000000000000000000000000000000000008152600401610d9a90614b01565b60405180910390fd5b610dae8383836120fa565b505050565b600060fc6000838152602001908152602001600020600101549050919050565b610ddc82610db3565b610de581612033565b610def8383612361565b505050565b610dfc6137ff565b60008211610e3f576040517f08c379a0000000000000000000000000000000000000000000000000000000008152600401610e3690614941565b60405180910390fd5b600061012e6000848152602001908152602001600020600001541415610e9a576040517f08c379a0000000000000000000000000000000000000000000000000000000008152600401610e9190614a21565b60405180910390fd5b61012e600083815260200190815260200160002060405180606001604052908160008201548152602001600182015481526020016002820154815250509050919050565b7ffde6e5f8904535afdd31d8e6c4a47bd163483cd64a83082b5df4eaf9c4d86357610f0881612033565b60005b83839050811015611045576000848483818110610f51577f4e487b7100000000000000000000000000000000000000000000000000000000600052603260045260246000fd5b905060600201803603810190610f679190614120565b90506000816000015111610fb0576040517f08c379a0000000000000000000000000000000000000000000000000000000008152600401610fa790614941565b60405180910390fd5b6000816020015111610ff7576040517f08c379a0000000000000000000000000000000000000000000000000000000008152600401610fee90614ae1565b60405180910390fd5b8061012e60008360000151815260200190815260200160002060008201518160000155602082015181600101556040820151816002015590505050808061103d90614f90565b915050610f0b565b50505050565b611053611f6b565b73ffffffffffffffffffffffffffffffffffffffff168173ffffffffffffffffffffffffffffffffffffffff16146110c0576040517f08c379a00000000000000000000000000000000000000000000000000000000081526004016110b790614b21565b60405180910390fd5b6110ca8282612442565b5050565b7f65d7a28e3265b37a6474929f336521b332c1681b933f6cb9f3376673440d862a6110f881612033565b611100612524565b50565b61111e8383836040518060200160405280600081525061187f565b505050565b61113461112e611f6b565b82612065565b611173576040517f08c379a000000000000000000000000000000000000000000000000000000000815260040161116a90614b01565b60405180910390fd5b61117c81612587565b50565b7ffde6e5f8904535afdd31d8e6c4a47bd163483cd64a83082b5df4eaf9c4d863576111a981612033565b6111b2826126a4565b5050565b600060ca60009054906101000a900473ffffffffffffffffffffffffffffffffffffffff1673ffffffffffffffffffffffffffffffffffffffff168273ffffffffffffffffffffffffffffffffffffffff16149050919050565b600060ca60149054906101000a900460ff16905090565b6000806067600084815260200190815260200160002060009054906101000a900473ffffffffffffffffffffffffffffffffffffffff169050600073ffffffffffffffffffffffffffffffffffffffff168173ffffffffffffffffffffffffffffffffffffffff1614156112d0576040517f08c379a00000000000000000000000000000000000000000000000000000000081526004016112c790614a41565b60405180910390fd5b80915050919050565b7ffde6e5f8904535afdd31d8e6c4a47bd163483cd64a83082b5df4eaf9c4d8635781565b60c9805461130a90614f2d565b80601f016020809104026020016040519081016040528092919081815260200182805461133690614f2d565b80156113835780601f1061135857610100808354040283529160200191611383565b820191906000526020600020905b81548152906001019060200180831161136657829003601f168201915b505050505081565b60008073ffffffffffffffffffffffffffffffffffffffff168273ffffffffffffffffffffffffffffffffffffffff1614156113fc576040517f08c379a00000000000000000000000000000000000000000000000000000000081526004016113f390614981565b60405180910390fd5b606860008373ffffffffffffffffffffffffffffffffffffffff1673ffffffffffffffffffffffffffffffffffffffff168152602001908152602001600020549050919050565b6101305481565b7ffde6e5f8904535afdd31d8e6c4a47bd163483cd64a83082b5df4eaf9c4d8635761147481612033565b60005b8383905081101561172a5760008484838181106114bd577f4e487b7100000000000000000000000000000000000000000000000000000000600052603260045260246000fd5b9050606002018036038101906114d391906140f7565b9050600081600001511161151c576040517f08c379a000000000000000000000000000000000000000000000000000000000815260040161151390614941565b60405180910390fd5b600061012e60008360000151815260200190815260200160002060000154141561157b576040517f08c379a000000000000000000000000000000000000000000000000000000000815260040161157290614a21565b60405180910390fd5b806020015161012f60008360000151815260200190815260200160002080549050146115dc576040517f08c379a00000000000000000000000000000000000000000000000000000000081526004016115d390614a81565b60405180910390fd5b806040015161013060008282546115f39190614d0f565b92505081905550611602613820565b60018260400151610130546116179190614df0565b6116219190614d0f565b81604001818152505081604001518160600181815250508160000151816000018181525050816020015181602001818152505061012f60008260000151815260200190815260200160002081908060018154018082558091505060019003906000526020600020906005020160009091909190915060008201518160000155602082015181600101556040820151816002015560608201518160030155608082015181600401555050816020015181600001517f225d1264f0b33a92978ae5df9063dd469692c52b6f3e7647c0a63021cf7c19fa8360400151846060015160405161170d929190614b92565b60405180910390a35050808061172290614f90565b915050611477565b50505050565b7f65d7a28e3265b37a6474929f336521b332c1681b933f6cb9f3376673440d862a61175a81612033565b6117626126be565b50565b600060fc600084815260200190815260200160002060000160008373ffffffffffffffffffffffffffffffffffffffff1673ffffffffffffffffffffffffffffffffffffffff16815260200190815260200160002060009054906101000a900460ff16905092915050565b6060606680546117df90614f2d565b80601f016020809104026020016040519081016040528092919081815260200182805461180b90614f2d565b80156118585780601f1061182d57610100808354040283529160200191611858565b820191906000526020600020905b81548152906001019060200180831161183b57829003601f168201915b5050505050905090565b6000801b81565b61187b611874611f6b565b8383612721565b5050565b61189061188a611f6b565b83612065565b6118cf576040517f08c379a00000000000000000000000000000000000000000000000000000000081526004016118c690614b01565b60405180910390fd5b6118db8484848461288e565b50505050565b61012e6020528060005260406000206000915090508060000154908060010154908060020154905083565b606061191782611f20565b60006119216128ea565b90506000815111611941576040518060200160405280600081525061196c565b8061194b846128f9565b60405160200161195c929190614709565b6040516020818303038152906040525b915050919050565b600060ca60009054906101000a900473ffffffffffffffffffffffffffffffffffffffff16905090565b7f9f2df0fed2c77648de5860a4cc508cd0818c85b8b8a1ab4ceeef8d981c8956a681565b6119cb82610db3565b6119d481612033565b6119de8383612442565b505050565b6000801b6119f081612033565b6119f982612aa6565b5050565b611a0561384f565b600061012e600085815260200190815260200160002060405180606001604052908160008201548152602001600182015481526020016002820154815250509050600081600001511415611a8e576040517f08c379a0000000000000000000000000000000000000000000000000000000008152600401611a8590614a21565b60405180910390fd5b8261012f60008681526020019081526020016000208054905011611ae7576040517f08c379a0000000000000000000000000000000000000000000000000000000008152600401611ade90614aa1565b60405180910390fd5b600061012f60008681526020019081526020016000208481548110611b35577f4e487b7100000000000000000000000000000000000000000000000000000000600052603260045260246000fd5b90600052602060002090600502016040518060a0016040529081600082015481526020016001820154815260200160028201548152602001600382015481526020016004820154815250509050611b8a61384f565b81600001518160000181815250508160200151816020018181525050816040015181608001818152505081606001518160a001818152505081608001518160c00181815250508260200151816040018181525050826040015181606001818152505080935050505092915050565b7f65d7a28e3265b37a6474929f336521b332c1681b933f6cb9f3376673440d862a81565b6000606a60008473ffffffffffffffffffffffffffffffffffffffff1673ffffffffffffffffffffffffffffffffffffffff16815260200190815260200160002060008373ffffffffffffffffffffffffffffffffffffffff1673ffffffffffffffffffffffffffffffffffffffff16815260200190815260200160002060009054906101000a900460ff16905092915050565b60008060019054906101000a900460ff16159050808015611ce15750600160008054906101000a900460ff1660ff16105b80611d0e5750611cf030612aea565b158015611d0d5750600160008054906101000a900460ff1660ff16145b5b611d4d576040517f08c379a0000000000000000000000000000000000000000000000000000000008152600401611d44906149a1565b60405180910390fd5b60016000806101000a81548160ff021916908360ff1602179055508015611d8a576001600060016101000a81548160ff0219169083151502179055505b611d948989612b0d565b611d9d82612b6a565b611da5612bc5565b611db26000801b88612361565b611ddc7f65d7a28e3265b37a6474929f336521b332c1681b933f6cb9f3376673440d862a87612361565b611e067f9f2df0fed2c77648de5860a4cc508cd0818c85b8b8a1ab4ceeef8d981c8956a686612361565b611e307ffde6e5f8904535afdd31d8e6c4a47bd163483cd64a83082b5df4eaf9c4d8635785612361565b611e3983612aa6565b6000610130819055508015611e9b5760008060016101000a81548160ff0219169083151502179055507f7f26b83ff96e1f2b6a682f133852f6798a09c465da95921460cefb38474024986001604051611e929190614804565b60405180910390a15b505050505050505050565b60007f7965db0b000000000000000000000000000000000000000000000000000000007bffffffffffffffffffffffffffffffffffffffffffffffffffffffff1916827bffffffffffffffffffffffffffffffffffffffffffffffffffffffff19161480611f195750611f1882612c1e565b5b9050919050565b611f2981612d00565b611f68576040517f08c379a0000000000000000000000000000000000000000000000000000000008152600401611f5f90614a41565b60405180910390fd5b50565b6000611f75612d6c565b905090565b816069600083815260200190815260200160002060006101000a81548173ffffffffffffffffffffffffffffffffffffffff021916908373ffffffffffffffffffffffffffffffffffffffff160217905550808273ffffffffffffffffffffffffffffffffffffffff16611fed83611227565b73ffffffffffffffffffffffffffffffffffffffff167f8c5be1e5ebec7d5bd14f71427d1e84f3dd0314c0f7b2291e5b200ac8c7c3b92560405160405180910390a45050565b6120448161203f611f6b565b612da3565b50565b612061828260405180602001604052806000815250612e40565b5050565b60008061207183611227565b90508073ffffffffffffffffffffffffffffffffffffffff168473ffffffffffffffffffffffffffffffffffffffff1614806120b357506120b28185611c1c565b5b806120f157508373ffffffffffffffffffffffffffffffffffffffff166120d98461084b565b73ffffffffffffffffffffffffffffffffffffffff16145b91505092915050565b8273ffffffffffffffffffffffffffffffffffffffff1661211a82611227565b73ffffffffffffffffffffffffffffffffffffffff1614612170576040517f08c379a0000000000000000000000000000000000000000000000000000000008152600401612167906148c1565b60405180910390fd5b600073ffffffffffffffffffffffffffffffffffffffff168273ffffffffffffffffffffffffffffffffffffffff1614156121e0576040517f08c379a00000000000000000000000000000000000000000000000000000000081526004016121d790614901565b60405180910390fd5b6121eb838383612e9b565b6121f6600082611f7a565b6001606860008573ffffffffffffffffffffffffffffffffffffffff1673ffffffffffffffffffffffffffffffffffffffff16815260200190815260200160002060008282546122469190614df0565b925050819055506001606860008473ffffffffffffffffffffffffffffffffffffffff1673ffffffffffffffffffffffffffffffffffffffff168152602001908152602001600020600082825461229d9190614d0f565b92505081905550816067600083815260200190815260200160002060006101000a81548173ffffffffffffffffffffffffffffffffffffffff021916908373ffffffffffffffffffffffffffffffffffffffff160217905550808273ffffffffffffffffffffffffffffffffffffffff168473ffffffffffffffffffffffffffffffffffffffff167fddf252ad1be2c89b69c2b068fc378daa952ba7f163c4a11628f55a4df523b3ef60405160405180910390a461235c838383612eb3565b505050565b61236b8282611765565b61243e57600160fc600084815260200190815260200160002060000160008373ffffffffffffffffffffffffffffffffffffffff1673ffffffffffffffffffffffffffffffffffffffff16815260200190815260200160002060006101000a81548160ff0219169083151502179055506123e3611f6b565b73ffffffffffffffffffffffffffffffffffffffff168173ffffffffffffffffffffffffffffffffffffffff16837f2f8788117e7eff1d82e926ec794901d17c78024a50270940304540a733656f0d60405160405180910390a45b5050565b61244c8282611765565b1561252057600060fc600084815260200190815260200160002060000160008373ffffffffffffffffffffffffffffffffffffffff1673ffffffffffffffffffffffffffffffffffffffff16815260200190815260200160002060006101000a81548160ff0219169083151502179055506124c5611f6b565b73ffffffffffffffffffffffffffffffffffffffff168173ffffffffffffffffffffffffffffffffffffffff16837ff6391f5c32d9c69d2a47ea670b442974b53935d1edc7fd64eb21e047a839171b60405160405180910390a45b5050565b61252c612eb8565b600060ca60146101000a81548160ff0219169083151502179055507f5db9ee0a495bf2e6ff9c91a7834c1ba4fdd244a5e8aa4e537bd38aeae4b073aa612570611f6b565b60405161257d9190614767565b60405180910390a1565b600061259282611227565b90506125a081600084612e9b565b6125ab600083611f7a565b6001606860008373ffffffffffffffffffffffffffffffffffffffff1673ffffffffffffffffffffffffffffffffffffffff16815260200190815260200160002060008282546125fb9190614df0565b925050819055506067600083815260200190815260200160002060006101000a81549073ffffffffffffffffffffffffffffffffffffffff021916905581600073ffffffffffffffffffffffffffffffffffffffff168273ffffffffffffffffffffffffffffffffffffffff167fddf252ad1be2c89b69c2b068fc378daa952ba7f163c4a11628f55a4df523b3ef60405160405180910390a46126a081600084612eb3565b5050565b8060c990805190602001906126ba92919061388c565b5050565b6126c6612f01565b600160ca60146101000a81548160ff0219169083151502179055507f62e78cea01bee320cd4e420270b5ea74000d11b0c9f74754ebdbfc544b05a25861270a611f6b565b6040516127179190614767565b60405180910390a1565b8173ffffffffffffffffffffffffffffffffffffffff168373ffffffffffffffffffffffffffffffffffffffff161415612790576040517f08c379a000000000000000000000000000000000000000000000000000000000815260040161278790614921565b60405180910390fd5b80606a60008573ffffffffffffffffffffffffffffffffffffffff1673ffffffffffffffffffffffffffffffffffffffff16815260200190815260200160002060008473ffffffffffffffffffffffffffffffffffffffff1673ffffffffffffffffffffffffffffffffffffffff16815260200190815260200160002060006101000a81548160ff0219169083151502179055508173ffffffffffffffffffffffffffffffffffffffff168373ffffffffffffffffffffffffffffffffffffffff167f17307eab39ab6107e8899845ad3d59bd9653f200f220920489ca2b5937696c318360405161288191906147ce565b60405180910390a3505050565b6128998484846120fa565b6128a584848484612f4b565b6128e4576040517f08c379a00000000000000000000000000000000000000000000000000000000081526004016128db906148a1565b60405180910390fd5b50505050565b60606128f46130e2565b905090565b60606000821415612941576040518060400160405280600181526020017f30000000000000000000000000000000000000000000000000000000000000008152509050612aa1565b600082905060005b6000821461297357808061295c90614f90565b915050600a8261296c9190614d65565b9150612949565b60008167ffffffffffffffff8111156129b5577f4e487b7100000000000000000000000000000000000000000000000000000000600052604160045260246000fd5b6040519080825280601f01601f1916602001820160405280156129e75781602001600182028036833780820191505090505b5090505b60008514612a9a57600182612a009190614df0565b9150600a85612a0f9190614fd9565b6030612a1b9190614d0f565b60f81b818381518110612a57577f4e487b7100000000000000000000000000000000000000000000000000000000600052603260045260246000fd5b60200101907effffffffffffffffffffffffffffffffffffffffffffffffffffffffffffff1916908160001a905350600a85612a939190614d65565b94506129eb565b8093505050505b919050565b8060ca60006101000a81548173ffffffffffffffffffffffffffffffffffffffff021916908373ffffffffffffffffffffffffffffffffffffffff16021790555050565b6000808273ffffffffffffffffffffffffffffffffffffffff163b119050919050565b600060019054906101000a900460ff16612b5c576040517f08c379a0000000000000000000000000000000000000000000000000000000008152600401612b5390614ac1565b60405180910390fd5b612b668282613174565b5050565b600060019054906101000a900460ff16612bb9576040517f08c379a0000000000000000000000000000000000000000000000000000000008152600401612bb090614ac1565b60405180910390fd5b612bc2816131f5565b50565b600060019054906101000a900460ff16612c14576040517f08c379a0000000000000000000000000000000000000000000000000000000008152600401612c0b90614ac1565b60405180910390fd5b612c1c613250565b565b60007f80ac58cd000000000000000000000000000000000000000000000000000000007bffffffffffffffffffffffffffffffffffffffffffffffffffffffff1916827bffffffffffffffffffffffffffffffffffffffffffffffffffffffff19161480612ce957507f5b5e139f000000000000000000000000000000000000000000000000000000007bffffffffffffffffffffffffffffffffffffffffffffffffffffffff1916827bffffffffffffffffffffffffffffffffffffffffffffffffffffffff1916145b80612cf95750612cf8826132bc565b5b9050919050565b60008073ffffffffffffffffffffffffffffffffffffffff166067600084815260200190815260200160002060009054906101000a900473ffffffffffffffffffffffffffffffffffffffff1673ffffffffffffffffffffffffffffffffffffffff1614159050919050565b60006014600036905010158015612d885750612d87336111b6565b5b15612d9c57601436033560601c9050612da0565b3390505b90565b612dad8282611765565b612e3c57612dd28173ffffffffffffffffffffffffffffffffffffffff166014613326565b612de08360001c6020613326565b604051602001612df192919061472d565b6040516020818303038152906040526040517f08c379a0000000000000000000000000000000000000000000000000000000008152600401612e33919061481f565b60405180910390fd5b5050565b612e4a8383613620565b612e576000848484612f4b565b612e96576040517f08c379a0000000000000000000000000000000000000000000000000000000008152600401612e8d906148a1565b60405180910390fd5b505050565b612ea3612f01565b612eae8383836137fa565b505050565b505050565b612ec0611210565b612eff576040517f08c379a0000000000000000000000000000000000000000000000000000000008152600401612ef690614861565b60405180910390fd5b565b612f09611210565b15612f49576040517f08c379a0000000000000000000000000000000000000000000000000000000008152600401612f4090614961565b60405180910390fd5b565b6000612f6c8473ffffffffffffffffffffffffffffffffffffffff16612aea565b156130d5578373ffffffffffffffffffffffffffffffffffffffff1663150b7a02612f95611f6b565b8786866040518563ffffffff1660e01b8152600401612fb79493929190614782565b602060405180830381600087803b158015612fd157600080fd5b505af192505050801561300257506040513d601f19601f82011682018060405250810190612fff9190613f93565b60015b613085573d8060008114613032576040519150601f19603f3d011682016040523d82523d6000602084013e613037565b606091505b5060008151141561307d576040517f08c379a0000000000000000000000000000000000000000000000000000000008152600401613074906148a1565b60405180910390fd5b805181602001fd5b63150b7a0260e01b7bffffffffffffffffffffffffffffffffffffffffffffffffffffffff1916817bffffffffffffffffffffffffffffffffffffffffffffffffffffffff1916149150506130da565b600190505b949350505050565b606060c980546130f190614f2d565b80601f016020809104026020016040519081016040528092919081815260200182805461311d90614f2d565b801561316a5780601f1061313f5761010080835404028352916020019161316a565b820191906000526020600020905b81548152906001019060200180831161314d57829003601f168201915b5050505050905090565b600060019054906101000a900460ff166131c3576040517f08c379a00000000000000000000000000000000000000000000000000000000081526004016131ba90614ac1565b60405180910390fd5b81606590805190602001906131d992919061388c565b5080606690805190602001906131f092919061388c565b505050565b600060019054906101000a900460ff16613244576040517f08c379a000000000000000000000000000000000000000000000000000000000815260040161323b90614ac1565b60405180910390fd5b61324d816126a4565b50565b600060019054906101000a900460ff1661329f576040517f08c379a000000000000000000000000000000000000000000000000000000000815260040161329690614ac1565b60405180910390fd5b600060ca60146101000a81548160ff021916908315150217905550565b60007f01ffc9a7000000000000000000000000000000000000000000000000000000007bffffffffffffffffffffffffffffffffffffffffffffffffffffffff1916827bffffffffffffffffffffffffffffffffffffffffffffffffffffffff1916149050919050565b6060600060028360026133399190614d96565b6133439190614d0f565b67ffffffffffffffff811115613382577f4e487b7100000000000000000000000000000000000000000000000000000000600052604160045260246000fd5b6040519080825280601f01601f1916602001820160405280156133b45781602001600182028036833780820191505090505b5090507f300000000000000000000000000000000000000000000000000000000000000081600081518110613412577f4e487b7100000000000000000000000000000000000000000000000000000000600052603260045260246000fd5b60200101907effffffffffffffffffffffffffffffffffffffffffffffffffffffffffffff1916908160001a9053507f78000000000000000000000000000000000000000000000000000000000000008160018151811061349c577f4e487b7100000000000000000000000000000000000000000000000000000000600052603260045260246000fd5b60200101907effffffffffffffffffffffffffffffffffffffffffffffffffffffffffffff1916908160001a905350600060018460026134dc9190614d96565b6134e69190614d0f565b90505b60018111156135d2577f3031323334353637383961626364656600000000000000000000000000000000600f86166010811061354e577f4e487b7100000000000000000000000000000000000000000000000000000000600052603260045260246000fd5b1a60f81b82828151811061358b577f4e487b7100000000000000000000000000000000000000000000000000000000600052603260045260246000fd5b60200101907effffffffffffffffffffffffffffffffffffffffffffffffffffffffffffff1916908160001a905350600485901c9450806135cb90614f03565b90506134e9565b5060008414613616576040517f08c379a000000000000000000000000000000000000000000000000000000000815260040161360d90614841565b60405180910390fd5b8091505092915050565b600073ffffffffffffffffffffffffffffffffffffffff168273ffffffffffffffffffffffffffffffffffffffff161415613690576040517f08c379a0000000000000000000000000000000000000000000000000000000008152600401613687906149e1565b60405180910390fd5b61369981612d00565b156136d9576040517f08c379a00000000000000000000000000000000000000000000000000000000081526004016136d0906148e1565b60405180910390fd5b6136e560008383612e9b565b6001606860008473ffffffffffffffffffffffffffffffffffffffff1673ffffffffffffffffffffffffffffffffffffffff16815260200190815260200160002060008282546137359190614d0f565b92505081905550816067600083815260200190815260200160002060006101000a81548173ffffffffffffffffffffffffffffffffffffffff021916908373ffffffffffffffffffffffffffffffffffffffff160217905550808273ffffffffffffffffffffffffffffffffffffffff16600073ffffffffffffffffffffffffffffffffffffffff167fddf252ad1be2c89b69c2b068fc378daa952ba7f163c4a11628f55a4df523b3ef60405160405180910390a46137f660008383612eb3565b5050565b505050565b60405180606001604052806000815260200160008152602001600081525090565b6040518060a0016040528060008152602001600081526020016000815260200160008152602001600081525090565b6040518060e00160405280600081526020016000815260200160008152602001600081526020016000815260200160008152602001600081525090565b82805461389890614f2d565b90600052602060002090601f0160209004810192826138ba5760008555613901565b82601f106138d357805160ff1916838001178555613901565b82800160010185558215613901579182015b828111156139005782518255916020019190600101906138e5565b5b50905061390e9190613912565b5090565b5b8082111561392b576000816000905550600101613913565b5090565b600061394261393d84614c6a565b614c45565b90508281526020810184848401111561395a57600080fd5b613965848285614ec1565b509392505050565b600061398061397b84614c9b565b614c45565b90508281526020810184848401111561399857600080fd5b6139a3848285614ec1565b509392505050565b6000813590506139ba81615761565b92915050565b60008083601f8401126139d257600080fd5b8235905067ffffffffffffffff8111156139eb57600080fd5b602083019150836060820283011115613a0357600080fd5b9250929050565b60008083601f840112613a1c57600080fd5b8235905067ffffffffffffffff811115613a3557600080fd5b602083019150836060820283011115613a4d57600080fd5b9250929050565b60008083601f840112613a6657600080fd5b8235905067ffffffffffffffff811115613a7f57600080fd5b602083019150836020820283011115613a9757600080fd5b9250929050565b600081359050613aad81615778565b92915050565b600081359050613ac28161578f565b92915050565b600081359050613ad7816157a6565b92915050565b600081519050613aec816157a6565b92915050565b600082601f830112613b0357600080fd5b8135613b1384826020860161392f565b91505092915050565b600082601f830112613b2d57600080fd5b8135613b3d84826020860161396d565b91505092915050565b600060608284031215613b5857600080fd5b613b626060614c45565b90506000613b7284828501613c06565b6000830152506020613b8684828501613c06565b6020830152506040613b9a84828501613c06565b60408301525092915050565b600060608284031215613bb857600080fd5b613bc26060614c45565b90506000613bd284828501613c06565b6000830152506020613be684828501613c06565b6020830152506040613bfa84828501613c06565b60408301525092915050565b600081359050613c15816157bd565b92915050565b600060208284031215613c2d57600080fd5b6000613c3b848285016139ab565b91505092915050565b60008060408385031215613c5757600080fd5b6000613c65858286016139ab565b9250506020613c76858286016139ab565b9150509250929050565b600080600060608486031215613c9557600080fd5b6000613ca3868287016139ab565b9350506020613cb4868287016139ab565b9250506040613cc586828701613c06565b9150509250925092565b60008060008060808587031215613ce557600080fd5b6000613cf3878288016139ab565b9450506020613d04878288016139ab565b9350506040613d1587828801613c06565b925050606085013567ffffffffffffffff811115613d3257600080fd5b613d3e87828801613af2565b91505092959194509250565b60008060008060008060006080888a031215613d6557600080fd5b6000613d738a828b016139ab565b975050602088013567ffffffffffffffff811115613d9057600080fd5b613d9c8a828b01613a54565b9650965050604088013567ffffffffffffffff811115613dbb57600080fd5b613dc78a828b01613a54565b9450945050606088013567ffffffffffffffff811115613de657600080fd5b613df28a828b01613a54565b925092505092959891949750929550565b60008060408385031215613e1657600080fd5b6000613e24858286016139ab565b9250506020613e3585828601613a9e565b9150509250929050565b60008060408385031215613e5257600080fd5b6000613e60858286016139ab565b9250506020613e7185828601613c06565b9150509250929050565b60008060208385031215613e8e57600080fd5b600083013567ffffffffffffffff811115613ea857600080fd5b613eb4858286016139c0565b92509250509250929050565b60008060208385031215613ed357600080fd5b600083013567ffffffffffffffff811115613eed57600080fd5b613ef985828601613a0a565b92509250509250929050565b600060208284031215613f1757600080fd5b6000613f2584828501613ab3565b91505092915050565b60008060408385031215613f4157600080fd5b6000613f4f85828601613ab3565b9250506020613f60858286016139ab565b9150509250929050565b600060208284031215613f7c57600080fd5b6000613f8a84828501613ac8565b91505092915050565b600060208284031215613fa557600080fd5b6000613fb384828501613add565b91505092915050565b600060208284031215613fce57600080fd5b600082013567ffffffffffffffff811115613fe857600080fd5b613ff484828501613b1c565b91505092915050565b600080600080600080600080610100898b03121561401a57600080fd5b600089013567ffffffffffffffff81111561403457600080fd5b6140408b828c01613b1c565b985050602089013567ffffffffffffffff81111561405d57600080fd5b6140698b828c01613b1c565b975050604061407a8b828c016139ab565b965050606061408b8b828c016139ab565b955050608061409c8b828c016139ab565b94505060a06140ad8b828c016139ab565b93505060c06140be8b828c016139ab565b92505060e089013567ffffffffffffffff8111156140db57600080fd5b6140e78b828c01613b1c565b9150509295985092959890939650565b60006060828403121561410957600080fd5b600061411784828501613b46565b91505092915050565b60006060828403121561413257600080fd5b600061414084828501613ba6565b91505092915050565b60006020828403121561415b57600080fd5b600061416984828501613c06565b91505092915050565b6000806040838503121561418557600080fd5b600061419385828601613c06565b92505060206141a485828601613c06565b9150509250929050565b6141b781614e24565b82525050565b6141c681614e36565b82525050565b6141d581614e42565b82525050565b60006141e682614ccc565b6141f08185614ce2565b9350614200818560208601614ed0565b614209816150c6565b840191505092915050565b61421d81614eaf565b82525050565b600061422e82614cd7565b6142388185614cf3565b9350614248818560208601614ed0565b614251816150c6565b840191505092915050565b600061426782614cd7565b6142718185614d04565b9350614281818560208601614ed0565b80840191505092915050565b600061429a602083614cf3565b91506142a5826150d7565b602082019050919050565b60006142bd601483614cf3565b91506142c882615100565b602082019050919050565b60006142e0602283614cf3565b91506142eb82615129565b604082019050919050565b6000614303603283614cf3565b915061430e82615178565b604082019050919050565b6000614326602583614cf3565b9150614331826151c7565b604082019050919050565b6000614349601c83614cf3565b915061435482615216565b602082019050919050565b600061436c602483614cf3565b91506143778261523f565b604082019050919050565b600061438f601983614cf3565b915061439a8261528e565b602082019050919050565b60006143b2602b83614cf3565b91506143bd826152b7565b604082019050919050565b60006143d5601083614cf3565b91506143e082615306565b602082019050919050565b60006143f8602983614cf3565b91506144038261532f565b604082019050919050565b600061441b602e83614cf3565b91506144268261537e565b604082019050919050565b600061443e603e83614cf3565b9150614449826153cd565b604082019050919050565b6000614461602083614cf3565b915061446c8261541c565b602082019050919050565b6000614484603783614cf3565b915061448f82615445565b604082019050919050565b60006144a7602083614cf3565b91506144b282615494565b602082019050919050565b60006144ca601883614cf3565b91506144d5826154bd565b602082019050919050565b60006144ed602183614cf3565b91506144f8826154e6565b604082019050919050565b6000614510602483614cf3565b915061451b82615535565b604082019050919050565b6000614533602683614cf3565b915061453e82615584565b604082019050919050565b6000614556602b83614cf3565b9150614561826155d3565b604082019050919050565b6000614579601783614d04565b915061458482615622565b601782019050919050565b600061459c602d83614cf3565b91506145a78261564b565b604082019050919050565b60006145bf602e83614cf3565b91506145ca8261569a565b604082019050919050565b60006145e2601183614d04565b91506145ed826156e9565b601182019050919050565b6000614605602f83614cf3565b915061461082615712565b604082019050919050565b60e08201600082015161463160008501826146eb565b50602082015161464460208501826146eb565b50604082015161465760408501826146eb565b50606082015161466a60608501826146eb565b50608082015161467d60808501826146eb565b5060a082015161469060a08501826146eb565b5060c08201516146a360c08501826146eb565b50505050565b6060820160008201516146bf60008501826146eb565b5060208201516146d260208501826146eb565b5060408201516146e560408501826146eb565b50505050565b6146f481614e98565b82525050565b61470381614e98565b82525050565b6000614715828561425c565b9150614721828461425c565b91508190509392505050565b60006147388261456c565b9150614744828561425c565b915061474f826145d5565b915061475b828461425c565b91508190509392505050565b600060208201905061477c60008301846141ae565b92915050565b600060808201905061479760008301876141ae565b6147a460208301866141ae565b6147b160408301856146fa565b81810360608301526147c381846141db565b905095945050505050565b60006020820190506147e360008301846141bd565b92915050565b60006020820190506147fe60008301846141cc565b92915050565b60006020820190506148196000830184614214565b92915050565b600060208201905081810360008301526148398184614223565b905092915050565b6000602082019050818103600083015261485a8161428d565b9050919050565b6000602082019050818103600083015261487a816142b0565b9050919050565b6000602082019050818103600083015261489a816142d3565b9050919050565b600060208201905081810360008301526148ba816142f6565b9050919050565b600060208201905081810360008301526148da81614319565b9050919050565b600060208201905081810360008301526148fa8161433c565b9050919050565b6000602082019050818103600083015261491a8161435f565b9050919050565b6000602082019050818103600083015261493a81614382565b9050919050565b6000602082019050818103600083015261495a816143a5565b9050919050565b6000602082019050818103600083015261497a816143c8565b9050919050565b6000602082019050818103600083015261499a816143eb565b9050919050565b600060208201905081810360008301526149ba8161440e565b9050919050565b600060208201905081810360008301526149da81614431565b9050919050565b600060208201905081810360008301526149fa81614454565b9050919050565b60006020820190508181036000830152614a1a81614477565b9050919050565b60006020820190508181036000830152614a3a8161449a565b9050919050565b60006020820190508181036000830152614a5a816144bd565b9050919050565b60006020820190508181036000830152614a7a816144e0565b9050919050565b60006020820190508181036000830152614a9a81614503565b9050919050565b60006020820190508181036000830152614aba81614526565b9050919050565b60006020820190508181036000830152614ada81614549565b9050919050565b60006020820190508181036000830152614afa8161458f565b9050919050565b60006020820190508181036000830152614b1a816145b2565b9050919050565b60006020820190508181036000830152614b3a816145f8565b9050919050565b600060e082019050614b56600083018461461b565b92915050565b6000606082019050614b7160008301846146a9565b92915050565b6000602082019050614b8c60008301846146fa565b92915050565b6000604082019050614ba760008301856146fa565b614bb460208301846146fa565b9392505050565b6000606082019050614bd060008301866146fa565b614bdd60208301856146fa565b614bea60408301846146fa565b949350505050565b600060a082019050614c0760008301886146fa565b614c1460208301876146fa565b614c2160408301866146fa565b614c2e60608301856146fa565b614c3b60808301846146fa565b9695505050505050565b6000614c4f614c60565b9050614c5b8282614f5f565b919050565b6000604051905090565b600067ffffffffffffffff821115614c8557614c84615097565b5b614c8e826150c6565b9050602081019050919050565b600067ffffffffffffffff821115614cb657614cb5615097565b5b614cbf826150c6565b9050602081019050919050565b600081519050919050565b600081519050919050565b600082825260208201905092915050565b600082825260208201905092915050565b600081905092915050565b6000614d1a82614e98565b9150614d2583614e98565b9250827fffffffffffffffffffffffffffffffffffffffffffffffffffffffffffffffff03821115614d5a57614d5961500a565b5b828201905092915050565b6000614d7082614e98565b9150614d7b83614e98565b925082614d8b57614d8a615039565b5b828204905092915050565b6000614da182614e98565b9150614dac83614e98565b9250817fffffffffffffffffffffffffffffffffffffffffffffffffffffffffffffffff0483118215151615614de557614de461500a565b5b828202905092915050565b6000614dfb82614e98565b9150614e0683614e98565b925082821015614e1957614e1861500a565b5b828203905092915050565b6000614e2f82614e78565b9050919050565b60008115159050919050565b6000819050919050565b60007fffffffff0000000000000000000000000000000000000000000000000000000082169050919050565b600073ffffffffffffffffffffffffffffffffffffffff82169050919050565b6000819050919050565b600060ff82169050919050565b6000614eba82614ea2565b9050919050565b82818337600083830152505050565b60005b83811015614eee578082015181840152602081019050614ed3565b83811115614efd576000848401525b50505050565b6000614f0e82614e98565b91506000821415614f2257614f2161500a565b5b600182039050919050565b60006002820490506001821680614f4557607f821691505b60208210811415614f5957614f58615068565b5b50919050565b614f68826150c6565b810181811067ffffffffffffffff82111715614f8757614f86615097565b5b80604052505050565b6000614f9b82614e98565b91507fffffffffffffffffffffffffffffffffffffffffffffffffffffffffffffffff821415614fce57614fcd61500a565b5b600182019050919050565b6000614fe482614e98565b9150614fef83614e98565b925082614fff57614ffe615039565b5b828206905092915050565b7f4e487b7100000000000000000000000000000000000000000000000000000000600052601160045260246000fd5b7f4e487b7100000000000000000000000000000000000000000000000000000000600052601260045260246000fd5b7f4e487b7100000000000000000000000000000000000000000000000000000000600052602260045260246000fd5b7f4e487b7100000000000000000000000000000000000000000000000000000000600052604160045260246000fd5b6000601f19601f8301169050919050565b7f537472696e67733a20686578206c656e67746820696e73756666696369656e74600082015250565b7f5061757361626c653a206e6f7420706175736564000000000000000000000000600082015250565b7f496e47616d654974656d733a204172726179206c656e677468206d69736d617460008201527f6368000000000000000000000000000000000000000000000000000000000000602082015250565b7f4552433732313a207472616e7366657220746f206e6f6e20455243373231526560008201527f63656976657220696d706c656d656e7465720000000000000000000000000000602082015250565b7f4552433732313a207472616e736665722066726f6d20696e636f72726563742060008201527f6f776e6572000000000000000000000000000000000000000000000000000000602082015250565b7f4552433732313a20746f6b656e20616c7265616479206d696e74656400000000600082015250565b7f4552433732313a207472616e7366657220746f20746865207a65726f2061646460008201527f7265737300000000000000000000000000000000000000000000000000000000602082015250565b7f4552433732313a20617070726f766520746f2063616c6c657200000000000000600082015250565b7f496e47616d654974656d733a204974656d206964206d7573742062652067726560008201527f61746572207468616e2030000000000000000000000000000000000000000000602082015250565b7f5061757361626c653a2070617573656400000000000000000000000000000000600082015250565b7f4552433732313a2061646472657373207a65726f206973206e6f74206120766160008201527f6c6964206f776e65720000000000000000000000000000000000000000000000602082015250565b7f496e697469616c697a61626c653a20636f6e747261637420697320616c72656160008201527f647920696e697469616c697a6564000000000000000000000000000000000000602082015250565b7f4552433732313a20617070726f76652063616c6c6572206973206e6f7420746f60008201527f6b656e206f776e6572206e6f7220617070726f76656420666f7220616c6c0000602082015250565b7f4552433732313a206d696e7420746f20746865207a65726f2061646472657373600082015250565b7f496e47616d654974656d733a204e6f7420656e6f75676820746f6b656e73207460008201527f6f206d696e742066726f6d207468697320736572696573000000000000000000602082015250565b7f496e47616d654974656d733a204974656d20646f6573206e6f74206578697374600082015250565b7f4552433732313a20696e76616c696420746f6b656e2049440000000000000000600082015250565b7f4552433732313a20617070726f76616c20746f2063757272656e74206f776e6560008201527f7200000000000000000000000000000000000000000000000000000000000000602082015250565b7f496e47616d654974656d733a204974656d20736572696573204944206d69736d60008201527f6174636800000000000000000000000000000000000000000000000000000000602082015250565b7f496e47616d654974656d733a206974656d5365726965734964206f7574206f6660008201527f2072616e67650000000000000000000000000000000000000000000000000000602082015250565b7f496e697469616c697a61626c653a20636f6e7472616374206973206e6f74206960008201527f6e697469616c697a696e67000000000000000000000000000000000000000000602082015250565b7f416363657373436f6e74726f6c3a206163636f756e7420000000000000000000600082015250565b7f496e47616d654974656d733a204974656d2074797065206d757374206265206760008201527f726561746572207468616e203000000000000000000000000000000000000000602082015250565b7f4552433732313a2063616c6c6572206973206e6f7420746f6b656e206f776e6560008201527f72206e6f7220617070726f766564000000000000000000000000000000000000602082015250565b7f206973206d697373696e6720726f6c6520000000000000000000000000000000600082015250565b7f416363657373436f6e74726f6c3a2063616e206f6e6c792072656e6f756e636560008201527f20726f6c657320666f722073656c660000000000000000000000000000000000602082015250565b61576a81614e24565b811461577557600080fd5b50565b61578181614e36565b811461578c57600080fd5b50565b61579881614e42565b81146157a357600080fd5b50565b6157af81614e4c565b81146157ba57600080fd5b50565b6157c681614e98565b81146157d157600080fd5b5056fea26469706673582212203daca860818dd66035dacc18e4aacab669293726263e016b8cc0304b1a2894b464736f6c63430008040033",
  "devdoc": {
    "kind": "dev",
    "methods": {
      "approve(address,uint256)": {
        "details": "See {IERC721-approve}."
      },
      "balanceOf(address)": {
        "details": "See {IERC721-balanceOf}."
      },
      "burn(uint256)": {
        "details": "Burns `tokenId`. See {ERC721-_burn}. Requirements: - The caller must own `tokenId` or be an approved operator."
      },
      "getApproved(uint256)": {
        "details": "See {IERC721-getApproved}."
      },
      "getRoleAdmin(bytes32)": {
        "details": "Returns the admin role that controls `role`. See {grantRole} and {revokeRole}. To change a role's admin, use {_setRoleAdmin}."
      },
      "getTrustedForwarder()": {
        "returns": {
          "forwarder": "The address of the Forwarder contract that is being used."
        }
      },
      "grantRole(bytes32,address)": {
        "details": "Grants `role` to `account`. If `account` had not been already granted `role`, emits a {RoleGranted} event. Requirements: - the caller must have ``role``'s admin role. May emit a {RoleGranted} event."
      },
      "hasRole(bytes32,address)": {
        "details": "Returns `true` if `account` has been granted `role`."
      },
      "isApprovedForAll(address,address)": {
        "details": "See {IERC721-isApprovedForAll}."
      },
      "isTrustedForwarder(address)": {
        "params": {
          "forwarder": "The address of the Forwarder contract that is being used."
        },
        "returns": {
          "_0": "isTrustedForwarder `true` if the Forwarder is trusted to forward relayed transactions by this Recipient."
        }
      },
      "name()": {
        "details": "See {IERC721Metadata-name}."
      },
      "ownerOf(uint256)": {
        "details": "See {IERC721-ownerOf}."
      },
      "paused()": {
        "details": "Returns true if the contract is paused, and false otherwise."
      },
      "renounceRole(bytes32,address)": {
        "details": "Revokes `role` from the calling account. Roles are often managed via {grantRole} and {revokeRole}: this function's purpose is to provide a mechanism for accounts to lose their privileges if they are compromised (such as when a trusted device is misplaced). If the calling account had been revoked `role`, emits a {RoleRevoked} event. Requirements: - the caller must be `account`. May emit a {RoleRevoked} event."
      },
      "revokeRole(bytes32,address)": {
        "details": "Revokes `role` from `account`. If `account` had been granted `role`, emits a {RoleRevoked} event. Requirements: - the caller must have ``role``'s admin role. May emit a {RoleRevoked} event."
      },
      "safeTransferFrom(address,address,uint256)": {
        "details": "See {IERC721-safeTransferFrom}."
      },
      "safeTransferFrom(address,address,uint256,bytes)": {
        "details": "See {IERC721-safeTransferFrom}."
      },
      "setApprovalForAll(address,bool)": {
        "details": "See {IERC721-setApprovalForAll}."
      },
      "symbol()": {
        "details": "See {IERC721Metadata-symbol}."
      },
      "tokenURI(uint256)": {
        "details": "See {IERC721Metadata-tokenURI}."
      },
      "transferFrom(address,address,uint256)": {
        "details": "See {IERC721-transferFrom}."
      }
    },
    "version": 1
  },
  "userdoc": {
    "kind": "user",
    "methods": {
      "getTrustedForwarder()": {
        "notice": ":warning: **Warning** :warning: The Forwarder can have a full control over your Recipient. Only trust verified Forwarder.Method is not a required method to allow Recipients to trust multiple Forwarders. Not recommended yet."
      },
      "isTrustedForwarder(address)": {
        "notice": ":warning: **Warning** :warning: The Forwarder can have a full control over your Recipient. Only trust verified Forwarder."
      }
    },
    "version": 1
  },
  "storageLayout": {
    "storage": [
      {
        "astId": 546,
        "contract": "contracts/NFT/InGameItems.sol:InGameItems",
        "label": "_initialized",
        "offset": 0,
        "slot": "0",
        "type": "t_uint8"
      },
      {
        "astId": 549,
        "contract": "contracts/NFT/InGameItems.sol:InGameItems",
        "label": "_initializing",
        "offset": 1,
        "slot": "0",
        "type": "t_bool"
      },
      {
        "astId": 2204,
        "contract": "contracts/NFT/InGameItems.sol:InGameItems",
        "label": "__gap",
        "offset": 0,
        "slot": "1",
        "type": "t_array(t_uint256)50_storage"
      },
      {
        "astId": 2474,
        "contract": "contracts/NFT/InGameItems.sol:InGameItems",
        "label": "__gap",
        "offset": 0,
        "slot": "51",
        "type": "t_array(t_uint256)50_storage"
      },
      {
        "astId": 846,
        "contract": "contracts/NFT/InGameItems.sol:InGameItems",
        "label": "_name",
        "offset": 0,
        "slot": "101",
        "type": "t_string_storage"
      },
      {
        "astId": 848,
        "contract": "contracts/NFT/InGameItems.sol:InGameItems",
        "label": "_symbol",
        "offset": 0,
        "slot": "102",
        "type": "t_string_storage"
      },
      {
        "astId": 852,
        "contract": "contracts/NFT/InGameItems.sol:InGameItems",
        "label": "_owners",
        "offset": 0,
        "slot": "103",
        "type": "t_mapping(t_uint256,t_address)"
      },
      {
        "astId": 856,
        "contract": "contracts/NFT/InGameItems.sol:InGameItems",
        "label": "_balances",
        "offset": 0,
        "slot": "104",
        "type": "t_mapping(t_address,t_uint256)"
      },
      {
        "astId": 860,
        "contract": "contracts/NFT/InGameItems.sol:InGameItems",
        "label": "_tokenApprovals",
        "offset": 0,
        "slot": "105",
        "type": "t_mapping(t_uint256,t_address)"
      },
      {
        "astId": 866,
        "contract": "contracts/NFT/InGameItems.sol:InGameItems",
        "label": "_operatorApprovals",
        "offset": 0,
        "slot": "106",
        "type": "t_mapping(t_address,t_mapping(t_address,t_bool))"
      },
      {
        "astId": 1708,
        "contract": "contracts/NFT/InGameItems.sol:InGameItems",
        "label": "__gap",
        "offset": 0,
        "slot": "107",
        "type": "t_array(t_uint256)44_storage"
      },
      {
        "astId": 1892,
        "contract": "contracts/NFT/InGameItems.sol:InGameItems",
        "label": "__gap",
        "offset": 0,
        "slot": "151",
        "type": "t_array(t_uint256)50_storage"
      },
      {
        "astId": 7925,
        "contract": "contracts/NFT/InGameItems.sol:InGameItems",
        "label": "baseURI",
        "offset": 0,
        "slot": "201",
        "type": "t_string_storage"
      },
      {
        "astId": 7,
        "contract": "contracts/NFT/InGameItems.sol:InGameItems",
        "label": "_trustedForwarder",
        "offset": 0,
        "slot": "202",
        "type": "t_address"
      },
      {
        "astId": 711,
        "contract": "contracts/NFT/InGameItems.sol:InGameItems",
        "label": "_paused",
        "offset": 20,
        "slot": "202",
        "type": "t_bool"
      },
      {
        "astId": 816,
        "contract": "contracts/NFT/InGameItems.sol:InGameItems",
        "label": "__gap",
        "offset": 0,
        "slot": "203",
        "type": "t_array(t_uint256)49_storage"
      },
      {
        "astId": 166,
        "contract": "contracts/NFT/InGameItems.sol:InGameItems",
        "label": "_roles",
        "offset": 0,
        "slot": "252",
        "type": "t_mapping(t_bytes32,t_struct(RoleData)161_storage)"
      },
      {
        "astId": 465,
        "contract": "contracts/NFT/InGameItems.sol:InGameItems",
        "label": "__gap",
        "offset": 0,
        "slot": "253",
        "type": "t_array(t_uint256)49_storage"
      },
      {
        "astId": 7287,
        "contract": "contracts/NFT/InGameItems.sol:InGameItems",
        "label": "items",
        "offset": 0,
        "slot": "302",
        "type": "t_mapping(t_uint256,t_struct(Item)7978_storage)"
      },
      {
        "astId": 7293,
        "contract": "contracts/NFT/InGameItems.sol:InGameItems",
        "label": "itemSeriesMap",
        "offset": 0,
        "slot": "303",
        "type": "t_mapping(t_uint256,t_array(t_struct(ItemSeries)7989_storage)dyn_storage)"
      },
      {
        "astId": 7295,
        "contract": "contracts/NFT/InGameItems.sol:InGameItems",
        "label": "lastOccupiedTokenId",
        "offset": 0,
        "slot": "304",
        "type": "t_uint256"
      }
    ],
    "types": {
      "t_address": {
        "encoding": "inplace",
        "label": "address",
        "numberOfBytes": "20"
      },
      "t_array(t_struct(ItemSeries)7989_storage)dyn_storage": {
        "base": "t_struct(ItemSeries)7989_storage",
        "encoding": "dynamic_array",
        "label": "struct IInGameItems.ItemSeries[]",
        "numberOfBytes": "32"
      },
      "t_array(t_uint256)44_storage": {
        "base": "t_uint256",
        "encoding": "inplace",
        "label": "uint256[44]",
        "numberOfBytes": "1408"
      },
      "t_array(t_uint256)49_storage": {
        "base": "t_uint256",
        "encoding": "inplace",
        "label": "uint256[49]",
        "numberOfBytes": "1568"
      },
      "t_array(t_uint256)50_storage": {
        "base": "t_uint256",
        "encoding": "inplace",
        "label": "uint256[50]",
        "numberOfBytes": "1600"
      },
      "t_bool": {
        "encoding": "inplace",
        "label": "bool",
        "numberOfBytes": "1"
      },
      "t_bytes32": {
        "encoding": "inplace",
        "label": "bytes32",
        "numberOfBytes": "32"
      },
      "t_mapping(t_address,t_bool)": {
        "encoding": "mapping",
        "key": "t_address",
        "label": "mapping(address => bool)",
        "numberOfBytes": "32",
        "value": "t_bool"
      },
      "t_mapping(t_address,t_mapping(t_address,t_bool))": {
        "encoding": "mapping",
        "key": "t_address",
        "label": "mapping(address => mapping(address => bool))",
        "numberOfBytes": "32",
        "value": "t_mapping(t_address,t_bool)"
      },
      "t_mapping(t_address,t_uint256)": {
        "encoding": "mapping",
        "key": "t_address",
        "label": "mapping(address => uint256)",
        "numberOfBytes": "32",
        "value": "t_uint256"
      },
      "t_mapping(t_bytes32,t_struct(RoleData)161_storage)": {
        "encoding": "mapping",
        "key": "t_bytes32",
        "label": "mapping(bytes32 => struct AccessControlUpgradeable.RoleData)",
        "numberOfBytes": "32",
        "value": "t_struct(RoleData)161_storage"
      },
      "t_mapping(t_uint256,t_address)": {
        "encoding": "mapping",
        "key": "t_uint256",
        "label": "mapping(uint256 => address)",
        "numberOfBytes": "32",
        "value": "t_address"
      },
      "t_mapping(t_uint256,t_array(t_struct(ItemSeries)7989_storage)dyn_storage)": {
        "encoding": "mapping",
        "key": "t_uint256",
        "label": "mapping(uint256 => struct IInGameItems.ItemSeries[])",
        "numberOfBytes": "32",
        "value": "t_array(t_struct(ItemSeries)7989_storage)dyn_storage"
      },
      "t_mapping(t_uint256,t_struct(Item)7978_storage)": {
        "encoding": "mapping",
        "key": "t_uint256",
        "label": "mapping(uint256 => struct IInGameItems.Item)",
        "numberOfBytes": "32",
        "value": "t_struct(Item)7978_storage"
      },
      "t_string_storage": {
        "encoding": "bytes",
        "label": "string",
        "numberOfBytes": "32"
      },
      "t_struct(Item)7978_storage": {
        "encoding": "inplace",
        "label": "struct IInGameItems.Item",
        "members": [
          {
            "astId": 7973,
            "contract": "contracts/NFT/InGameItems.sol:InGameItems",
            "label": "itemId",
            "offset": 0,
            "slot": "0",
            "type": "t_uint256"
          },
          {
            "astId": 7975,
            "contract": "contracts/NFT/InGameItems.sol:InGameItems",
            "label": "itemType",
            "offset": 0,
            "slot": "1",
            "type": "t_uint256"
          },
          {
            "astId": 7977,
            "contract": "contracts/NFT/InGameItems.sol:InGameItems",
            "label": "slots",
            "offset": 0,
            "slot": "2",
            "type": "t_uint256"
          }
        ],
        "numberOfBytes": "96"
      },
      "t_struct(ItemSeries)7989_storage": {
        "encoding": "inplace",
        "label": "struct IInGameItems.ItemSeries",
        "members": [
          {
            "astId": 7980,
            "contract": "contracts/NFT/InGameItems.sol:InGameItems",
            "label": "itemId",
            "offset": 0,
            "slot": "0",
            "type": "t_uint256"
          },
          {
            "astId": 7982,
            "contract": "contracts/NFT/InGameItems.sol:InGameItems",
            "label": "itemSeriesId",
            "offset": 0,
            "slot": "1",
            "type": "t_uint256"
          },
          {
            "astId": 7984,
            "contract": "contracts/NFT/InGameItems.sol:InGameItems",
            "label": "startingTokenId",
            "offset": 0,
            "slot": "2",
            "type": "t_uint256"
          },
          {
            "astId": 7986,
            "contract": "contracts/NFT/InGameItems.sol:InGameItems",
            "label": "editionSize",
            "offset": 0,
            "slot": "3",
            "type": "t_uint256"
          },
          {
            "astId": 7988,
            "contract": "contracts/NFT/InGameItems.sol:InGameItems",
            "label": "minted",
            "offset": 0,
            "slot": "4",
            "type": "t_uint256"
          }
        ],
        "numberOfBytes": "160"
      },
      "t_struct(RoleData)161_storage": {
        "encoding": "inplace",
        "label": "struct AccessControlUpgradeable.RoleData",
        "members": [
          {
            "astId": 158,
            "contract": "contracts/NFT/InGameItems.sol:InGameItems",
            "label": "members",
            "offset": 0,
            "slot": "0",
            "type": "t_mapping(t_address,t_bool)"
          },
          {
            "astId": 160,
            "contract": "contracts/NFT/InGameItems.sol:InGameItems",
            "label": "adminRole",
            "offset": 0,
            "slot": "1",
            "type": "t_bytes32"
          }
        ],
        "numberOfBytes": "64"
      },
      "t_uint256": {
        "encoding": "inplace",
        "label": "uint256",
        "numberOfBytes": "32"
      },
      "t_uint8": {
        "encoding": "inplace",
        "label": "uint8",
        "numberOfBytes": "1"
      }
    }
  }
}