{
  "address": "0xBBf795074A41E39190E49Fa22E99Badf53350225",
  "abi": [
    {
      "inputs": [
        {
          "internalType": "address",
          "name": "admin",
          "type": "address"
        },
        {
          "internalType": "address",
          "name": "pauser",
          "type": "address"
        },
        {
          "internalType": "address",
          "name": "feeAdmin",
          "type": "address"
        },
        {
          "internalType": "address",
          "name": "treasurer",
          "type": "address"
        },
        {
          "internalType": "address",
          "name": "v2RouterAddress",
          "type": "address"
        },
        {
          "internalType": "address",
          "name": "beneficiary",
          "type": "address"
        },
        {
          "internalType": "uint256",
          "name": "totalSupply_",
          "type": "uint256"
        }
      ],
      "stateMutability": "nonpayable",
      "type": "constructor"
    },
    {
      "anonymous": false,
      "inputs": [
        {
          "indexed": true,
          "internalType": "address",
          "name": "owner",
          "type": "address"
        },
        {
          "indexed": true,
          "internalType": "address",
          "name": "spender",
          "type": "address"
        },
        {
          "indexed": false,
          "internalType": "uint256",
          "name": "value",
          "type": "uint256"
        }
      ],
      "name": "Approval",
      "type": "event"
    },
    {
      "anonymous": false,
      "inputs": [
        {
          "indexed": false,
          "internalType": "address",
          "name": "account",
          "type": "address"
        }
      ],
      "name": "Paused",
      "type": "event"
    },
    {
      "anonymous": false,
      "inputs": [
        {
          "indexed": true,
          "internalType": "bytes32",
          "name": "role",
          "type": "bytes32"
        },
        {
          "indexed": true,
          "internalType": "bytes32",
          "name": "previousAdminRole",
          "type": "bytes32"
        },
        {
          "indexed": true,
          "internalType": "bytes32",
          "name": "newAdminRole",
          "type": "bytes32"
        }
      ],
      "name": "RoleAdminChanged",
      "type": "event"
    },
    {
      "anonymous": false,
      "inputs": [
        {
          "indexed": true,
          "internalType": "bytes32",
          "name": "role",
          "type": "bytes32"
        },
        {
          "indexed": true,
          "internalType": "address",
          "name": "account",
          "type": "address"
        },
        {
          "indexed": true,
          "internalType": "address",
          "name": "sender",
          "type": "address"
        }
      ],
      "name": "RoleGranted",
      "type": "event"
    },
    {
      "anonymous": false,
      "inputs": [
        {
          "indexed": true,
          "internalType": "bytes32",
          "name": "role",
          "type": "bytes32"
        },
        {
          "indexed": true,
          "internalType": "address",
          "name": "account",
          "type": "address"
        },
        {
          "indexed": true,
          "internalType": "address",
          "name": "sender",
          "type": "address"
        }
      ],
      "name": "RoleRevoked",
      "type": "event"
    },
    {
      "anonymous": false,
      "inputs": [
        {
          "indexed": true,
          "internalType": "address",
          "name": "from",
          "type": "address"
        },
        {
          "indexed": true,
          "internalType": "address",
          "name": "to",
          "type": "address"
        },
        {
          "indexed": false,
          "internalType": "uint256",
          "name": "value",
          "type": "uint256"
        }
      ],
      "name": "Transfer",
      "type": "event"
    },
    {
      "anonymous": false,
      "inputs": [
        {
          "indexed": false,
          "internalType": "address",
          "name": "account",
          "type": "address"
        }
      ],
      "name": "Unpaused",
      "type": "event"
    },
    {
      "inputs": [],
      "name": "DEFAULT_ADMIN_ROLE",
      "outputs": [
        {
          "internalType": "bytes32",
          "name": "",
          "type": "bytes32"
        }
      ],
      "stateMutability": "view",
      "type": "function"
    },
    {
      "inputs": [],
      "name": "FEE_ADMIN_ROLE",
      "outputs": [
        {
          "internalType": "bytes32",
          "name": "",
          "type": "bytes32"
        }
      ],
      "stateMutability": "view",
      "type": "function"
    },
    {
      "inputs": [],
      "name": "PAUSER_ROLE",
      "outputs": [
        {
          "internalType": "bytes32",
          "name": "",
          "type": "bytes32"
        }
      ],
      "stateMutability": "view",
      "type": "function"
    },
    {
      "inputs": [],
      "name": "TREASURER_ROLE",
      "outputs": [
        {
          "internalType": "bytes32",
          "name": "",
          "type": "bytes32"
        }
      ],
      "stateMutability": "view",
      "type": "function"
    },
    {
      "inputs": [
        {
          "internalType": "address",
          "name": "owner",
          "type": "address"
        },
        {
          "internalType": "address",
          "name": "spender",
          "type": "address"
        }
      ],
      "name": "allowance",
      "outputs": [
        {
          "internalType": "uint256",
          "name": "",
          "type": "uint256"
        }
      ],
      "stateMutability": "view",
      "type": "function"
    },
    {
      "inputs": [
        {
          "internalType": "address",
          "name": "spender",
          "type": "address"
        },
        {
          "internalType": "uint256",
          "name": "amount",
          "type": "uint256"
        }
      ],
      "name": "approve",
      "outputs": [
        {
          "internalType": "bool",
          "name": "",
          "type": "bool"
        }
      ],
      "stateMutability": "nonpayable",
      "type": "function"
    },
    {
      "inputs": [
        {
          "internalType": "address",
          "name": "account",
          "type": "address"
        }
      ],
      "name": "balanceOf",
      "outputs": [
        {
          "internalType": "uint256",
          "name": "",
          "type": "uint256"
        }
      ],
      "stateMutability": "view",
      "type": "function"
    },
    {
      "inputs": [],
      "name": "buyFeePercentage",
      "outputs": [
        {
          "internalType": "uint256",
          "name": "",
          "type": "uint256"
        }
      ],
      "stateMutability": "view",
      "type": "function"
    },
    {
      "inputs": [],
      "name": "decimals",
      "outputs": [
        {
          "internalType": "uint8",
          "name": "",
          "type": "uint8"
        }
      ],
      "stateMutability": "view",
      "type": "function"
    },
    {
      "inputs": [
        {
          "internalType": "address",
          "name": "spender",
          "type": "address"
        },
        {
          "internalType": "uint256",
          "name": "subtractedValue",
          "type": "uint256"
        }
      ],
      "name": "decreaseAllowance",
      "outputs": [
        {
          "internalType": "bool",
          "name": "",
          "type": "bool"
        }
      ],
      "stateMutability": "nonpayable",
      "type": "function"
    },
    {
      "inputs": [
        {
          "internalType": "bytes32",
          "name": "role",
          "type": "bytes32"
        }
      ],
      "name": "getRoleAdmin",
      "outputs": [
        {
          "internalType": "bytes32",
          "name": "",
          "type": "bytes32"
        }
      ],
      "stateMutability": "view",
      "type": "function"
    },
    {
      "inputs": [],
      "name": "getTrustedForwarder",
      "outputs": [
        {
          "internalType": "address",
          "name": "forwarder",
          "type": "address"
        }
      ],
      "stateMutability": "view",
      "type": "function"
    },
    {
      "inputs": [
        {
          "internalType": "bytes32",
          "name": "role",
          "type": "bytes32"
        },
        {
          "internalType": "address",
          "name": "account",
          "type": "address"
        }
      ],
      "name": "grantRole",
      "outputs": [],
      "stateMutability": "nonpayable",
      "type": "function"
    },
    {
      "inputs": [
        {
          "internalType": "bytes32",
          "name": "role",
          "type": "bytes32"
        },
        {
          "internalType": "address",
          "name": "account",
          "type": "address"
        }
      ],
      "name": "hasRole",
      "outputs": [
        {
          "internalType": "bool",
          "name": "",
          "type": "bool"
        }
      ],
      "stateMutability": "view",
      "type": "function"
    },
    {
      "inputs": [
        {
          "internalType": "address",
          "name": "spender",
          "type": "address"
        },
        {
          "internalType": "uint256",
          "name": "addedValue",
          "type": "uint256"
        }
      ],
      "name": "increaseAllowance",
      "outputs": [
        {
          "internalType": "bool",
          "name": "",
          "type": "bool"
        }
      ],
      "stateMutability": "nonpayable",
      "type": "function"
    },
    {
      "inputs": [
        {
          "internalType": "address",
          "name": "",
          "type": "address"
        }
      ],
      "name": "isDex",
      "outputs": [
        {
          "internalType": "bool",
          "name": "",
          "type": "bool"
        }
      ],
      "stateMutability": "view",
      "type": "function"
    },
    {
      "inputs": [
        {
          "internalType": "address",
          "name": "forwarder",
          "type": "address"
        }
      ],
      "name": "isTrustedForwarder",
      "outputs": [
        {
          "internalType": "bool",
          "name": "",
          "type": "bool"
        }
      ],
      "stateMutability": "view",
      "type": "function"
    },
    {
      "inputs": [],
      "name": "name",
      "outputs": [
        {
          "internalType": "string",
          "name": "",
          "type": "string"
        }
      ],
      "stateMutability": "view",
      "type": "function"
    },
    {
      "inputs": [],
      "name": "pause",
      "outputs": [],
      "stateMutability": "nonpayable",
      "type": "function"
    },
    {
      "inputs": [],
      "name": "paused",
      "outputs": [
        {
          "internalType": "bool",
          "name": "",
          "type": "bool"
        }
      ],
      "stateMutability": "view",
      "type": "function"
    },
    {
      "inputs": [
        {
          "internalType": "bytes32",
          "name": "role",
          "type": "bytes32"
        },
        {
          "internalType": "address",
          "name": "account",
          "type": "address"
        }
      ],
      "name": "renounceRole",
      "outputs": [],
      "stateMutability": "nonpayable",
      "type": "function"
    },
    {
      "inputs": [
        {
          "internalType": "bytes32",
          "name": "role",
          "type": "bytes32"
        },
        {
          "internalType": "address",
          "name": "account",
          "type": "address"
        }
      ],
      "name": "revokeRole",
      "outputs": [],
      "stateMutability": "nonpayable",
      "type": "function"
    },
    {
      "inputs": [],
      "name": "sellFeePercentage",
      "outputs": [
        {
          "internalType": "uint256",
          "name": "",
          "type": "uint256"
        }
      ],
      "stateMutability": "view",
      "type": "function"
    },
    {
      "inputs": [
        {
          "internalType": "address",
          "name": "spender",
          "type": "address"
        },
        {
          "internalType": "uint256",
          "name": "amount",
          "type": "uint256"
        }
      ],
      "name": "setApprovalFor",
      "outputs": [],
      "stateMutability": "nonpayable",
      "type": "function"
    },
    {
      "inputs": [
        {
          "internalType": "uint256",
          "name": "fee",
          "type": "uint256"
        }
      ],
      "name": "setBuyFeePercentage",
      "outputs": [],
      "stateMutability": "nonpayable",
      "type": "function"
    },
    {
      "inputs": [
        {
          "internalType": "address",
          "name": "account",
          "type": "address"
        },
        {
          "internalType": "bool",
          "name": "isDex_",
          "type": "bool"
        }
      ],
      "name": "setIsDex",
      "outputs": [],
      "stateMutability": "nonpayable",
      "type": "function"
    },
    {
      "inputs": [
        {
          "internalType": "uint256",
          "name": "fee",
          "type": "uint256"
        }
      ],
      "name": "setSellFeePercentage",
      "outputs": [],
      "stateMutability": "nonpayable",
      "type": "function"
    },
    {
      "inputs": [
        {
          "internalType": "bool",
          "name": "swapFeesToEth_",
          "type": "bool"
        }
      ],
      "name": "setSwapFeesToEth",
      "outputs": [],
      "stateMutability": "nonpayable",
      "type": "function"
    },
    {
      "inputs": [
        {
          "internalType": "address",
          "name": "trustedForwarder",
          "type": "address"
        }
      ],
      "name": "setTrustedForwarder",
      "outputs": [],
      "stateMutability": "nonpayable",
      "type": "function"
    },
    {
      "inputs": [
        {
          "internalType": "address",
          "name": "account",
          "type": "address"
        },
        {
          "internalType": "bool",
          "name": "isWhitelisted",
          "type": "bool"
        }
      ],
      "name": "setWhitelistedAddress",
      "outputs": [],
      "stateMutability": "nonpayable",
      "type": "function"
    },
    {
      "inputs": [
        {
          "internalType": "bytes4",
          "name": "interfaceId",
          "type": "bytes4"
        }
      ],
      "name": "supportsInterface",
      "outputs": [
        {
          "internalType": "bool",
          "name": "",
          "type": "bool"
        }
      ],
      "stateMutability": "view",
      "type": "function"
    },
    {
      "inputs": [],
      "name": "swapFeesToEth",
      "outputs": [
        {
          "internalType": "bool",
          "name": "",
          "type": "bool"
        }
      ],
      "stateMutability": "view",
      "type": "function"
    },
    {
      "inputs": [],
      "name": "symbol",
      "outputs": [
        {
          "internalType": "string",
          "name": "",
          "type": "string"
        }
      ],
      "stateMutability": "view",
      "type": "function"
    },
    {
      "inputs": [],
      "name": "totalSupply",
      "outputs": [
        {
          "internalType": "uint256",
          "name": "",
          "type": "uint256"
        }
      ],
      "stateMutability": "view",
      "type": "function"
    },
    {
      "inputs": [
        {
          "internalType": "address",
          "name": "to",
          "type": "address"
        },
        {
          "internalType": "uint256",
          "name": "amount",
          "type": "uint256"
        }
      ],
      "name": "transfer",
      "outputs": [
        {
          "internalType": "bool",
          "name": "",
          "type": "bool"
        }
      ],
      "stateMutability": "nonpayable",
      "type": "function"
    },
    {
      "inputs": [
        {
          "internalType": "address",
          "name": "from",
          "type": "address"
        },
        {
          "internalType": "address",
          "name": "to",
          "type": "address"
        },
        {
          "internalType": "uint256",
          "name": "amount",
          "type": "uint256"
        }
      ],
      "name": "transferFrom",
      "outputs": [
        {
          "internalType": "bool",
          "name": "",
          "type": "bool"
        }
      ],
      "stateMutability": "nonpayable",
      "type": "function"
    },
    {
      "inputs": [],
      "name": "unpause",
      "outputs": [],
      "stateMutability": "nonpayable",
      "type": "function"
    },
    {
      "inputs": [],
      "name": "v2Router",
      "outputs": [
        {
          "internalType": "contract IUniswapV2Router02",
          "name": "",
          "type": "address"
        }
      ],
      "stateMutability": "view",
      "type": "function"
    },
    {
      "inputs": [
        {
          "internalType": "address",
          "name": "",
          "type": "address"
        }
      ],
      "name": "whitelist",
      "outputs": [
        {
          "internalType": "bool",
          "name": "",
          "type": "bool"
        }
      ],
      "stateMutability": "view",
      "type": "function"
    },
    {
      "inputs": [
        {
          "internalType": "address",
          "name": "beneficiary",
          "type": "address"
        }
      ],
      "name": "withdrawETH",
      "outputs": [],
      "stateMutability": "nonpayable",
      "type": "function"
    },
    {
      "inputs": [
        {
          "internalType": "address",
          "name": "tokenAddress",
          "type": "address"
        },
        {
          "internalType": "address",
          "name": "beneficiary",
          "type": "address"
        }
      ],
      "name": "withdrawTokens",
      "outputs": [],
      "stateMutability": "nonpayable",
      "type": "function"
    },
    {
      "stateMutability": "payable",
      "type": "receive"
    }
  ],
  "transactionHash": "0x18603c512090c32eb2d2832d7d273f5d89818ecbf0f00b9b19de9e7e262a255e",
  "args": [
    "0x36af5a7c234bDc7b64EB84e0adEC13283Bf30F3B",
    "0x995Cf311dB5E0E45b7C3aE23ed62FB0237eEFABC",
    "0x36af5a7c234bDc7b64EB84e0adEC13283Bf30F3B",
    "0x36af5a7c234bDc7b64EB84e0adEC13283Bf30F3B",
    "0x10ED43C718714eb63d5aA57B78B54704E256024E",
    "0x1315AbD49D4A978749a9d9DA3cD54C319E7b5b10",
    1000000000
  ],
  "numDeployments": 1,
  "solcInputHash": "2ef2f20d743cb93abb8a12b6257e4497",
  "bytecode": "0x60a0604052600060085560006009556001600c60006101000a81548160ff0219169083151502179055503480156200003657600080fd5b50604051620053123803806200531283398181016040528101906200005c919062000a62565b6040518060400160405280600c81526020017f44595345554d20546f6b656e00000000000000000000000000000000000000008152506040518060400160405280600381526020017f44595300000000000000000000000000000000000000000000000000000000008152508160039080519060200190620000e092919062000984565b508060049080519060200190620000f992919062000984565b5050506000600760006101000a81548160ff021916908315150217905550600081116200015d576040517f08c379a0000000000000000000000000000000000000000000000000000000008152600401620001549062000bde565b60405180910390fd5b620001726000801b886200041b60201b60201c565b620001a47f65d7a28e3265b37a6474929f336521b332c1681b933f6cb9f3376673440d862a876200041b60201b60201c565b620001d67f349eec46d2c564a125684d1934a6120a70cc341d3a26d362e358a775e07dec17866200041b60201b60201c565b620002087f3496e2e73c4d42b75d702e60d9e48102720b8691234415963a5a857b86425d07856200041b60201b60201c565b62000244826200021d6200050d60201b60201c565b600a6200022b919062000d2a565b8362000238919062000e67565b6200051660201b60201c565b8273ffffffffffffffffffffffffffffffffffffffff1660808173ffffffffffffffffffffffffffffffffffffffff1660601b81525050620002ae30847fffffffffffffffffffffffffffffffffffffffffffffffffffffffffffffffff6200068460201b60201c565b6001600b60008473ffffffffffffffffffffffffffffffffffffffff1673ffffffffffffffffffffffffffffffffffffffff16815260200190815260200160002060006101000a81548160ff0219169083151502179055506001600b60008973ffffffffffffffffffffffffffffffffffffffff1673ffffffffffffffffffffffffffffffffffffffff16815260200190815260200160002060006101000a81548160ff0219169083151502179055506001600b60008673ffffffffffffffffffffffffffffffffffffffff1673ffffffffffffffffffffffffffffffffffffffff16815260200190815260200160002060006101000a81548160ff0219169083151502179055506001600b60003073ffffffffffffffffffffffffffffffffffffffff1673ffffffffffffffffffffffffffffffffffffffff16815260200190815260200160002060006101000a81548160ff02191690831515021790555050505050505050620010fe565b6200042d82826200085760201b60201c565b620005095760016006600084815260200190815260200160002060000160008373ffffffffffffffffffffffffffffffffffffffff1673ffffffffffffffffffffffffffffffffffffffff16815260200190815260200160002060006101000a81548160ff021916908315150217905550620004ae620008c260201b60201c565b73ffffffffffffffffffffffffffffffffffffffff168173ffffffffffffffffffffffffffffffffffffffff16837f2f8788117e7eff1d82e926ec794901d17c78024a50270940304540a733656f0d60405160405180910390a45b5050565b60006012905090565b600073ffffffffffffffffffffffffffffffffffffffff168273ffffffffffffffffffffffffffffffffffffffff16141562000589576040517f08c379a0000000000000000000000000000000000000000000000000000000008152600401620005809062000c22565b60405180910390fd5b6200059d60008383620008de60201b60201c565b8060026000828254620005b1919062000c72565b92505081905550806000808473ffffffffffffffffffffffffffffffffffffffff1673ffffffffffffffffffffffffffffffffffffffff168152602001908152602001600020600082825401925050819055508173ffffffffffffffffffffffffffffffffffffffff16600073ffffffffffffffffffffffffffffffffffffffff167fddf252ad1be2c89b69c2b068fc378daa952ba7f163c4a11628f55a4df523b3ef8360405162000664919062000c44565b60405180910390a36200068060008383620008e360201b60201c565b5050565b600073ffffffffffffffffffffffffffffffffffffffff168373ffffffffffffffffffffffffffffffffffffffff161415620006f7576040517f08c379a0000000000000000000000000000000000000000000000000000000008152600401620006ee9062000c00565b60405180910390fd5b600073ffffffffffffffffffffffffffffffffffffffff168273ffffffffffffffffffffffffffffffffffffffff1614156200076a576040517f08c379a0000000000000000000000000000000000000000000000000000000008152600401620007619062000bbc565b60405180910390fd5b80600160008573ffffffffffffffffffffffffffffffffffffffff1673ffffffffffffffffffffffffffffffffffffffff16815260200190815260200160002060008473ffffffffffffffffffffffffffffffffffffffff1673ffffffffffffffffffffffffffffffffffffffff168152602001908152602001600020819055508173ffffffffffffffffffffffffffffffffffffffff168373ffffffffffffffffffffffffffffffffffffffff167f8c5be1e5ebec7d5bd14f71427d1e84f3dd0314c0f7b2291e5b200ac8c7c3b925836040516200084a919062000c44565b60405180910390a3505050565b60006006600084815260200190815260200160002060000160008373ffffffffffffffffffffffffffffffffffffffff1673ffffffffffffffffffffffffffffffffffffffff16815260200190815260200160002060009054906101000a900460ff16905092915050565b6000620008d9620008e860201b6200160d1760201c565b905090565b505050565b505050565b600060146000369050101580156200090d57506200090c336200092a60201b60201c565b5b156200092357601436033560601c905062000927565b3390505b90565b6000600560009054906101000a900473ffffffffffffffffffffffffffffffffffffffff1673ffffffffffffffffffffffffffffffffffffffff168273ffffffffffffffffffffffffffffffffffffffff16149050919050565b828054620009929062000f13565b90600052602060002090601f016020900481019282620009b6576000855562000a02565b82601f10620009d157805160ff191683800117855562000a02565b8280016001018555821562000a02579182015b8281111562000a01578251825591602001919060010190620009e4565b5b50905062000a11919062000a15565b5090565b5b8082111562000a3057600081600090555060010162000a16565b5090565b60008151905062000a4581620010ca565b92915050565b60008151905062000a5c81620010e4565b92915050565b600080600080600080600060e0888a03121562000a7e57600080fd5b600062000a8e8a828b0162000a34565b975050602062000aa18a828b0162000a34565b965050604062000ab48a828b0162000a34565b955050606062000ac78a828b0162000a34565b945050608062000ada8a828b0162000a34565b93505060a062000aed8a828b0162000a34565b92505060c062000b008a828b0162000a4b565b91505092959891949750929550565b600062000b1e60228362000c61565b915062000b2b8262000fb4565b604082019050919050565b600062000b4560258362000c61565b915062000b528262001003565b604082019050919050565b600062000b6c60248362000c61565b915062000b798262001052565b604082019050919050565b600062000b93601f8362000c61565b915062000ba082620010a1565b602082019050919050565b62000bb68162000efc565b82525050565b6000602082019050818103600083015262000bd78162000b0f565b9050919050565b6000602082019050818103600083015262000bf98162000b36565b9050919050565b6000602082019050818103600083015262000c1b8162000b5d565b9050919050565b6000602082019050818103600083015262000c3d8162000b84565b9050919050565b600060208201905062000c5b600083018462000bab565b92915050565b600082825260208201905092915050565b600062000c7f8262000efc565b915062000c8c8362000efc565b9250827fffffffffffffffffffffffffffffffffffffffffffffffffffffffffffffffff0382111562000cc45762000cc362000f49565b5b828201905092915050565b6000808291508390505b600185111562000d215780860481111562000cf95762000cf862000f49565b5b600185161562000d095780820291505b808102905062000d198562000fa7565b945062000cd9565b94509492505050565b600062000d378262000efc565b915062000d448362000f06565b925062000d737fffffffffffffffffffffffffffffffffffffffffffffffffffffffffffffffff848462000d7b565b905092915050565b60008262000d8d576001905062000e60565b8162000d9d576000905062000e60565b816001811462000db6576002811462000dc15762000df7565b600191505062000e60565b60ff84111562000dd65762000dd562000f49565b5b8360020a91508482111562000df05762000def62000f49565b5b5062000e60565b5060208310610133831016604e8410600b841016171562000e315782820a90508381111562000e2b5762000e2a62000f49565b5b62000e60565b62000e40848484600162000ccf565b9250905081840481111562000e5a5762000e5962000f49565b5b81810290505b9392505050565b600062000e748262000efc565b915062000e818362000efc565b9250817fffffffffffffffffffffffffffffffffffffffffffffffffffffffffffffffff048311821515161562000ebd5762000ebc62000f49565b5b828202905092915050565b600062000ed58262000edc565b9050919050565b600073ffffffffffffffffffffffffffffffffffffffff82169050919050565b6000819050919050565b600060ff82169050919050565b6000600282049050600182168062000f2c57607f821691505b6020821081141562000f435762000f4262000f78565b5b50919050565b7f4e487b7100000000000000000000000000000000000000000000000000000000600052601160045260246000fd5b7f4e487b7100000000000000000000000000000000000000000000000000000000600052602260045260246000fd5b60008160011c9050919050565b7f45524332303a20617070726f766520746f20746865207a65726f20616464726560008201527f7373000000000000000000000000000000000000000000000000000000000000602082015250565b7f445953546f6b656e3a20546f74616c20737570706c792063616e6e6f7420626560008201527f207a65726f000000000000000000000000000000000000000000000000000000602082015250565b7f45524332303a20617070726f76652066726f6d20746865207a65726f2061646460008201527f7265737300000000000000000000000000000000000000000000000000000000602082015250565b7f45524332303a206d696e7420746f20746865207a65726f206164647265737300600082015250565b620010d58162000ec8565b8114620010e157600080fd5b50565b620010ef8162000efc565b8114620010fb57600080fd5b50565b60805160601c6141e76200112b6000396000818161152301528181612245015261235701526141e76000f3fe60806040526004361061024a5760003560e01c80638456cb5911610139578063ce1b815f116100b6578063dd62ed3e1161007a578063dd62ed3e146108d1578063deadbc141461090e578063e208a93914610939578063e63ab1e914610964578063f0a3a97c1461098f578063f63f98a6146109ba57610251565b8063ce1b815f14610800578063d1509c991461082b578063d44545e714610854578063d547741f1461087f578063da742228146108a857610251565b8063a217fddf116100fd578063a217fddf14610709578063a457c2d714610734578063a522ad2514610771578063a9059cbb1461079a578063c1fc3d81146107d757610251565b80638456cb591461062257806391d148541461063957806395d89b41146106765780639752be4e146106a15780639b19251a146106cc57610251565b80633ac5e8fe116101c75780635c975abb1161018b5780635c975abb1461053f5780636576794f1461056a578063690d83201461059357806370a08231146105bc5780637b337a36146105f957610251565b80633ac5e8fe1461045a5780633c11e12a146104835780633f4ba83a146104c05780634cba593a146104d7578063572b6c051461050257610251565b8063248a9ca31161020e578063248a9ca3146103635780632f2ff15d146103a0578063313ce567146103c957806336568abe146103f4578063395093511461041d57610251565b806301ffc9a71461025657806306fdde0314610293578063095ea7b3146102be57806318160ddd146102fb57806323b872dd1461032657610251565b3661025157005b600080fd5b34801561026257600080fd5b5061027d60048036038101906102789190612e36565b6109e3565b60405161028a91906133d1565b60405180910390f35b34801561029f57600080fd5b506102a8610a5d565b6040516102b59190613422565b60405180910390f35b3480156102ca57600080fd5b506102e560048036038101906102e09190612d02565b610aef565b6040516102f291906133d1565b60405180910390f35b34801561030757600080fd5b50610310610b12565b60405161031d91906136c4565b60405180910390f35b34801561033257600080fd5b5061034d60048036038101906103489190612c77565b610b1c565b60405161035a91906133d1565b60405180910390f35b34801561036f57600080fd5b5061038a60048036038101906103859190612dd1565b610b4b565b60405161039791906133ec565b60405180910390f35b3480156103ac57600080fd5b506103c760048036038101906103c29190612dfa565b610b6b565b005b3480156103d557600080fd5b506103de610b8c565b6040516103eb9190613739565b60405180910390f35b34801561040057600080fd5b5061041b60048036038101906104169190612dfa565b610b95565b005b34801561042957600080fd5b50610444600480360381019061043f9190612d02565b610c18565b60405161045191906133d1565b60405180910390f35b34801561046657600080fd5b50610481600480360381019061047c9190612d7f565b610c4f565b005b34801561048f57600080fd5b506104aa60048036038101906104a59190612be9565b610c97565b6040516104b791906133d1565b60405180910390f35b3480156104cc57600080fd5b506104d5610cb7565b005b3480156104e357600080fd5b506104ec610cec565b6040516104f991906133ec565b60405180910390f35b34801561050e57600080fd5b5061052960048036038101906105249190612be9565b610d10565b60405161053691906133d1565b60405180910390f35b34801561054b57600080fd5b50610554610d6a565b60405161056191906133d1565b60405180910390f35b34801561057657600080fd5b50610591600480360381019061058c9190612cc6565b610d81565b005b34801561059f57600080fd5b506105ba60048036038101906105b59190612be9565b610e5a565b005b3480156105c857600080fd5b506105e360048036038101906105de9190612be9565b610f3f565b6040516105f091906136c4565b60405180910390f35b34801561060557600080fd5b50610620600480360381019061061b9190612cc6565b610f87565b005b34801561062e57600080fd5b50610637611060565b005b34801561064557600080fd5b50610660600480360381019061065b9190612dfa565b611095565b60405161066d91906133d1565b60405180910390f35b34801561068257600080fd5b5061068b611100565b6040516106989190613422565b60405180910390f35b3480156106ad57600080fd5b506106b6611192565b6040516106c391906133d1565b60405180910390f35b3480156106d857600080fd5b506106f360048036038101906106ee9190612be9565b6111a5565b60405161070091906133d1565b60405180910390f35b34801561071557600080fd5b5061071e6111c5565b60405161072b91906133ec565b60405180910390f35b34801561074057600080fd5b5061075b60048036038101906107569190612d02565b6111cc565b60405161076891906133d1565b60405180910390f35b34801561077d57600080fd5b5061079860048036038101906107939190612c3b565b611243565b005b3480156107a657600080fd5b506107c160048036038101906107bc9190612d02565b611375565b6040516107ce91906133d1565b60405180910390f35b3480156107e357600080fd5b506107fe60048036038101906107f99190612e5f565b611398565b005b34801561080c57600080fd5b50610815611412565b604051610822919061338d565b60405180910390f35b34801561083757600080fd5b50610852600480360381019061084d9190612d02565b61143c565b005b34801561086057600080fd5b50610869611459565b60405161087691906136c4565b60405180910390f35b34801561088b57600080fd5b506108a660048036038101906108a19190612dfa565b61145f565b005b3480156108b457600080fd5b506108cf60048036038101906108ca9190612be9565b611480565b005b3480156108dd57600080fd5b506108f860048036038101906108f39190612c3b565b61149a565b60405161090591906136c4565b60405180910390f35b34801561091a57600080fd5b50610923611521565b6040516109309190613407565b60405180910390f35b34801561094557600080fd5b5061094e611545565b60405161095b91906136c4565b60405180910390f35b34801561097057600080fd5b5061097961154b565b60405161098691906133ec565b60405180910390f35b34801561099b57600080fd5b506109a461156f565b6040516109b191906133ec565b60405180910390f35b3480156109c657600080fd5b506109e160048036038101906109dc9190612e5f565b611593565b005b60007f7965db0b000000000000000000000000000000000000000000000000000000007bffffffffffffffffffffffffffffffffffffffffffffffffffffffff1916827bffffffffffffffffffffffffffffffffffffffffffffffffffffffff19161480610a565750610a5582611644565b5b9050919050565b606060038054610a6c90613a4e565b80601f0160208091040260200160405190810160405280929190818152602001828054610a9890613a4e565b8015610ae55780601f10610aba57610100808354040283529160200191610ae5565b820191906000526020600020905b815481529060010190602001808311610ac857829003601f168201915b5050505050905090565b600080610afa6116ae565b9050610b078185856116bd565b600191505092915050565b6000600254905090565b600080610b276116ae565b9050610b34858285611888565b610b3f858585611914565b60019150509392505050565b600060066000838152602001908152602001600020600101549050919050565b610b7482610b4b565b610b7d81611b0c565b610b878383611b20565b505050565b60006012905090565b610b9d6116ae565b73ffffffffffffffffffffffffffffffffffffffff168173ffffffffffffffffffffffffffffffffffffffff1614610c0a576040517f08c379a0000000000000000000000000000000000000000000000000000000008152600401610c01906136a4565b60405180910390fd5b610c148282611c01565b5050565b600080610c236116ae565b9050610c44818585610c35858961149a565b610c3f919061381b565b6116bd565b600191505092915050565b7f349eec46d2c564a125684d1934a6120a70cc341d3a26d362e358a775e07dec17610c7981611b0c565b81600c60006101000a81548160ff0219169083151502179055505050565b600a6020528060005260406000206000915054906101000a900460ff1681565b7f65d7a28e3265b37a6474929f336521b332c1681b933f6cb9f3376673440d862a610ce181611b0c565b610ce9611ce3565b50565b7f349eec46d2c564a125684d1934a6120a70cc341d3a26d362e358a775e07dec1781565b6000600560009054906101000a900473ffffffffffffffffffffffffffffffffffffffff1673ffffffffffffffffffffffffffffffffffffffff168273ffffffffffffffffffffffffffffffffffffffff16149050919050565b6000600760009054906101000a900460ff16905090565b6000801b610d8e81611b0c565b600073ffffffffffffffffffffffffffffffffffffffff168373ffffffffffffffffffffffffffffffffffffffff161415610dfe576040517f08c379a0000000000000000000000000000000000000000000000000000000008152600401610df5906134a4565b60405180910390fd5b81600a60008573ffffffffffffffffffffffffffffffffffffffff1673ffffffffffffffffffffffffffffffffffffffff16815260200190815260200160002060006101000a81548160ff021916908315150217905550505050565b7f3496e2e73c4d42b75d702e60d9e48102720b8691234415963a5a857b86425d07610e8481611b0c565b600073ffffffffffffffffffffffffffffffffffffffff168273ffffffffffffffffffffffffffffffffffffffff161415610ef4576040517f08c379a0000000000000000000000000000000000000000000000000000000008152600401610eeb90613584565b60405180910390fd5b8173ffffffffffffffffffffffffffffffffffffffff166108fc479081150290604051600060405180830381858888f19350505050158015610f3a573d6000803e3d6000fd5b505050565b60008060008373ffffffffffffffffffffffffffffffffffffffff1673ffffffffffffffffffffffffffffffffffffffff168152602001908152602001600020549050919050565b6000801b610f9481611b0c565b600073ffffffffffffffffffffffffffffffffffffffff168373ffffffffffffffffffffffffffffffffffffffff161415611004576040517f08c379a0000000000000000000000000000000000000000000000000000000008152600401610ffb906135a4565b60405180910390fd5b81600b60008573ffffffffffffffffffffffffffffffffffffffff1673ffffffffffffffffffffffffffffffffffffffff16815260200190815260200160002060006101000a81548160ff021916908315150217905550505050565b7f65d7a28e3265b37a6474929f336521b332c1681b933f6cb9f3376673440d862a61108a81611b0c565b611092611d46565b50565b60006006600084815260200190815260200160002060000160008373ffffffffffffffffffffffffffffffffffffffff1673ffffffffffffffffffffffffffffffffffffffff16815260200190815260200160002060009054906101000a900460ff16905092915050565b60606004805461110f90613a4e565b80601f016020809104026020016040519081016040528092919081815260200182805461113b90613a4e565b80156111885780601f1061115d57610100808354040283529160200191611188565b820191906000526020600020905b81548152906001019060200180831161116b57829003601f168201915b5050505050905090565b600c60009054906101000a900460ff1681565b600b6020528060005260406000206000915054906101000a900460ff1681565b6000801b81565b6000806111d76116ae565b905060006111e5828661149a565b90508381101561122a576040517f08c379a000000000000000000000000000000000000000000000000000000000815260040161122190613684565b60405180910390fd5b61123782868684036116bd565b60019250505092915050565b7f3496e2e73c4d42b75d702e60d9e48102720b8691234415963a5a857b86425d0761126d81611b0c565b600073ffffffffffffffffffffffffffffffffffffffff168273ffffffffffffffffffffffffffffffffffffffff1614156112dd576040517f08c379a00000000000000000000000000000000000000000000000000000000081526004016112d490613644565b60405180910390fd5b61137083838573ffffffffffffffffffffffffffffffffffffffff166370a08231306040518263ffffffff1660e01b815260040161131b919061338d565b60206040518083038186803b15801561133357600080fd5b505afa158015611347573d6000803e3d6000fd5b505050506040513d601f19601f8201168201806040525081019061136b9190612e88565b611da9565b505050565b6000806113806116ae565b905061138d818585611914565b600191505092915050565b7f349eec46d2c564a125684d1934a6120a70cc341d3a26d362e358a775e07dec176113c281611b0c565b6103e8821115611407576040517f08c379a00000000000000000000000000000000000000000000000000000000081526004016113fe90613664565b60405180910390fd5b816008819055505050565b6000600560009054906101000a900473ffffffffffffffffffffffffffffffffffffffff16905090565b6000801b61144981611b0c565b6114543084846116bd565b505050565b60085481565b61146882610b4b565b61147181611b0c565b61147b8383611c01565b505050565b6000801b61148d81611b0c565b61149682611e2f565b5050565b6000600160008473ffffffffffffffffffffffffffffffffffffffff1673ffffffffffffffffffffffffffffffffffffffff16815260200190815260200160002060008373ffffffffffffffffffffffffffffffffffffffff1673ffffffffffffffffffffffffffffffffffffffff16815260200190815260200160002054905092915050565b7f000000000000000000000000000000000000000000000000000000000000000081565b60095481565b7f65d7a28e3265b37a6474929f336521b332c1681b933f6cb9f3376673440d862a81565b7f3496e2e73c4d42b75d702e60d9e48102720b8691234415963a5a857b86425d0781565b7f349eec46d2c564a125684d1934a6120a70cc341d3a26d362e358a775e07dec176115bd81611b0c565b6103e8821115611602576040517f08c379a00000000000000000000000000000000000000000000000000000000081526004016115f990613504565b60405180910390fd5b816009819055505050565b60006014600036905010158015611629575061162833610d10565b5b1561163d57601436033560601c9050611641565b3390505b90565b60007f01ffc9a7000000000000000000000000000000000000000000000000000000007bffffffffffffffffffffffffffffffffffffffffffffffffffffffff1916827bffffffffffffffffffffffffffffffffffffffffffffffffffffffff1916149050919050565b60006116b861160d565b905090565b600073ffffffffffffffffffffffffffffffffffffffff168373ffffffffffffffffffffffffffffffffffffffff16141561172d576040517f08c379a0000000000000000000000000000000000000000000000000000000008152600401611724906135e4565b60405180910390fd5b600073ffffffffffffffffffffffffffffffffffffffff168273ffffffffffffffffffffffffffffffffffffffff16141561179d576040517f08c379a0000000000000000000000000000000000000000000000000000000008152600401611794906134c4565b60405180910390fd5b80600160008573ffffffffffffffffffffffffffffffffffffffff1673ffffffffffffffffffffffffffffffffffffffff16815260200190815260200160002060008473ffffffffffffffffffffffffffffffffffffffff1673ffffffffffffffffffffffffffffffffffffffff168152602001908152602001600020819055508173ffffffffffffffffffffffffffffffffffffffff168373ffffffffffffffffffffffffffffffffffffffff167f8c5be1e5ebec7d5bd14f71427d1e84f3dd0314c0f7b2291e5b200ac8c7c3b9258360405161187b91906136c4565b60405180910390a3505050565b6000611894848461149a565b90507fffffffffffffffffffffffffffffffffffffffffffffffffffffffffffffffff811461190e5781811015611900576040517f08c379a00000000000000000000000000000000000000000000000000000000081526004016118f7906134e4565b60405180910390fd5b61190d84848484036116bd565b5b50505050565b61191c611e73565b600b60008473ffffffffffffffffffffffffffffffffffffffff1673ffffffffffffffffffffffffffffffffffffffff16815260200190815260200160002060009054906101000a900460ff161580156119c05750600b60008373ffffffffffffffffffffffffffffffffffffffff1673ffffffffffffffffffffffffffffffffffffffff16815260200190815260200160002060009054906101000a900460ff16155b15611afb576000600a60008573ffffffffffffffffffffffffffffffffffffffff1673ffffffffffffffffffffffffffffffffffffffff16815260200190815260200160002060009054906101000a900460ff168015611a2257506000600854115b15611a3a57611a3382600854611ebd565b9050611aaa565b600a60008473ffffffffffffffffffffffffffffffffffffffff1673ffffffffffffffffffffffffffffffffffffffff16815260200190815260200160002060009054906101000a900460ff168015611a9557506000600954115b15611aa957611aa682600954611ebd565b90505b5b6000811115611adf57611abe843083611ee0565b600c60009054906101000a900460ff1615611ade57611adc81612158565b505b5b611af584848385611af091906138fc565b611ee0565b50611b07565b611b06838383611ee0565b5b505050565b611b1d81611b186116ae565b612416565b50565b611b2a8282611095565b611bfd5760016006600084815260200190815260200160002060000160008373ffffffffffffffffffffffffffffffffffffffff1673ffffffffffffffffffffffffffffffffffffffff16815260200190815260200160002060006101000a81548160ff021916908315150217905550611ba26116ae565b73ffffffffffffffffffffffffffffffffffffffff168173ffffffffffffffffffffffffffffffffffffffff16837f2f8788117e7eff1d82e926ec794901d17c78024a50270940304540a733656f0d60405160405180910390a45b5050565b611c0b8282611095565b15611cdf5760006006600084815260200190815260200160002060000160008373ffffffffffffffffffffffffffffffffffffffff1673ffffffffffffffffffffffffffffffffffffffff16815260200190815260200160002060006101000a81548160ff021916908315150217905550611c846116ae565b73ffffffffffffffffffffffffffffffffffffffff168173ffffffffffffffffffffffffffffffffffffffff16837ff6391f5c32d9c69d2a47ea670b442974b53935d1edc7fd64eb21e047a839171b60405160405180910390a45b5050565b611ceb61249b565b6000600760006101000a81548160ff0219169083151502179055507f5db9ee0a495bf2e6ff9c91a7834c1ba4fdd244a5e8aa4e537bd38aeae4b073aa611d2f6116ae565b604051611d3c919061338d565b60405180910390a1565b611d4e611e73565b6001600760006101000a81548160ff0219169083151502179055507f62e78cea01bee320cd4e420270b5ea74000d11b0c9f74754ebdbfc544b05a258611d926116ae565b604051611d9f919061338d565b60405180910390a1565b611e2a8363a9059cbb60e01b8484604051602401611dc89291906133a8565b604051602081830303815290604052907bffffffffffffffffffffffffffffffffffffffffffffffffffffffff19166020820180517bffffffffffffffffffffffffffffffffffffffffffffffffffffffff83818316178352505050506124e4565b505050565b80600560006101000a81548173ffffffffffffffffffffffffffffffffffffffff021916908373ffffffffffffffffffffffffffffffffffffffff16021790555050565b611e7b610d6a565b15611ebb576040517f08c379a0000000000000000000000000000000000000000000000000000000008152600401611eb290613564565b60405180910390fd5b565b60006127108284611ece91906138a2565b611ed89190613871565b905092915050565b600073ffffffffffffffffffffffffffffffffffffffff168373ffffffffffffffffffffffffffffffffffffffff161415611f50576040517f08c379a0000000000000000000000000000000000000000000000000000000008152600401611f47906135c4565b60405180910390fd5b600073ffffffffffffffffffffffffffffffffffffffff168273ffffffffffffffffffffffffffffffffffffffff161415611fc0576040517f08c379a0000000000000000000000000000000000000000000000000000000008152600401611fb790613464565b60405180910390fd5b611fcb8383836125ac565b60008060008573ffffffffffffffffffffffffffffffffffffffff1673ffffffffffffffffffffffffffffffffffffffff16815260200190815260200160002054905081811015612051576040517f08c379a000000000000000000000000000000000000000000000000000000000815260040161204890613524565b60405180910390fd5b8181036000808673ffffffffffffffffffffffffffffffffffffffff1673ffffffffffffffffffffffffffffffffffffffff16815260200190815260200160002081905550816000808573ffffffffffffffffffffffffffffffffffffffff1673ffffffffffffffffffffffffffffffffffffffff168152602001908152602001600020600082825401925050819055508273ffffffffffffffffffffffffffffffffffffffff168473ffffffffffffffffffffffffffffffffffffffff167fddf252ad1be2c89b69c2b068fc378daa952ba7f163c4a11628f55a4df523b3ef8460405161213f91906136c4565b60405180910390a36121528484846125b1565b50505050565b60606000600267ffffffffffffffff81111561219d577f4e487b7100000000000000000000000000000000000000000000000000000000600052604160045260246000fd5b6040519080825280602002602001820160405280156121cb5781602001602082028036833780820191505090505b5090503081600081518110612209577f4e487b7100000000000000000000000000000000000000000000000000000000600052603260045260246000fd5b602002602001019073ffffffffffffffffffffffffffffffffffffffff16908173ffffffffffffffffffffffffffffffffffffffff16815250507f000000000000000000000000000000000000000000000000000000000000000073ffffffffffffffffffffffffffffffffffffffff1663ad5c46486040518163ffffffff1660e01b815260040160206040518083038186803b1580156122a957600080fd5b505afa1580156122bd573d6000803e3d6000fd5b505050506040513d601f19601f820116820180604052508101906122e19190612c12565b8160018151811061231b577f4e487b7100000000000000000000000000000000000000000000000000000000600052603260045260246000fd5b602002602001019073ffffffffffffffffffffffffffffffffffffffff16908173ffffffffffffffffffffffffffffffffffffffff16815250507f000000000000000000000000000000000000000000000000000000000000000073ffffffffffffffffffffffffffffffffffffffff166318cbafe58460008430426040518663ffffffff1660e01b81526004016123b79594939291906136df565b600060405180830381600087803b1580156123d157600080fd5b505af11580156123e5573d6000803e3d6000fd5b505050506040513d6000823e3d601f19601f8201168201806040525081019061240e9190612d3e565b915050919050565b6124208282611095565b6124975761242d816125b6565b61243b8360001c60206125e3565b60405160200161244c929190613353565b6040516020818303038152906040526040517f08c379a000000000000000000000000000000000000000000000000000000000815260040161248e9190613422565b60405180910390fd5b5050565b6124a3610d6a565b6124e2576040517f08c379a00000000000000000000000000000000000000000000000000000000081526004016124d990613484565b60405180910390fd5b565b6000612546826040518060400160405280602081526020017f5361666545524332303a206c6f772d6c6576656c2063616c6c206661696c65648152508573ffffffffffffffffffffffffffffffffffffffff166128dd9092919063ffffffff16565b90506000815114806125685750808060200190518101906125679190612da8565b5b6125a7576040517f08c379a000000000000000000000000000000000000000000000000000000000815260040161259e90613624565b60405180910390fd5b505050565b505050565b505050565b60606125dc8273ffffffffffffffffffffffffffffffffffffffff16601460ff166125e3565b9050919050565b6060600060028360026125f691906138a2565b612600919061381b565b67ffffffffffffffff81111561263f577f4e487b7100000000000000000000000000000000000000000000000000000000600052604160045260246000fd5b6040519080825280601f01601f1916602001820160405280156126715781602001600182028036833780820191505090505b5090507f3000000000000000000000000000000000000000000000000000000000000000816000815181106126cf577f4e487b7100000000000000000000000000000000000000000000000000000000600052603260045260246000fd5b60200101907effffffffffffffffffffffffffffffffffffffffffffffffffffffffffffff1916908160001a9053507f780000000000000000000000000000000000000000000000000000000000000081600181518110612759577f4e487b7100000000000000000000000000000000000000000000000000000000600052603260045260246000fd5b60200101907effffffffffffffffffffffffffffffffffffffffffffffffffffffffffffff1916908160001a9053506000600184600261279991906138a2565b6127a3919061381b565b90505b600181111561288f577f3031323334353637383961626364656600000000000000000000000000000000600f86166010811061280b577f4e487b7100000000000000000000000000000000000000000000000000000000600052603260045260246000fd5b1a60f81b828281518110612848577f4e487b7100000000000000000000000000000000000000000000000000000000600052603260045260246000fd5b60200101907effffffffffffffffffffffffffffffffffffffffffffffffffffffffffffff1916908160001a905350600485901c94508061288890613a24565b90506127a6565b50600084146128d3576040517f08c379a00000000000000000000000000000000000000000000000000000000081526004016128ca90613444565b60405180910390fd5b8091505092915050565b60606128ec84846000856128f5565b90509392505050565b60608247101561293a576040517f08c379a000000000000000000000000000000000000000000000000000000000815260040161293190613544565b60405180910390fd5b6000808673ffffffffffffffffffffffffffffffffffffffff168587604051612963919061333c565b60006040518083038185875af1925050503d80600081146129a0576040519150601f19603f3d011682016040523d82523d6000602084013e6129a5565b606091505b50915091506129b6878383876129c2565b92505050949350505050565b60608315612a2557600083511415612a1d576129dd85612a38565b612a1c576040517f08c379a0000000000000000000000000000000000000000000000000000000008152600401612a1390613604565b60405180910390fd5b5b829050612a30565b612a2f8383612a5b565b5b949350505050565b6000808273ffffffffffffffffffffffffffffffffffffffff163b119050919050565b600082511115612a6e5781518083602001fd5b806040517f08c379a0000000000000000000000000000000000000000000000000000000008152600401612aa29190613422565b60405180910390fd5b6000612abe612ab984613779565b613754565b90508083825260208201905082856020860282011115612add57600080fd5b60005b85811015612b0d5781612af38882612bd4565b845260208401935060208301925050600181019050612ae0565b5050509392505050565b600081359050612b268161413e565b92915050565b600081519050612b3b8161413e565b92915050565b600082601f830112612b5257600080fd5b8151612b62848260208601612aab565b91505092915050565b600081359050612b7a81614155565b92915050565b600081519050612b8f81614155565b92915050565b600081359050612ba48161416c565b92915050565b600081359050612bb981614183565b92915050565b600081359050612bce8161419a565b92915050565b600081519050612be38161419a565b92915050565b600060208284031215612bfb57600080fd5b6000612c0984828501612b17565b91505092915050565b600060208284031215612c2457600080fd5b6000612c3284828501612b2c565b91505092915050565b60008060408385031215612c4e57600080fd5b6000612c5c85828601612b17565b9250506020612c6d85828601612b17565b9150509250929050565b600080600060608486031215612c8c57600080fd5b6000612c9a86828701612b17565b9350506020612cab86828701612b17565b9250506040612cbc86828701612bbf565b9150509250925092565b60008060408385031215612cd957600080fd5b6000612ce785828601612b17565b9250506020612cf885828601612b6b565b9150509250929050565b60008060408385031215612d1557600080fd5b6000612d2385828601612b17565b9250506020612d3485828601612bbf565b9150509250929050565b600060208284031215612d5057600080fd5b600082015167ffffffffffffffff811115612d6a57600080fd5b612d7684828501612b41565b91505092915050565b600060208284031215612d9157600080fd5b6000612d9f84828501612b6b565b91505092915050565b600060208284031215612dba57600080fd5b6000612dc884828501612b80565b91505092915050565b600060208284031215612de357600080fd5b6000612df184828501612b95565b91505092915050565b60008060408385031215612e0d57600080fd5b6000612e1b85828601612b95565b9250506020612e2c85828601612b17565b9150509250929050565b600060208284031215612e4857600080fd5b6000612e5684828501612baa565b91505092915050565b600060208284031215612e7157600080fd5b6000612e7f84828501612bbf565b91505092915050565b600060208284031215612e9a57600080fd5b6000612ea884828501612bd4565b91505092915050565b6000612ebd8383612ec9565b60208301905092915050565b612ed281613930565b82525050565b612ee181613930565b82525050565b6000612ef2826137b5565b612efc81856137e3565b9350612f07836137a5565b8060005b83811015612f38578151612f1f8882612eb1565b9750612f2a836137d6565b925050600181019050612f0b565b5085935050505092915050565b612f4e81613942565b82525050565b612f5d8161394e565b82525050565b6000612f6e826137c0565b612f7881856137f4565b9350612f888185602086016139f1565b80840191505092915050565b612f9d816139bb565b82525050565b612fac816139df565b82525050565b6000612fbd826137cb565b612fc781856137ff565b9350612fd78185602086016139f1565b612fe081613b6d565b840191505092915050565b6000612ff6826137cb565b6130008185613810565b93506130108185602086016139f1565b80840191505092915050565b60006130296020836137ff565b915061303482613b7e565b602082019050919050565b600061304c6023836137ff565b915061305782613ba7565b604082019050919050565b600061306f6014836137ff565b915061307a82613bf6565b602082019050919050565b60006130926028836137ff565b915061309d82613c1f565b604082019050919050565b60006130b56022836137ff565b91506130c082613c6e565b604082019050919050565b60006130d8601d836137ff565b91506130e382613cbd565b602082019050919050565b60006130fb602a836137ff565b915061310682613ce6565b604082019050919050565b600061311e6026836137ff565b915061312982613d35565b604082019050919050565b60006131416026836137ff565b915061314c82613d84565b604082019050919050565b60006131646010836137ff565b915061316f82613dd3565b602082019050919050565b6000613187602d836137ff565b915061319282613dfc565b604082019050919050565b60006131aa6030836137ff565b91506131b582613e4b565b604082019050919050565b60006131cd6025836137ff565b91506131d882613e9a565b604082019050919050565b60006131f06024836137ff565b91506131fb82613ee9565b604082019050919050565b6000613213601d836137ff565b915061321e82613f38565b602082019050919050565b6000613236601783613810565b915061324182613f61565b601782019050919050565b6000613259602a836137ff565b915061326482613f8a565b604082019050919050565b600061327c6030836137ff565b915061328782613fd9565b604082019050919050565b600061329f6029836137ff565b91506132aa82614028565b604082019050919050565b60006132c26025836137ff565b91506132cd82614077565b604082019050919050565b60006132e5601183613810565b91506132f0826140c6565b601182019050919050565b6000613308602f836137ff565b9150613313826140ef565b604082019050919050565b613327816139a4565b82525050565b613336816139ae565b82525050565b60006133488284612f63565b915081905092915050565b600061335e82613229565b915061336a8285612feb565b9150613375826132d8565b91506133818284612feb565b91508190509392505050565b60006020820190506133a26000830184612ed8565b92915050565b60006040820190506133bd6000830185612ed8565b6133ca602083018461331e565b9392505050565b60006020820190506133e66000830184612f45565b92915050565b60006020820190506134016000830184612f54565b92915050565b600060208201905061341c6000830184612f94565b92915050565b6000602082019050818103600083015261343c8184612fb2565b905092915050565b6000602082019050818103600083015261345d8161301c565b9050919050565b6000602082019050818103600083015261347d8161303f565b9050919050565b6000602082019050818103600083015261349d81613062565b9050919050565b600060208201905081810360008301526134bd81613085565b9050919050565b600060208201905081810360008301526134dd816130a8565b9050919050565b600060208201905081810360008301526134fd816130cb565b9050919050565b6000602082019050818103600083015261351d816130ee565b9050919050565b6000602082019050818103600083015261353d81613111565b9050919050565b6000602082019050818103600083015261355d81613134565b9050919050565b6000602082019050818103600083015261357d81613157565b9050919050565b6000602082019050818103600083015261359d8161317a565b9050919050565b600060208201905081810360008301526135bd8161319d565b9050919050565b600060208201905081810360008301526135dd816131c0565b9050919050565b600060208201905081810360008301526135fd816131e3565b9050919050565b6000602082019050818103600083015261361d81613206565b9050919050565b6000602082019050818103600083015261363d8161324c565b9050919050565b6000602082019050818103600083015261365d8161326f565b9050919050565b6000602082019050818103600083015261367d81613292565b9050919050565b6000602082019050818103600083015261369d816132b5565b9050919050565b600060208201905081810360008301526136bd816132fb565b9050919050565b60006020820190506136d9600083018461331e565b92915050565b600060a0820190506136f4600083018861331e565b6137016020830187612fa3565b81810360408301526137138186612ee7565b90506137226060830185612ed8565b61372f608083018461331e565b9695505050505050565b600060208201905061374e600083018461332d565b92915050565b600061375e61376f565b905061376a8282613a80565b919050565b6000604051905090565b600067ffffffffffffffff82111561379457613793613b3e565b5b602082029050602081019050919050565b6000819050602082019050919050565b600081519050919050565b600081519050919050565b600081519050919050565b6000602082019050919050565b600082825260208201905092915050565b600081905092915050565b600082825260208201905092915050565b600081905092915050565b6000613826826139a4565b9150613831836139a4565b9250827fffffffffffffffffffffffffffffffffffffffffffffffffffffffffffffffff0382111561386657613865613ab1565b5b828201905092915050565b600061387c826139a4565b9150613887836139a4565b92508261389757613896613ae0565b5b828204905092915050565b60006138ad826139a4565b91506138b8836139a4565b9250817fffffffffffffffffffffffffffffffffffffffffffffffffffffffffffffffff04831182151516156138f1576138f0613ab1565b5b828202905092915050565b6000613907826139a4565b9150613912836139a4565b92508282101561392557613924613ab1565b5b828203905092915050565b600061393b82613984565b9050919050565b60008115159050919050565b6000819050919050565b60007fffffffff0000000000000000000000000000000000000000000000000000000082169050919050565b600073ffffffffffffffffffffffffffffffffffffffff82169050919050565b6000819050919050565b600060ff82169050919050565b60006139c6826139cd565b9050919050565b60006139d882613984565b9050919050565b60006139ea826139a4565b9050919050565b60005b83811015613a0f5780820151818401526020810190506139f4565b83811115613a1e576000848401525b50505050565b6000613a2f826139a4565b91506000821415613a4357613a42613ab1565b5b600182039050919050565b60006002820490506001821680613a6657607f821691505b60208210811415613a7a57613a79613b0f565b5b50919050565b613a8982613b6d565b810181811067ffffffffffffffff82111715613aa857613aa7613b3e565b5b80604052505050565b7f4e487b7100000000000000000000000000000000000000000000000000000000600052601160045260246000fd5b7f4e487b7100000000000000000000000000000000000000000000000000000000600052601260045260246000fd5b7f4e487b7100000000000000000000000000000000000000000000000000000000600052602260045260246000fd5b7f4e487b7100000000000000000000000000000000000000000000000000000000600052604160045260246000fd5b6000601f19601f8301169050919050565b7f537472696e67733a20686578206c656e67746820696e73756666696369656e74600082015250565b7f45524332303a207472616e7366657220746f20746865207a65726f206164647260008201527f6573730000000000000000000000000000000000000000000000000000000000602082015250565b7f5061757361626c653a206e6f7420706175736564000000000000000000000000600082015250565b7f445953546f6b656e3a2043616e6e6f7420736574207a65726f2061646472657360008201527f7320617320646578000000000000000000000000000000000000000000000000602082015250565b7f45524332303a20617070726f766520746f20746865207a65726f20616464726560008201527f7373000000000000000000000000000000000000000000000000000000000000602082015250565b7f45524332303a20696e73756666696369656e7420616c6c6f77616e6365000000600082015250565b7f445953546f6b656e3a2053656c6c206665652063616e6e6f74206265206d6f7260008201527f65207468616e2031302500000000000000000000000000000000000000000000602082015250565b7f45524332303a207472616e7366657220616d6f756e742065786365656473206260008201527f616c616e63650000000000000000000000000000000000000000000000000000602082015250565b7f416464726573733a20696e73756666696369656e742062616c616e636520666f60008201527f722063616c6c0000000000000000000000000000000000000000000000000000602082015250565b7f5061757361626c653a2070617573656400000000000000000000000000000000600082015250565b7f445953546f6b656e3a2043616e6e6f742077697468647261772045544820746f60008201527f207a65726f206164647265737300000000000000000000000000000000000000602082015250565b7f445953546f6b656e3a2043616e6e6f7420736574207a65726f2061646472657360008201527f732061732077686974656c697374656400000000000000000000000000000000602082015250565b7f45524332303a207472616e736665722066726f6d20746865207a65726f20616460008201527f6472657373000000000000000000000000000000000000000000000000000000602082015250565b7f45524332303a20617070726f76652066726f6d20746865207a65726f2061646460008201527f7265737300000000000000000000000000000000000000000000000000000000602082015250565b7f416464726573733a2063616c6c20746f206e6f6e2d636f6e7472616374000000600082015250565b7f416363657373436f6e74726f6c3a206163636f756e7420000000000000000000600082015250565b7f5361666545524332303a204552433230206f7065726174696f6e20646964206e60008201527f6f74207375636365656400000000000000000000000000000000000000000000602082015250565b7f445953546f6b656e3a2043616e6e6f7420776974686472617720746f6b656e7360008201527f20746f207a65726f206164647265737300000000000000000000000000000000602082015250565b7f445953546f6b656e3a20427579206665652063616e6e6f74206265206d6f726560008201527f207468616e203130250000000000000000000000000000000000000000000000602082015250565b7f45524332303a2064656372656173656420616c6c6f77616e63652062656c6f7760008201527f207a65726f000000000000000000000000000000000000000000000000000000602082015250565b7f206973206d697373696e6720726f6c6520000000000000000000000000000000600082015250565b7f416363657373436f6e74726f6c3a2063616e206f6e6c792072656e6f756e636560008201527f20726f6c657320666f722073656c660000000000000000000000000000000000602082015250565b61414781613930565b811461415257600080fd5b50565b61415e81613942565b811461416957600080fd5b50565b6141758161394e565b811461418057600080fd5b50565b61418c81613958565b811461419757600080fd5b50565b6141a3816139a4565b81146141ae57600080fd5b5056fea2646970667358221220027cfe6f8a3cc050555b1f319a15f61a3517ea057dd0e2f12b126e3a72a0967164736f6c63430008040033",
  "devdoc": {
    "kind": "dev",
    "methods": {
      "allowance(address,address)": {
        "details": "See {IERC20-allowance}."
      },
      "approve(address,uint256)": {
        "details": "See {IERC20-approve}. NOTE: If `amount` is the maximum `uint256`, the allowance is not updated on `transferFrom`. This is semantically equivalent to an infinite approval. Requirements: - `spender` cannot be the zero address."
      },
      "balanceOf(address)": {
        "details": "See {IERC20-balanceOf}."
      },
      "decimals()": {
        "details": "Returns the number of decimals used to get its user representation. For example, if `decimals` equals `2`, a balance of `505` tokens should be displayed to a user as `5.05` (`505 / 10 ** 2`). Tokens usually opt for a value of 18, imitating the relationship between Ether and Wei. This is the default value returned by this function, unless it's overridden. NOTE: This information is only used for _display_ purposes: it in no way affects any of the arithmetic of the contract, including {IERC20-balanceOf} and {IERC20-transfer}."
      },
      "decreaseAllowance(address,uint256)": {
        "details": "Atomically decreases the allowance granted to `spender` by the caller. This is an alternative to {approve} that can be used as a mitigation for problems described in {IERC20-approve}. Emits an {Approval} event indicating the updated allowance. Requirements: - `spender` cannot be the zero address. - `spender` must have allowance for the caller of at least `subtractedValue`."
      },
      "getRoleAdmin(bytes32)": {
        "details": "Returns the admin role that controls `role`. See {grantRole} and {revokeRole}. To change a role's admin, use {_setRoleAdmin}."
      },
      "getTrustedForwarder()": {
        "returns": {
          "forwarder": "The address of the Forwarder contract that is being used."
        }
      },
      "grantRole(bytes32,address)": {
        "details": "Grants `role` to `account`. If `account` had not been already granted `role`, emits a {RoleGranted} event. Requirements: - the caller must have ``role``'s admin role. May emit a {RoleGranted} event."
      },
      "hasRole(bytes32,address)": {
        "details": "Returns `true` if `account` has been granted `role`."
      },
      "increaseAllowance(address,uint256)": {
        "details": "Atomically increases the allowance granted to `spender` by the caller. This is an alternative to {approve} that can be used as a mitigation for problems described in {IERC20-approve}. Emits an {Approval} event indicating the updated allowance. Requirements: - `spender` cannot be the zero address."
      },
      "isTrustedForwarder(address)": {
        "params": {
          "forwarder": "The address of the Forwarder contract that is being used."
        },
        "returns": {
          "_0": "isTrustedForwarder `true` if the Forwarder is trusted to forward relayed transactions by this Recipient."
        }
      },
      "name()": {
        "details": "Returns the name of the token."
      },
      "paused()": {
        "details": "Returns true if the contract is paused, and false otherwise."
      },
      "renounceRole(bytes32,address)": {
        "details": "Revokes `role` from the calling account. Roles are often managed via {grantRole} and {revokeRole}: this function's purpose is to provide a mechanism for accounts to lose their privileges if they are compromised (such as when a trusted device is misplaced). If the calling account had been revoked `role`, emits a {RoleRevoked} event. Requirements: - the caller must be `account`. May emit a {RoleRevoked} event."
      },
      "revokeRole(bytes32,address)": {
        "details": "Revokes `role` from `account`. If `account` had been granted `role`, emits a {RoleRevoked} event. Requirements: - the caller must have ``role``'s admin role. May emit a {RoleRevoked} event."
      },
      "supportsInterface(bytes4)": {
        "details": "See {IERC165-supportsInterface}."
      },
      "symbol()": {
        "details": "Returns the symbol of the token, usually a shorter version of the name."
      },
      "totalSupply()": {
        "details": "See {IERC20-totalSupply}."
      },
      "transfer(address,uint256)": {
        "details": "See {IERC20-transfer}. Requirements: - `to` cannot be the zero address. - the caller must have a balance of at least `amount`."
      },
      "transferFrom(address,address,uint256)": {
        "details": "See {IERC20-transferFrom}. Emits an {Approval} event indicating the updated allowance. This is not required by the EIP. See the note at the beginning of {ERC20}. NOTE: Does not update the allowance if the current allowance is the maximum `uint256`. Requirements: - `from` and `to` cannot be the zero address. - `from` must have a balance of at least `amount`. - the caller must have allowance for ``from``'s tokens of at least `amount`."
      }
    },
    "version": 1
  },
  "userdoc": {
    "kind": "user",
    "methods": {
      "getTrustedForwarder()": {
        "notice": ":warning: **Warning** :warning: The Forwarder can have a full control over your Recipient. Only trust verified Forwarder.Method is not a required method to allow Recipients to trust multiple Forwarders. Not recommended yet."
      },
      "isTrustedForwarder(address)": {
        "notice": ":warning: **Warning** :warning: The Forwarder can have a full control over your Recipient. Only trust verified Forwarder."
      }
    },
    "version": 1
  },
  "storageLayout": {
    "storage": [
      {
        "astId": 1626,
        "contract": "contracts/DYS/DYSToken.sol:DYSToken",
        "label": "_balances",
        "offset": 0,
        "slot": "0",
        "type": "t_mapping(t_address,t_uint256)"
      },
      {
        "astId": 1632,
        "contract": "contracts/DYS/DYSToken.sol:DYSToken",
        "label": "_allowances",
        "offset": 0,
        "slot": "1",
        "type": "t_mapping(t_address,t_mapping(t_address,t_uint256))"
      },
      {
        "astId": 1634,
        "contract": "contracts/DYS/DYSToken.sol:DYSToken",
        "label": "_totalSupply",
        "offset": 0,
        "slot": "2",
        "type": "t_uint256"
      },
      {
        "astId": 1636,
        "contract": "contracts/DYS/DYSToken.sol:DYSToken",
        "label": "_name",
        "offset": 0,
        "slot": "3",
        "type": "t_string_storage"
      },
      {
        "astId": 1638,
        "contract": "contracts/DYS/DYSToken.sol:DYSToken",
        "label": "_symbol",
        "offset": 0,
        "slot": "4",
        "type": "t_string_storage"
      },
      {
        "astId": 7,
        "contract": "contracts/DYS/DYSToken.sol:DYSToken",
        "label": "_trustedForwarder",
        "offset": 0,
        "slot": "5",
        "type": "t_address"
      },
      {
        "astId": 151,
        "contract": "contracts/DYS/DYSToken.sol:DYSToken",
        "label": "_roles",
        "offset": 0,
        "slot": "6",
        "type": "t_mapping(t_bytes32,t_struct(RoleData)146_storage)"
      },
      {
        "astId": 1479,
        "contract": "contracts/DYS/DYSToken.sol:DYSToken",
        "label": "_paused",
        "offset": 0,
        "slot": "7",
        "type": "t_bool"
      },
      {
        "astId": 4748,
        "contract": "contracts/DYS/DYSToken.sol:DYSToken",
        "label": "buyFeePercentage",
        "offset": 0,
        "slot": "8",
        "type": "t_uint256"
      },
      {
        "astId": 4751,
        "contract": "contracts/DYS/DYSToken.sol:DYSToken",
        "label": "sellFeePercentage",
        "offset": 0,
        "slot": "9",
        "type": "t_uint256"
      },
      {
        "astId": 4758,
        "contract": "contracts/DYS/DYSToken.sol:DYSToken",
        "label": "isDex",
        "offset": 0,
        "slot": "10",
        "type": "t_mapping(t_address,t_bool)"
      },
      {
        "astId": 4762,
        "contract": "contracts/DYS/DYSToken.sol:DYSToken",
        "label": "whitelist",
        "offset": 0,
        "slot": "11",
        "type": "t_mapping(t_address,t_bool)"
      },
      {
        "astId": 4765,
        "contract": "contracts/DYS/DYSToken.sol:DYSToken",
        "label": "swapFeesToEth",
        "offset": 0,
        "slot": "12",
        "type": "t_bool"
      }
    ],
    "types": {
      "t_address": {
        "encoding": "inplace",
        "label": "address",
        "numberOfBytes": "20"
      },
      "t_bool": {
        "encoding": "inplace",
        "label": "bool",
        "numberOfBytes": "1"
      },
      "t_bytes32": {
        "encoding": "inplace",
        "label": "bytes32",
        "numberOfBytes": "32"
      },
      "t_mapping(t_address,t_bool)": {
        "encoding": "mapping",
        "key": "t_address",
        "label": "mapping(address => bool)",
        "numberOfBytes": "32",
        "value": "t_bool"
      },
      "t_mapping(t_address,t_mapping(t_address,t_uint256))": {
        "encoding": "mapping",
        "key": "t_address",
        "label": "mapping(address => mapping(address => uint256))",
        "numberOfBytes": "32",
        "value": "t_mapping(t_address,t_uint256)"
      },
      "t_mapping(t_address,t_uint256)": {
        "encoding": "mapping",
        "key": "t_address",
        "label": "mapping(address => uint256)",
        "numberOfBytes": "32",
        "value": "t_uint256"
      },
      "t_mapping(t_bytes32,t_struct(RoleData)146_storage)": {
        "encoding": "mapping",
        "key": "t_bytes32",
        "label": "mapping(bytes32 => struct AccessControl.RoleData)",
        "numberOfBytes": "32",
        "value": "t_struct(RoleData)146_storage"
      },
      "t_string_storage": {
        "encoding": "bytes",
        "label": "string",
        "numberOfBytes": "32"
      },
      "t_struct(RoleData)146_storage": {
        "encoding": "inplace",
        "label": "struct AccessControl.RoleData",
        "members": [
          {
            "astId": 143,
            "contract": "contracts/DYS/DYSToken.sol:DYSToken",
            "label": "members",
            "offset": 0,
            "slot": "0",
            "type": "t_mapping(t_address,t_bool)"
          },
          {
            "astId": 145,
            "contract": "contracts/DYS/DYSToken.sol:DYSToken",
            "label": "adminRole",
            "offset": 0,
            "slot": "1",
            "type": "t_bytes32"
          }
        ],
        "numberOfBytes": "64"
      },
      "t_uint256": {
        "encoding": "inplace",
        "label": "uint256",
        "numberOfBytes": "32"
      }
    }
  }
}